{
  "_format": "hh-sol-artifact-1",
  "contractName": "CompatibilityFallbackHandler_SV1_4_1",
  "sourceName": "contracts/Deps_V1_4_1.sol",
  "abi": [
    {
      "inputs": [
        {
          "internalType": "contract Safe",
          "name": "safe",
          "type": "address"
        },
        {
          "internalType": "bytes",
          "name": "message",
          "type": "bytes"
        }
      ],
      "name": "encodeMessageDataForSafe",
      "outputs": [
        {
          "internalType": "bytes",
          "name": "",
          "type": "bytes"
        }
      ],
      "stateMutability": "view",
      "type": "function"
    },
    {
      "inputs": [
        {
          "internalType": "bytes",
          "name": "message",
          "type": "bytes"
        }
      ],
      "name": "getMessageHash",
      "outputs": [
        {
          "internalType": "bytes32",
          "name": "",
          "type": "bytes32"
        }
      ],
      "stateMutability": "view",
      "type": "function"
    },
    {
      "inputs": [
        {
          "internalType": "contract Safe",
          "name": "safe",
          "type": "address"
        },
        {
          "internalType": "bytes",
          "name": "message",
          "type": "bytes"
        }
      ],
      "name": "getMessageHashForSafe",
      "outputs": [
        {
          "internalType": "bytes32",
          "name": "",
          "type": "bytes32"
        }
      ],
      "stateMutability": "view",
      "type": "function"
    },
    {
      "inputs": [],
      "name": "getModules",
      "outputs": [
        {
          "internalType": "address[]",
          "name": "",
          "type": "address[]"
        }
      ],
      "stateMutability": "view",
      "type": "function"
    },
    {
      "inputs": [
        {
          "internalType": "bytes32",
          "name": "_dataHash",
          "type": "bytes32"
        },
        {
          "internalType": "bytes",
          "name": "_signature",
          "type": "bytes"
        }
      ],
      "name": "isValidSignature",
      "outputs": [
        {
          "internalType": "bytes4",
          "name": "",
          "type": "bytes4"
        }
      ],
      "stateMutability": "view",
      "type": "function"
    },
    {
      "inputs": [
        {
          "internalType": "bytes",
          "name": "_data",
          "type": "bytes"
        },
        {
          "internalType": "bytes",
          "name": "_signature",
          "type": "bytes"
        }
      ],
      "name": "isValidSignature",
      "outputs": [
        {
          "internalType": "bytes4",
          "name": "",
          "type": "bytes4"
        }
      ],
      "stateMutability": "view",
      "type": "function"
    },
    {
      "inputs": [
        {
          "internalType": "address",
          "name": "",
          "type": "address"
        },
        {
          "internalType": "address",
          "name": "",
          "type": "address"
        },
        {
          "internalType": "uint256[]",
          "name": "",
          "type": "uint256[]"
        },
        {
          "internalType": "uint256[]",
          "name": "",
          "type": "uint256[]"
        },
        {
          "internalType": "bytes",
          "name": "",
          "type": "bytes"
        }
      ],
      "name": "onERC1155BatchReceived",
      "outputs": [
        {
          "internalType": "bytes4",
          "name": "",
          "type": "bytes4"
        }
      ],
      "stateMutability": "pure",
      "type": "function"
    },
    {
      "inputs": [
        {
          "internalType": "address",
          "name": "",
          "type": "address"
        },
        {
          "internalType": "address",
          "name": "",
          "type": "address"
        },
        {
          "internalType": "uint256",
          "name": "",
          "type": "uint256"
        },
        {
          "internalType": "uint256",
          "name": "",
          "type": "uint256"
        },
        {
          "internalType": "bytes",
          "name": "",
          "type": "bytes"
        }
      ],
      "name": "onERC1155Received",
      "outputs": [
        {
          "internalType": "bytes4",
          "name": "",
          "type": "bytes4"
        }
      ],
      "stateMutability": "pure",
      "type": "function"
    },
    {
      "inputs": [
        {
          "internalType": "address",
          "name": "",
          "type": "address"
        },
        {
          "internalType": "address",
          "name": "",
          "type": "address"
        },
        {
          "internalType": "uint256",
          "name": "",
          "type": "uint256"
        },
        {
          "internalType": "bytes",
          "name": "",
          "type": "bytes"
        }
      ],
      "name": "onERC721Received",
      "outputs": [
        {
          "internalType": "bytes4",
          "name": "",
          "type": "bytes4"
        }
      ],
      "stateMutability": "pure",
      "type": "function"
    },
    {
      "inputs": [
        {
          "internalType": "address",
          "name": "targetContract",
          "type": "address"
        },
        {
          "internalType": "bytes",
          "name": "calldataPayload",
          "type": "bytes"
        }
      ],
      "name": "simulate",
      "outputs": [
        {
          "internalType": "bytes",
          "name": "response",
          "type": "bytes"
        }
      ],
      "stateMutability": "nonpayable",
      "type": "function"
    },
    {
      "inputs": [
        {
          "internalType": "bytes4",
          "name": "interfaceId",
          "type": "bytes4"
        }
      ],
      "name": "supportsInterface",
      "outputs": [
        {
          "internalType": "bool",
          "name": "",
          "type": "bool"
        }
      ],
      "stateMutability": "view",
      "type": "function"
    },
    {
      "inputs": [
        {
          "internalType": "address",
          "name": "",
          "type": "address"
        },
        {
          "internalType": "address",
          "name": "",
          "type": "address"
        },
        {
          "internalType": "address",
          "name": "",
          "type": "address"
        },
        {
          "internalType": "uint256",
          "name": "",
          "type": "uint256"
        },
        {
          "internalType": "bytes",
          "name": "",
          "type": "bytes"
        },
        {
          "internalType": "bytes",
          "name": "",
          "type": "bytes"
        }
      ],
      "name": "tokensReceived",
      "outputs": [],
      "stateMutability": "pure",
      "type": "function"
    }
  ],
  "bytecode": "0x608060405234801561001057600080fd5b50611762806100206000396000f3fe608060405234801561001057600080fd5b50600436106100b35760003560e01c8063230316401161007157806323031640146101c45780636ac24784146101f4578063b2494df314610224578063bc197c8114610242578063bd61951d14610272578063f23a6e61146102a2576100b3565b806223de29146100b857806301ffc9a7146100d45780630a1028c414610104578063150b7a02146101345780631626ba7e1461016457806320c13b0b14610194575b600080fd5b6100d260048036038101906100cd9190610b8f565b6102d2565b005b6100ee60048036038101906100e99190610f5d565b6102dc565b6040516100fb9190611316565b60405180910390f35b61011e60048036038101906101199190610faf565b610416565b60405161012b9190611331565b60405180910390f35b61014e60048036038101906101499190610d1e565b610429565b60405161015b91906113ba565b60405180910390f35b61017e60048036038101906101799190610f05565b61043e565b60405161018b91906113ba565b60405180910390f35b6101ae60048036038101906101a99190610ff0565b61055e565b6040516101bb91906113ba565b60405180910390f35b6101de60048036038101906101d9919061105c565b6106da565b6040516101eb91906113d5565b60405180910390f35b61020e6004803603810190610209919061105c565b6107e7565b60405161021b9190611331565b60405180910390f35b61022c610802565b60405161023991906112f4565b60405180910390f35b61025c60048036038101906102579190610c52565b6108a8565b60405161026991906113ba565b60405180910390f35b61028c60048036038101906102879190610e30565b6108c0565b60405161029991906113d5565b60405180910390f35b6102bc60048036038101906102b79190610d9e565b61092a565b6040516102c991906113ba565b60405180910390f35b5050505050505050565b60007f4e2312e0000000000000000000000000000000000000000000000000000000007bffffffffffffffffffffffffffffffffffffffffffffffffffffffff1916827bffffffffffffffffffffffffffffffffffffffffffffffffffffffff191614806103a757507f150b7a02000000000000000000000000000000000000000000000000000000007bffffffffffffffffffffffffffffffffffffffffffffffffffffffff1916827bffffffffffffffffffffffffffffffffffffffffffffffffffffffff1916145b8061040f57507f01ffc9a7000000000000000000000000000000000000000000000000000000007bffffffffffffffffffffffffffffffffffffffffffffffffffffffff1916827bffffffffffffffffffffffffffffffffffffffffffffffffffffffff1916145b9050919050565b600061042233836107e7565b9050919050565b600063150b7a0260e01b905095945050505050565b60008033905060008173ffffffffffffffffffffffffffffffffffffffff166320c13b0b876040516020016104739190611331565b60405160208183030381529060405287876040518463ffffffff1660e01b81526004016104a2939291906113f7565b60206040518083038186803b1580156104ba57600080fd5b505afa1580156104ce573d6000803e3d6000fd5b505050506040513d601f19601f820116820180604052508101906104f29190610f86565b90506320c13b0b60e01b7bffffffffffffffffffffffffffffffffffffffffffffffffffffffff1916817bffffffffffffffffffffffffffffffffffffffffffffffffffffffff19161461054a57600060e01b610553565b631626ba7e60e01b5b925050509392505050565b600080339050600061057082866106da565b90506000818051906020012090506000855114156106595760008373ffffffffffffffffffffffffffffffffffffffff16635ae6bd37836040518263ffffffff1660e01b81526004016105c39190611331565b60206040518083038186803b1580156105db57600080fd5b505afa1580156105ef573d6000803e3d6000fd5b505050506040513d601f19601f8201168201806040525081019061061391906110b0565b1415610654576040517f08c379a000000000000000000000000000000000000000000000000000000000815260040161064b90611430565b60405180910390fd5b6106c7565b8273ffffffffffffffffffffffffffffffffffffffff1663934f3a118284886040518463ffffffff1660e01b815260040161069693929190611375565b60006040518083038186803b1580156106ae57600080fd5b505afa1580156106c2573d6000803e3d6000fd5b505050505b6320c13b0b60e01b935050505092915050565b606060007f60b3cbf8b4a223d68d641b3b6ddf9a298e7f33710cf3d3a9d1146b5a6150fbca60001b838051906020012060405160200161071b92919061134c565b604051602081830303815290604052805190602001209050601960f81b600160f81b8573ffffffffffffffffffffffffffffffffffffffff1663f698da256040518163ffffffff1660e01b815260040160206040518083038186803b15801561078357600080fd5b505afa158015610797573d6000803e3d6000fd5b505050506040513d601f19601f820116820180604052508101906107bb9190610edc565b836040516020016107cf949392919061127d565b60405160208183030381529060405291505092915050565b60006107f383836106da565b80519060200120905092915050565b6060600033905060008173ffffffffffffffffffffffffffffffffffffffff1663cc2f84526001600a6040518363ffffffff1660e01b81526004016108489291906112cb565b60006040518083038186803b15801561086057600080fd5b505afa158015610874573d6000803e3d6000fd5b505050506040513d6000823e3d601f19601f8201168201806040525081019061089d9190610e88565b509050809250505090565b600063bc197c8160e01b905098975050505050505050565b60606040517fb4faba09000000000000000000000000000000000000000000000000000000008152600436036004808301376020600036836000335af15060203d036040519250808301604052806020843e60005161092157825160208401fd5b50509392505050565b600063f23a6e6160e01b90509695505050505050565b600061095361094e84611481565b611450565b9050808382526020820190508285602086028201111561097257600080fd5b60005b858110156109a2578161098888826109ff565b845260208401935060208301925050600181019050610975565b5050509392505050565b60006109bf6109ba846114ad565b611450565b9050828152602081018484840111156109d757600080fd5b6109e2848285611623565b509392505050565b6000813590506109f9816116b9565b92915050565b600081519050610a0e816116b9565b92915050565b600082601f830112610a2557600080fd5b8151610a35848260208601610940565b91505092915050565b60008083601f840112610a5057600080fd5b8235905067ffffffffffffffff811115610a6957600080fd5b602083019150836020820283011115610a8157600080fd5b9250929050565b600081359050610a97816116d0565b92915050565b600081519050610aac816116d0565b92915050565b600081359050610ac1816116e7565b92915050565b600081519050610ad6816116e7565b92915050565b60008083601f840112610aee57600080fd5b8235905067ffffffffffffffff811115610b0757600080fd5b602083019150836001820283011115610b1f57600080fd5b9250929050565b600082601f830112610b3757600080fd5b8135610b478482602086016109ac565b91505092915050565b600081359050610b5f816116fe565b92915050565b600081359050610b7481611715565b92915050565b600081519050610b8981611715565b92915050565b60008060008060008060008060c0898b031215610bab57600080fd5b6000610bb98b828c016109ea565b9850506020610bca8b828c016109ea565b9750506040610bdb8b828c016109ea565b9650506060610bec8b828c01610b65565b955050608089013567ffffffffffffffff811115610c0957600080fd5b610c158b828c01610adc565b945094505060a089013567ffffffffffffffff811115610c3457600080fd5b610c408b828c01610adc565b92509250509295985092959890939650565b60008060008060008060008060a0898b031215610c6e57600080fd5b6000610c7c8b828c016109ea565b9850506020610c8d8b828c016109ea565b975050604089013567ffffffffffffffff811115610caa57600080fd5b610cb68b828c01610a3e565b9650965050606089013567ffffffffffffffff811115610cd557600080fd5b610ce18b828c01610a3e565b9450945050608089013567ffffffffffffffff811115610d0057600080fd5b610d0c8b828c01610adc565b92509250509295985092959890939650565b600080600080600060808688031215610d3657600080fd5b6000610d44888289016109ea565b9550506020610d55888289016109ea565b9450506040610d6688828901610b65565b935050606086013567ffffffffffffffff811115610d8357600080fd5b610d8f88828901610adc565b92509250509295509295909350565b60008060008060008060a08789031215610db757600080fd5b6000610dc589828a016109ea565b9650506020610dd689828a016109ea565b9550506040610de789828a01610b65565b9450506060610df889828a01610b65565b935050608087013567ffffffffffffffff811115610e1557600080fd5b610e2189828a01610adc565b92509250509295509295509295565b600080600060408486031215610e4557600080fd5b6000610e53868287016109ea565b935050602084013567ffffffffffffffff811115610e7057600080fd5b610e7c86828701610adc565b92509250509250925092565b60008060408385031215610e9b57600080fd5b600083015167ffffffffffffffff811115610eb557600080fd5b610ec185828601610a14565b9250506020610ed2858286016109ff565b9150509250929050565b600060208284031215610eee57600080fd5b6000610efc84828501610a9d565b91505092915050565b600080600060408486031215610f1a57600080fd5b6000610f2886828701610a88565b935050602084013567ffffffffffffffff811115610f4557600080fd5b610f5186828701610adc565b92509250509250925092565b600060208284031215610f6f57600080fd5b6000610f7d84828501610ab2565b91505092915050565b600060208284031215610f9857600080fd5b6000610fa684828501610ac7565b91505092915050565b600060208284031215610fc157600080fd5b600082013567ffffffffffffffff811115610fdb57600080fd5b610fe784828501610b26565b91505092915050565b6000806040838503121561100357600080fd5b600083013567ffffffffffffffff81111561101d57600080fd5b61102985828601610b26565b925050602083013567ffffffffffffffff81111561104657600080fd5b61105285828601610b26565b9150509250929050565b6000806040838503121561106f57600080fd5b600061107d85828601610b50565b925050602083013567ffffffffffffffff81111561109a57600080fd5b6110a685828601610b26565b9150509250929050565b6000602082840312156110c257600080fd5b60006110d084828501610b7a565b91505092915050565b60006110e583836110f1565b60208301905092915050565b6110fa81611543565b82525050565b61110981611543565b82525050565b600061111a826114ed565b6111248185611510565b935061112f836114dd565b8060005b8381101561116057815161114788826110d9565b975061115283611503565b925050600181019050611133565b5085935050505092915050565b61117681611567565b82525050565b61118d61118882611573565b611665565b82525050565b61119c8161159f565b82525050565b6111b36111ae8261159f565b61166f565b82525050565b6111c2816115a9565b82525050565b60006111d48385611521565b93506111e1838584611623565b6111ea836116a8565b840190509392505050565b6000611200826114f8565b61120a8185611521565b935061121a818560208601611632565b611223816116a8565b840191505092915050565b61123781611611565b82525050565b600061124a601183611532565b91507f48617368206e6f7420617070726f7665640000000000000000000000000000006000830152602082019050919050565b6000611289828761117c565b600182019150611299828661117c565b6001820191506112a982856111a2565b6020820191506112b982846111a2565b60208201915081905095945050505050565b60006040820190506112e06000830185611100565b6112ed602083018461122e565b9392505050565b6000602082019050818103600083015261130e818461110f565b905092915050565b600060208201905061132b600083018461116d565b92915050565b60006020820190506113466000830184611193565b92915050565b60006040820190506113616000830185611193565b61136e6020830184611193565b9392505050565b600060608201905061138a6000830186611193565b818103602083015261139c81856111f5565b905081810360408301526113b081846111f5565b9050949350505050565b60006020820190506113cf60008301846111b9565b92915050565b600060208201905081810360008301526113ef81846111f5565b905092915050565b6000604082019050818103600083015261141181866111f5565b905081810360208301526114268184866111c8565b9050949350505050565b600060208201905081810360008301526114498161123d565b9050919050565b6000604051905081810181811067ffffffffffffffff8211171561147757611476611679565b5b8060405250919050565b600067ffffffffffffffff82111561149c5761149b611679565b5b602082029050602081019050919050565b600067ffffffffffffffff8211156114c8576114c7611679565b5b601f19601f8301169050602081019050919050565b6000819050602082019050919050565b600081519050919050565b600081519050919050565b6000602082019050919050565b600082825260208201905092915050565b600082825260208201905092915050565b600082825260208201905092915050565b600061154e826115e7565b9050919050565b6000611560826115e7565b9050919050565b60008115159050919050565b60007fff0000000000000000000000000000000000000000000000000000000000000082169050919050565b6000819050919050565b60007fffffffff0000000000000000000000000000000000000000000000000000000082169050919050565b60006115e082611555565b9050919050565b600073ffffffffffffffffffffffffffffffffffffffff82169050919050565b6000819050919050565b600061161c82611607565b9050919050565b82818337600083830152505050565b60005b83811015611650578082015181840152602081019050611635565b8381111561165f576000848401525b50505050565b6000819050919050565b6000819050919050565b7f4e487b7100000000000000000000000000000000000000000000000000000000600052604160045260246000fd5b6000601f19601f8301169050919050565b6116c281611543565b81146116cd57600080fd5b50565b6116d98161159f565b81146116e457600080fd5b50565b6116f0816115a9565b81146116fb57600080fd5b50565b611707816115d5565b811461171257600080fd5b50565b61171e81611607565b811461172957600080fd5b5056fea26469706673582212207019076c5280a5654c8f51cdf6b715bf24795495d0baf1683c7288f90d95716c64736f6c63430008000033",
  "linkReferences": {},
  "deployedLinkReferences": {}
}