{
  "_format": "hh-sol-artifact-1",
  "contractName": "CreateCall_SV1_4_1",
  "sourceName": "contracts/Deps_V1_4_1.sol",
  "abi": [
    {
      "anonymous": false,
      "inputs": [
        {
          "indexed": true,
          "internalType": "address",
          "name": "newContract",
          "type": "address"
        }
      ],
      "name": "ContractCreation",
      "type": "event"
    },
    {
      "inputs": [
        {
          "internalType": "uint256",
          "name": "value",
          "type": "uint256"
        },
        {
          "internalType": "bytes",
          "name": "deploymentData",
          "type": "bytes"
        }
      ],
      "name": "performCreate",
      "outputs": [
        {
          "internalType": "address",
          "name": "newContract",
          "type": "address"
        }
      ],
      "stateMutability": "nonpayable",
      "type": "function"
    },
    {
      "inputs": [
        {
          "internalType": "uint256",
          "name": "value",
          "type": "uint256"
        },
        {
          "internalType": "bytes",
          "name": "deploymentData",
          "type": "bytes"
        },
        {
          "internalType": "bytes32",
          "name": "salt",
          "type": "bytes32"
        }
      ],
      "name": "performCreate2",
      "outputs": [
        {
          "internalType": "address",
          "name": "newContract",
          "type": "address"
        }
      ],
      "stateMutability": "nonpayable",
      "type": "function"
    }
  ],
  "bytecode": "0x608060405234801561001057600080fd5b50610558806100206000396000f3fe608060405234801561001057600080fd5b50600436106100365760003560e01c80634847be6f1461003b5780634c8c9ea11461006b575b600080fd5b6100556004803603810190610050919061030d565b61009b565b60405161006291906103c3565b60405180910390f35b610085600480360381019061008091906102b9565b610162565b60405161009291906103c3565b60405180910390f35b60008183518460200186f59050600073ffffffffffffffffffffffffffffffffffffffff168173ffffffffffffffffffffffffffffffffffffffff161415610118576040517f08c379a000000000000000000000000000000000000000000000000000000000815260040161010f906103de565b60405180910390fd5b8073ffffffffffffffffffffffffffffffffffffffff167f4db17dd5e4732fb6da34a148104a592783ca119a1e7bb8829eba6cbadef0b51160405160405180910390a29392505050565b600081516020830184f09050600073ffffffffffffffffffffffffffffffffffffffff168173ffffffffffffffffffffffffffffffffffffffff1614156101de576040517f08c379a00000000000000000000000000000000000000000000000000000000081526004016101d5906103de565b60405180910390fd5b8073ffffffffffffffffffffffffffffffffffffffff167f4db17dd5e4732fb6da34a148104a592783ca119a1e7bb8829eba6cbadef0b51160405160405180910390a292915050565b600061023a6102358461042f565b6103fe565b90508281526020810184848401111561025257600080fd5b61025d8482856104b6565b509392505050565b600081359050610274816104f4565b92915050565b600082601f83011261028b57600080fd5b813561029b848260208601610227565b91505092915050565b6000813590506102b38161050b565b92915050565b600080604083850312156102cc57600080fd5b60006102da858286016102a4565b925050602083013567ffffffffffffffff8111156102f757600080fd5b6103038582860161027a565b9150509250929050565b60008060006060848603121561032257600080fd5b6000610330868287016102a4565b935050602084013567ffffffffffffffff81111561034d57600080fd5b6103598682870161027a565b925050604061036a86828701610265565b9150509250925092565b61037d81610470565b82525050565b600061039060198361045f565b91507f436f756c64206e6f74206465706c6f7920636f6e7472616374000000000000006000830152602082019050919050565b60006020820190506103d86000830184610374565b92915050565b600060208201905081810360008301526103f781610383565b9050919050565b6000604051905081810181811067ffffffffffffffff82111715610425576104246104c5565b5b8060405250919050565b600067ffffffffffffffff82111561044a576104496104c5565b5b601f19601f8301169050602081019050919050565b600082825260208201905092915050565b600061047b8261048c565b9050919050565b6000819050919050565b600073ffffffffffffffffffffffffffffffffffffffff82169050919050565b6000819050919050565b82818337600083830152505050565b7f4e487b7100000000000000000000000000000000000000000000000000000000600052604160045260246000fd5b6104fd81610482565b811461050857600080fd5b50565b610514816104ac565b811461051f57600080fd5b5056fea2646970667358221220362e888a032d6562b324d28243a3e4dca66c88703fbaf5fd3a5c2801cd7944f964736f6c63430008000033",
  "linkReferences": {},
  "deployedLinkReferences": {}
}