{
  "_format": "hh-sol-artifact-1",
  "contractName": "DebugTransactionGuard_SV1_4_1",
  "sourceName": "contracts/Deps_V1_4_1.sol",
  "abi": [
    {
      "anonymous": false,
      "inputs": [
        {
          "indexed": true,
          "internalType": "address",
          "name": "safe",
          "type": "address"
        },
        {
          "indexed": true,
          "internalType": "bytes32",
          "name": "txHash",
          "type": "bytes32"
        },
        {
          "indexed": true,
          "internalType": "uint256",
          "name": "nonce",
          "type": "uint256"
        },
        {
          "indexed": false,
          "internalType": "bool",
          "name": "success",
          "type": "bool"
        }
      ],
      "name": "GasUsage",
      "type": "event"
    },
    {
      "anonymous": false,
      "inputs": [
        {
          "indexed": true,
          "internalType": "address",
          "name": "safe",
          "type": "address"
        },
        {
          "indexed": true,
          "internalType": "bytes32",
          "name": "txHash",
          "type": "bytes32"
        },
        {
          "indexed": false,
          "internalType": "address",
          "name": "to",
          "type": "address"
        },
        {
          "indexed": false,
          "internalType": "uint256",
          "name": "value",
          "type": "uint256"
        },
        {
          "indexed": false,
          "internalType": "bytes",
          "name": "data",
          "type": "bytes"
        },
        {
          "indexed": false,
          "internalType": "enum Enum.Operation",
          "name": "operation",
          "type": "uint8"
        },
        {
          "indexed": false,
          "internalType": "uint256",
          "name": "safeTxGas",
          "type": "uint256"
        },
        {
          "indexed": false,
          "internalType": "bool",
          "name": "usesRefund",
          "type": "bool"
        },
        {
          "indexed": false,
          "internalType": "uint256",
          "name": "nonce",
          "type": "uint256"
        },
        {
          "indexed": false,
          "internalType": "bytes",
          "name": "signatures",
          "type": "bytes"
        },
        {
          "indexed": false,
          "internalType": "address",
          "name": "executor",
          "type": "address"
        }
      ],
      "name": "TransactionDetails",
      "type": "event"
    },
    {
      "stateMutability": "nonpayable",
      "type": "fallback"
    },
    {
      "inputs": [
        {
          "internalType": "bytes32",
          "name": "txHash",
          "type": "bytes32"
        },
        {
          "internalType": "bool",
          "name": "success",
          "type": "bool"
        }
      ],
      "name": "checkAfterExecution",
      "outputs": [],
      "stateMutability": "nonpayable",
      "type": "function"
    },
    {
      "inputs": [
        {
          "internalType": "address",
          "name": "to",
          "type": "address"
        },
        {
          "internalType": "uint256",
          "name": "value",
          "type": "uint256"
        },
        {
          "internalType": "bytes",
          "name": "data",
          "type": "bytes"
        },
        {
          "internalType": "enum Enum.Operation",
          "name": "operation",
          "type": "uint8"
        },
        {
          "internalType": "uint256",
          "name": "safeTxGas",
          "type": "uint256"
        },
        {
          "internalType": "uint256",
          "name": "baseGas",
          "type": "uint256"
        },
        {
          "internalType": "uint256",
          "name": "gasPrice",
          "type": "uint256"
        },
        {
          "internalType": "address",
          "name": "gasToken",
          "type": "address"
        },
        {
          "internalType": "address payable",
          "name": "refundReceiver",
          "type": "address"
        },
        {
          "internalType": "bytes",
          "name": "signatures",
          "type": "bytes"
        },
        {
          "internalType": "address",
          "name": "executor",
          "type": "address"
        }
      ],
      "name": "checkTransaction",
      "outputs": [],
      "stateMutability": "nonpayable",
      "type": "function"
    },
    {
      "inputs": [
        {
          "internalType": "bytes4",
          "name": "interfaceId",
          "type": "bytes4"
        }
      ],
      "name": "supportsInterface",
      "outputs": [
        {
          "internalType": "bool",
          "name": "",
          "type": "bool"
        }
      ],
      "stateMutability": "view",
      "type": "function"
    },
    {
      "inputs": [
        {
          "internalType": "bytes32",
          "name": "",
          "type": "bytes32"
        }
      ],
      "name": "txNonces",
      "outputs": [
        {
          "internalType": "uint256",
          "name": "",
          "type": "uint256"
        }
      ],
      "stateMutability": "view",
      "type": "function"
    }
  ],
  "bytecode": "0x608060405234801561001057600080fd5b50610d45806100206000396000f3fe608060405234801561001057600080fd5b50600436106100505760003560e01c806301ffc9a71461005357806375f0bb5214610083578063932713681461009f578063ddbdba63146100bb57610051565b5b005b61006d6004803603810190610068919061072a565b6100eb565b60405161007a919061097e565b60405180910390f35b61009d6004803603810190610098919061057c565b6101bd565b005b6100b960048036038101906100b491906106ee565b610377565b005b6100d560048036038101906100d0919061069c565b61043f565b6040516100e291906109b9565b60405180910390f35b60007fe6d7a83a000000000000000000000000000000000000000000000000000000007bffffffffffffffffffffffffffffffffffffffffffffffffffffffff1916827bffffffffffffffffffffffffffffffffffffffffffffffffffffffff191614806101b657507f01ffc9a7000000000000000000000000000000000000000000000000000000007bffffffffffffffffffffffffffffffffffffffffffffffffffffffff1916827bffffffffffffffffffffffffffffffffffffffffffffffffffffffff1916145b9050919050565b600080600033905060018173ffffffffffffffffffffffffffffffffffffffff1663affed0e06040518163ffffffff1660e01b815260040160206040518083038186803b15801561020d57600080fd5b505afa158015610221573d6000803e3d6000fd5b505050506040513d601f19601f820116820180604052508101906102459190610753565b61024f9190610a62565b92508073ffffffffffffffffffffffffffffffffffffffff1663d8d11f788f8f8f8f8f8f8f8f8f8d6040518b63ffffffff1660e01b815260040161029c9a999897969594939291906108db565b60206040518083038186803b1580156102b457600080fd5b505afa1580156102c8573d6000803e3d6000fd5b505050506040513d601f19601f820116820180604052508101906102ec91906106c5565b915050803373ffffffffffffffffffffffffffffffffffffffff167fa65fef32cd19a6639a4bf7a6d196f132c151e4f0bbd2706f7f831b3a778e1ac08f8f8f8f8f60008f118a8d8d60405161034999989796959493929190610840565b60405180910390a3816000808381526020019081526020016000208190555050505050505050505050505050565b600080600084815260200190815260200160002054905060008114156103d2576040517f08c379a00000000000000000000000000000000000000000000000000000000081526004016103c990610999565b60405180910390fd5b60008060008581526020019081526020016000208190555080833373ffffffffffffffffffffffffffffffffffffffff167f0dcc0fb56a30b6fe6b188f45b47369bc7f3c928a9748e245a79fc3f54ddd056885604051610432919061097e565b60405180910390a4505050565b60006020528060005260406000206000915090505481565b600061046a61046584610a05565b6109d4565b90508281526020810184848401111561048257600080fd5b61048d848285610b81565b509392505050565b6000813590506104a481610c75565b92915050565b6000813590506104b981610c8c565b92915050565b6000813590506104ce81610ca3565b92915050565b6000813590506104e381610cba565b92915050565b6000815190506104f881610cba565b92915050565b60008135905061050d81610cd1565b92915050565b600082601f83011261052457600080fd5b8135610534848260208601610457565b91505092915050565b60008135905061054c81610ce8565b92915050565b60008135905061056181610cf8565b92915050565b60008151905061057681610cf8565b92915050565b60008060008060008060008060008060006101608c8e03121561059e57600080fd5b60006105ac8e828f01610495565b9b505060206105bd8e828f01610552565b9a505060408c013567ffffffffffffffff8111156105da57600080fd5b6105e68e828f01610513565b99505060606105f78e828f0161053d565b98505060806106088e828f01610552565b97505060a06106198e828f01610552565b96505060c061062a8e828f01610552565b95505060e061063b8e828f01610495565b94505061010061064d8e828f016104aa565b9350506101208c013567ffffffffffffffff81111561066b57600080fd5b6106778e828f01610513565b9250506101406106898e828f01610495565b9150509295989b509295989b9093969950565b6000602082840312156106ae57600080fd5b60006106bc848285016104d4565b91505092915050565b6000602082840312156106d757600080fd5b60006106e5848285016104e9565b91505092915050565b6000806040838503121561070157600080fd5b600061070f858286016104d4565b9250506020610720858286016104bf565b9150509250929050565b60006020828403121561073c57600080fd5b600061074a848285016104fe565b91505092915050565b60006020828403121561076557600080fd5b600061077384828501610567565b91505092915050565b61078581610b39565b82525050565b61079481610a96565b82525050565b6107a381610aba565b82525050565b60006107b482610a35565b6107be8185610a40565b93506107ce818560208601610b90565b6107d781610c50565b840191505092915050565b6107eb81610b4b565b82525050565b60006107fe601383610a51565b91507f436f756c64206e6f7420676574206e6f6e6365000000000000000000000000006000830152602082019050919050565b61083a81610b2f565b82525050565b600061012082019050610856600083018c61078b565b610863602083018b610831565b8181036040830152610875818a6107a9565b905061088460608301896107e2565b6108916080830188610831565b61089e60a083018761079a565b6108ab60c0830186610831565b81810360e08301526108bd81856107a9565b90506108cd61010083018461078b565b9a9950505050505050505050565b6000610140820190506108f1600083018d61078b565b6108fe602083018c610831565b8181036040830152610910818b6107a9565b905061091f606083018a6107e2565b61092c6080830189610831565b61093960a0830188610831565b61094660c0830187610831565b61095360e083018661078b565b61096161010083018561077c565b61096f610120830184610831565b9b9a5050505050505050505050565b6000602082019050610993600083018461079a565b92915050565b600060208201905081810360008301526109b2816107f1565b9050919050565b60006020820190506109ce6000830184610831565b92915050565b6000604051905081810181811067ffffffffffffffff821117156109fb576109fa610c21565b5b8060405250919050565b600067ffffffffffffffff821115610a2057610a1f610c21565b5b601f19601f8301169050602081019050919050565b600081519050919050565b600082825260208201905092915050565b600082825260208201905092915050565b6000610a6d82610b2f565b9150610a7883610b2f565b925082821015610a8b57610a8a610bc3565b5b828203905092915050565b6000610aa182610b0f565b9050919050565b6000610ab382610b0f565b9050919050565b60008115159050919050565b6000819050919050565b60007fffffffff0000000000000000000000000000000000000000000000000000000082169050919050565b6000819050610b0a82610c61565b919050565b600073ffffffffffffffffffffffffffffffffffffffff82169050919050565b6000819050919050565b6000610b4482610b5d565b9050919050565b6000610b5682610afc565b9050919050565b6000610b6882610b6f565b9050919050565b6000610b7a82610b0f565b9050919050565b82818337600083830152505050565b60005b83811015610bae578082015181840152602081019050610b93565b83811115610bbd576000848401525b50505050565b7f4e487b7100000000000000000000000000000000000000000000000000000000600052601160045260246000fd5b7f4e487b7100000000000000000000000000000000000000000000000000000000600052602160045260246000fd5b7f4e487b7100000000000000000000000000000000000000000000000000000000600052604160045260246000fd5b6000601f19601f8301169050919050565b60028110610c7257610c71610bf2565b5b50565b610c7e81610a96565b8114610c8957600080fd5b50565b610c9581610aa8565b8114610ca057600080fd5b50565b610cac81610aba565b8114610cb757600080fd5b50565b610cc381610ac6565b8114610cce57600080fd5b50565b610cda81610ad0565b8114610ce557600080fd5b50565b60028110610cf557600080fd5b50565b610d0181610b2f565b8114610d0c57600080fd5b5056fea26469706673582212206115bd3bdd8ad5b1148fb939266827c0e4fff6146ad57d3d72f8b6b314b6e45164736f6c63430008000033",
  "linkReferences": {},
  "deployedLinkReferences": {}
}