{
  "_format": "hh-sol-artifact-1",
  "contractName": "SafeProxyFactory_SV1_4_1",
  "sourceName": "contracts/Deps_V1_4_1.sol",
  "abi": [
    {
      "anonymous": false,
      "inputs": [
        {
          "indexed": true,
          "internalType": "contract SafeProxy",
          "name": "proxy",
          "type": "address"
        },
        {
          "indexed": false,
          "internalType": "address",
          "name": "singleton",
          "type": "address"
        }
      ],
      "name": "ProxyCreation",
      "type": "event"
    },
    {
      "inputs": [
        {
          "internalType": "address",
          "name": "_singleton",
          "type": "address"
        },
        {
          "internalType": "bytes",
          "name": "initializer",
          "type": "bytes"
        },
        {
          "internalType": "uint256",
          "name": "saltNonce",
          "type": "uint256"
        }
      ],
      "name": "createChainSpecificProxyWithNonce",
      "outputs": [
        {
          "internalType": "contract SafeProxy",
          "name": "proxy",
          "type": "address"
        }
      ],
      "stateMutability": "nonpayable",
      "type": "function"
    },
    {
      "inputs": [
        {
          "internalType": "address",
          "name": "_singleton",
          "type": "address"
        },
        {
          "internalType": "bytes",
          "name": "initializer",
          "type": "bytes"
        },
        {
          "internalType": "uint256",
          "name": "saltNonce",
          "type": "uint256"
        },
        {
          "internalType": "contract IProxyCreationCallback",
          "name": "callback",
          "type": "address"
        }
      ],
      "name": "createProxyWithCallback",
      "outputs": [
        {
          "internalType": "contract SafeProxy",
          "name": "proxy",
          "type": "address"
        }
      ],
      "stateMutability": "nonpayable",
      "type": "function"
    },
    {
      "inputs": [
        {
          "internalType": "address",
          "name": "_singleton",
          "type": "address"
        },
        {
          "internalType": "bytes",
          "name": "initializer",
          "type": "bytes"
        },
        {
          "internalType": "uint256",
          "name": "saltNonce",
          "type": "uint256"
        }
      ],
      "name": "createProxyWithNonce",
      "outputs": [
        {
          "internalType": "contract SafeProxy",
          "name": "proxy",
          "type": "address"
        }
      ],
      "stateMutability": "nonpayable",
      "type": "function"
    },
    {
      "inputs": [],
      "name": "getChainId",
      "outputs": [
        {
          "internalType": "uint256",
          "name": "",
          "type": "uint256"
        }
      ],
      "stateMutability": "view",
      "type": "function"
    },
    {
      "inputs": [],
      "name": "proxyCreationCode",
      "outputs": [
        {
          "internalType": "bytes",
          "name": "",
          "type": "bytes"
        }
      ],
      "stateMutability": "pure",
      "type": "function"
    }
  ],
  "bytecode": "0x608060405234801561001057600080fd5b50610fab806100206000396000f3fe60806040523480156200001157600080fd5b50600436106200005e5760003560e01c80631688f0b914620000635780633408e470146200009957806353e5d93514620000bb578063d18af54d14620000dd578063ec9e80bb1462000113575b600080fd5b6200008160048036038101906200007b9190620005f9565b62000149565b6040516200009091906200097d565b60405180910390f35b620000a3620001e7565b604051620000b2919062000a32565b60405180910390f35b620000c5620001f4565b604051620000d4919062000959565b60405180910390f35b620000fb6004803603810190620000f5919062000668565b62000221565b6040516200010a91906200097d565b60405180910390f35b6200013160048036038101906200012b9190620005f9565b62000317565b6040516200014091906200097d565b60405180910390f35b600080838051906020012083604051602001620001689291906200086d565b6040516020818303038152906040528051906020012090506200018d858583620003c0565b91508173ffffffffffffffffffffffffffffffffffffffff167f4f51faf6c4561ff95f067657e43439f0f856d97c04d9ec9070a6199ad418e23586604051620001d791906200093c565b60405180910390a2509392505050565b6000804690508091505090565b606060405180602001620002089062000534565b6020820181038252601f19601f82011660405250905090565b6000808383604051602001620002399291906200090c565b6040516020818303038152906040528051906020012060001c90506200026186868362000149565b9150600073ffffffffffffffffffffffffffffffffffffffff168373ffffffffffffffffffffffffffffffffffffffff16146200030e578273ffffffffffffffffffffffffffffffffffffffff16631e52b518838888886040518563ffffffff1660e01b8152600401620002d994939291906200099a565b600060405180830381600087803b158015620002f457600080fd5b505af115801562000309573d6000803e3d6000fd5b505050505b50949350505050565b6000808380519060200120836200032d620001e7565b60405160200162000341939291906200089d565b60405160208183030381529060405280519060200120905062000366858583620003c0565b91508173ffffffffffffffffffffffffffffffffffffffff167f4f51faf6c4561ff95f067657e43439f0f856d97c04d9ec9070a6199ad418e23586604051620003b091906200093c565b60405180910390a2509392505050565b6000620003cd8462000521565b6200040f576040517f08c379a00000000000000000000000000000000000000000000000000000000081526004016200040690620009ee565b60405180910390fd5b600060405180602001620004239062000534565b6020820181038252601f19601f820116604052508573ffffffffffffffffffffffffffffffffffffffff1660405160200162000461929190620008e0565b6040516020818303038152906040529050828151826020016000f59150600073ffffffffffffffffffffffffffffffffffffffff168273ffffffffffffffffffffffffffffffffffffffff161415620004f1576040517f08c379a0000000000000000000000000000000000000000000000000000000008152600401620004e89062000a10565b60405180910390fd5b600084511115620005195760008060008651602088016000875af114156200051857600080fd5b5b509392505050565b600080823b905060008111915050919050565b6102bf8062000cb783390190565b600062000559620005538462000a83565b62000a4f565b9050828152602081018484840111156200057257600080fd5b6200057f84828562000b9a565b509392505050565b600081359050620005988162000c68565b92915050565b600082601f830112620005b057600080fd5b8135620005c284826020860162000542565b91505092915050565b600081359050620005dc8162000c82565b92915050565b600081359050620005f38162000c9c565b92915050565b6000806000606084860312156200060f57600080fd5b60006200061f8682870162000587565b935050602084013567ffffffffffffffff8111156200063d57600080fd5b6200064b868287016200059e565b92505060406200065e86828701620005e2565b9150509250925092565b600080600080608085870312156200067f57600080fd5b60006200068f8782880162000587565b945050602085013567ffffffffffffffff811115620006ad57600080fd5b620006bb878288016200059e565b9350506040620006ce87828801620005e2565b9250506060620006e187828801620005cb565b91505092959194509250565b620006f88162000aee565b82525050565b620007136200070d8262000b02565b62000bf3565b82525050565b6000620007268262000ab6565b62000732818562000ac1565b93506200074481856020860162000ba9565b6200074f8162000c4a565b840191505092915050565b6000620007678262000ab6565b62000773818562000ad2565b93506200078581856020860162000ba9565b80840191505092915050565b620007a6620007a08262000b4a565b62000bdf565b82525050565b620007b78162000b72565b82525050565b6000620007cc601f8362000add565b91507f53696e676c65746f6e20636f6e7472616374206e6f74206465706c6f796564006000830152602082019050919050565b60006200080e60138362000add565b91507f437265617465322063616c6c206661696c6564000000000000000000000000006000830152602082019050919050565b6200084c8162000b40565b82525050565b62000867620008618262000b40565b62000c11565b82525050565b60006200087b8285620006fe565b6020820191506200088d828462000852565b6020820191508190509392505050565b6000620008ab8286620006fe565b602082019150620008bd828562000852565b602082019150620008cf828462000852565b602082019150819050949350505050565b6000620008ee82856200075a565b9150620008fc828462000852565b6020820191508190509392505050565b60006200091a828562000852565b6020820191506200092c828462000791565b6014820191508190509392505050565b6000602082019050620009536000830184620006ed565b92915050565b6000602082019050818103600083015262000975818462000719565b905092915050565b6000602082019050620009946000830184620007ac565b92915050565b6000608082019050620009b16000830187620007ac565b620009c06020830186620006ed565b8181036040830152620009d4818562000719565b9050620009e5606083018462000841565b95945050505050565b6000602082019050818103600083015262000a0981620007bd565b9050919050565b6000602082019050818103600083015262000a2b81620007ff565b9050919050565b600060208201905062000a49600083018462000841565b92915050565b6000604051905081810181811067ffffffffffffffff8211171562000a795762000a7862000c1b565b5b8060405250919050565b600067ffffffffffffffff82111562000aa15762000aa062000c1b565b5b601f19601f8301169050602081019050919050565b600081519050919050565b600082825260208201905092915050565b600081905092915050565b600082825260208201905092915050565b600062000afb8262000b20565b9050919050565b6000819050919050565b600062000b198262000aee565b9050919050565b600073ffffffffffffffffffffffffffffffffffffffff82169050919050565b6000819050919050565b600062000b578262000b5e565b9050919050565b600062000b6b8262000b20565b9050919050565b600062000b7f8262000b86565b9050919050565b600062000b938262000b20565b9050919050565b82818337600083830152505050565b60005b8381101562000bc957808201518184015260208101905062000bac565b8381111562000bd9576000848401525b50505050565b600062000bec8262000bfd565b9050919050565b6000819050919050565b600062000c0a8262000c5b565b9050919050565b6000819050919050565b7f4e487b7100000000000000000000000000000000000000000000000000000000600052604160045260246000fd5b6000601f19601f8301169050919050565b60008160601b9050919050565b62000c738162000aee565b811462000c7f57600080fd5b50565b62000c8d8162000b0c565b811462000c9957600080fd5b50565b62000ca78162000b40565b811462000cb357600080fd5b5056fe608060405234801561001057600080fd5b506040516102bf3803806102bf833981810160405281019061003291906100fd565b600073ffffffffffffffffffffffffffffffffffffffff168173ffffffffffffffffffffffffffffffffffffffff1614156100a2576040517f08c379a00000000000000000000000000000000000000000000000000000000081526004016100999061018c565b60405180910390fd5b806000806101000a81548173ffffffffffffffffffffffffffffffffffffffff021916908373ffffffffffffffffffffffffffffffffffffffff16021790555050610206565b6000815190506100f7816101ef565b92915050565b60006020828403121561010f57600080fd5b600061011d848285016100e8565b91505092915050565b60006101336022836101ac565b91507f496e76616c69642073696e676c65746f6e20616464726573732070726f76696460008301527f65640000000000000000000000000000000000000000000000000000000000006020830152604082019050919050565b600060208201905081810360008301526101a581610126565b9050919050565b600082825260208201905092915050565b60006101c8826101cf565b9050919050565b600073ffffffffffffffffffffffffffffffffffffffff82169050919050565b6101f8816101bd565b811461020357600080fd5b50565b60ab806102146000396000f3fe608060405273ffffffffffffffffffffffffffffffffffffffff600054167fa619486e0000000000000000000000000000000000000000000000000000000060003514156050578060005260206000f35b3660008037600080366000845af43d6000803e60008114156070573d6000fd5b3d6000f3fea264697066735822122047020507c1390630f2dc2ef93fbd84231c406acbf7262f91bea744b29efaf84964736f6c63430008000033a264697066735822122063109f7636542d980baea262ea52979c6fa2711a8a1dce403d0b6f3c19891af064736f6c63430008000033",
  "linkReferences": {},
  "deployedLinkReferences": {}
}