{
  "_format": "hh-sol-artifact-1",
  "contractName": "Safe_SV1_4_1",
  "sourceName": "contracts/Deps_V1_4_1.sol",
  "abi": [
    {
      "anonymous": false,
      "inputs": [
        {
          "indexed": true,
          "internalType": "address",
          "name": "owner",
          "type": "address"
        }
      ],
      "name": "AddedOwner",
      "type": "event"
    },
    {
      "anonymous": false,
      "inputs": [
        {
          "indexed": true,
          "internalType": "bytes32",
          "name": "approvedHash",
          "type": "bytes32"
        },
        {
          "indexed": true,
          "internalType": "address",
          "name": "owner",
          "type": "address"
        }
      ],
      "name": "ApproveHash",
      "type": "event"
    },
    {
      "anonymous": false,
      "inputs": [
        {
          "indexed": true,
          "internalType": "address",
          "name": "handler",
          "type": "address"
        }
      ],
      "name": "ChangedFallbackHandler",
      "type": "event"
    },
    {
      "anonymous": false,
      "inputs": [
        {
          "indexed": true,
          "internalType": "address",
          "name": "guard",
          "type": "address"
        }
      ],
      "name": "ChangedGuard",
      "type": "event"
    },
    {
      "anonymous": false,
      "inputs": [
        {
          "indexed": false,
          "internalType": "uint256",
          "name": "threshold",
          "type": "uint256"
        }
      ],
      "name": "ChangedThreshold",
      "type": "event"
    },
    {
      "anonymous": false,
      "inputs": [
        {
          "indexed": true,
          "internalType": "address",
          "name": "module",
          "type": "address"
        }
      ],
      "name": "DisabledModule",
      "type": "event"
    },
    {
      "anonymous": false,
      "inputs": [
        {
          "indexed": true,
          "internalType": "address",
          "name": "module",
          "type": "address"
        }
      ],
      "name": "EnabledModule",
      "type": "event"
    },
    {
      "anonymous": false,
      "inputs": [
        {
          "indexed": true,
          "internalType": "bytes32",
          "name": "txHash",
          "type": "bytes32"
        },
        {
          "indexed": false,
          "internalType": "uint256",
          "name": "payment",
          "type": "uint256"
        }
      ],
      "name": "ExecutionFailure",
      "type": "event"
    },
    {
      "anonymous": false,
      "inputs": [
        {
          "indexed": true,
          "internalType": "address",
          "name": "module",
          "type": "address"
        }
      ],
      "name": "ExecutionFromModuleFailure",
      "type": "event"
    },
    {
      "anonymous": false,
      "inputs": [
        {
          "indexed": true,
          "internalType": "address",
          "name": "module",
          "type": "address"
        }
      ],
      "name": "ExecutionFromModuleSuccess",
      "type": "event"
    },
    {
      "anonymous": false,
      "inputs": [
        {
          "indexed": true,
          "internalType": "bytes32",
          "name": "txHash",
          "type": "bytes32"
        },
        {
          "indexed": false,
          "internalType": "uint256",
          "name": "payment",
          "type": "uint256"
        }
      ],
      "name": "ExecutionSuccess",
      "type": "event"
    },
    {
      "anonymous": false,
      "inputs": [
        {
          "indexed": true,
          "internalType": "address",
          "name": "owner",
          "type": "address"
        }
      ],
      "name": "RemovedOwner",
      "type": "event"
    },
    {
      "anonymous": false,
      "inputs": [
        {
          "indexed": true,
          "internalType": "address",
          "name": "sender",
          "type": "address"
        },
        {
          "indexed": false,
          "internalType": "uint256",
          "name": "value",
          "type": "uint256"
        }
      ],
      "name": "SafeReceived",
      "type": "event"
    },
    {
      "anonymous": false,
      "inputs": [
        {
          "indexed": true,
          "internalType": "address",
          "name": "initiator",
          "type": "address"
        },
        {
          "indexed": false,
          "internalType": "address[]",
          "name": "owners",
          "type": "address[]"
        },
        {
          "indexed": false,
          "internalType": "uint256",
          "name": "threshold",
          "type": "uint256"
        },
        {
          "indexed": false,
          "internalType": "address",
          "name": "initializer",
          "type": "address"
        },
        {
          "indexed": false,
          "internalType": "address",
          "name": "fallbackHandler",
          "type": "address"
        }
      ],
      "name": "SafeSetup",
      "type": "event"
    },
    {
      "anonymous": false,
      "inputs": [
        {
          "indexed": true,
          "internalType": "bytes32",
          "name": "msgHash",
          "type": "bytes32"
        }
      ],
      "name": "SignMsg",
      "type": "event"
    },
    {
      "stateMutability": "nonpayable",
      "type": "fallback"
    },
    {
      "inputs": [],
      "name": "VERSION",
      "outputs": [
        {
          "internalType": "string",
          "name": "",
          "type": "string"
        }
      ],
      "stateMutability": "view",
      "type": "function"
    },
    {
      "inputs": [
        {
          "internalType": "address",
          "name": "owner",
          "type": "address"
        },
        {
          "internalType": "uint256",
          "name": "_threshold",
          "type": "uint256"
        }
      ],
      "name": "addOwnerWithThreshold",
      "outputs": [],
      "stateMutability": "nonpayable",
      "type": "function"
    },
    {
      "inputs": [
        {
          "internalType": "bytes32",
          "name": "hashToApprove",
          "type": "bytes32"
        }
      ],
      "name": "approveHash",
      "outputs": [],
      "stateMutability": "nonpayable",
      "type": "function"
    },
    {
      "inputs": [
        {
          "internalType": "address",
          "name": "",
          "type": "address"
        },
        {
          "internalType": "bytes32",
          "name": "",
          "type": "bytes32"
        }
      ],
      "name": "approvedHashes",
      "outputs": [
        {
          "internalType": "uint256",
          "name": "",
          "type": "uint256"
        }
      ],
      "stateMutability": "view",
      "type": "function"
    },
    {
      "inputs": [
        {
          "internalType": "uint256",
          "name": "_threshold",
          "type": "uint256"
        }
      ],
      "name": "changeThreshold",
      "outputs": [],
      "stateMutability": "nonpayable",
      "type": "function"
    },
    {
      "inputs": [
        {
          "internalType": "bytes32",
          "name": "dataHash",
          "type": "bytes32"
        },
        {
          "internalType": "bytes",
          "name": "data",
          "type": "bytes"
        },
        {
          "internalType": "bytes",
          "name": "signatures",
          "type": "bytes"
        },
        {
          "internalType": "uint256",
          "name": "requiredSignatures",
          "type": "uint256"
        }
      ],
      "name": "checkNSignatures",
      "outputs": [],
      "stateMutability": "view",
      "type": "function"
    },
    {
      "inputs": [
        {
          "internalType": "bytes32",
          "name": "dataHash",
          "type": "bytes32"
        },
        {
          "internalType": "bytes",
          "name": "data",
          "type": "bytes"
        },
        {
          "internalType": "bytes",
          "name": "signatures",
          "type": "bytes"
        }
      ],
      "name": "checkSignatures",
      "outputs": [],
      "stateMutability": "view",
      "type": "function"
    },
    {
      "inputs": [
        {
          "internalType": "address",
          "name": "prevModule",
          "type": "address"
        },
        {
          "internalType": "address",
          "name": "module",
          "type": "address"
        }
      ],
      "name": "disableModule",
      "outputs": [],
      "stateMutability": "nonpayable",
      "type": "function"
    },
    {
      "inputs": [],
      "name": "domainSeparator",
      "outputs": [
        {
          "internalType": "bytes32",
          "name": "",
          "type": "bytes32"
        }
      ],
      "stateMutability": "view",
      "type": "function"
    },
    {
      "inputs": [
        {
          "internalType": "address",
          "name": "module",
          "type": "address"
        }
      ],
      "name": "enableModule",
      "outputs": [],
      "stateMutability": "nonpayable",
      "type": "function"
    },
    {
      "inputs": [
        {
          "internalType": "address",
          "name": "to",
          "type": "address"
        },
        {
          "internalType": "uint256",
          "name": "value",
          "type": "uint256"
        },
        {
          "internalType": "bytes",
          "name": "data",
          "type": "bytes"
        },
        {
          "internalType": "enum Enum.Operation",
          "name": "operation",
          "type": "uint8"
        },
        {
          "internalType": "uint256",
          "name": "safeTxGas",
          "type": "uint256"
        },
        {
          "internalType": "uint256",
          "name": "baseGas",
          "type": "uint256"
        },
        {
          "internalType": "uint256",
          "name": "gasPrice",
          "type": "uint256"
        },
        {
          "internalType": "address",
          "name": "gasToken",
          "type": "address"
        },
        {
          "internalType": "address",
          "name": "refundReceiver",
          "type": "address"
        },
        {
          "internalType": "uint256",
          "name": "_nonce",
          "type": "uint256"
        }
      ],
      "name": "encodeTransactionData",
      "outputs": [
        {
          "internalType": "bytes",
          "name": "",
          "type": "bytes"
        }
      ],
      "stateMutability": "view",
      "type": "function"
    },
    {
      "inputs": [
        {
          "internalType": "address",
          "name": "to",
          "type": "address"
        },
        {
          "internalType": "uint256",
          "name": "value",
          "type": "uint256"
        },
        {
          "internalType": "bytes",
          "name": "data",
          "type": "bytes"
        },
        {
          "internalType": "enum Enum.Operation",
          "name": "operation",
          "type": "uint8"
        },
        {
          "internalType": "uint256",
          "name": "safeTxGas",
          "type": "uint256"
        },
        {
          "internalType": "uint256",
          "name": "baseGas",
          "type": "uint256"
        },
        {
          "internalType": "uint256",
          "name": "gasPrice",
          "type": "uint256"
        },
        {
          "internalType": "address",
          "name": "gasToken",
          "type": "address"
        },
        {
          "internalType": "address payable",
          "name": "refundReceiver",
          "type": "address"
        },
        {
          "internalType": "bytes",
          "name": "signatures",
          "type": "bytes"
        }
      ],
      "name": "execTransaction",
      "outputs": [
        {
          "internalType": "bool",
          "name": "success",
          "type": "bool"
        }
      ],
      "stateMutability": "payable",
      "type": "function"
    },
    {
      "inputs": [
        {
          "internalType": "address",
          "name": "to",
          "type": "address"
        },
        {
          "internalType": "uint256",
          "name": "value",
          "type": "uint256"
        },
        {
          "internalType": "bytes",
          "name": "data",
          "type": "bytes"
        },
        {
          "internalType": "enum Enum.Operation",
          "name": "operation",
          "type": "uint8"
        }
      ],
      "name": "execTransactionFromModule",
      "outputs": [
        {
          "internalType": "bool",
          "name": "success",
          "type": "bool"
        }
      ],
      "stateMutability": "nonpayable",
      "type": "function"
    },
    {
      "inputs": [
        {
          "internalType": "address",
          "name": "to",
          "type": "address"
        },
        {
          "internalType": "uint256",
          "name": "value",
          "type": "uint256"
        },
        {
          "internalType": "bytes",
          "name": "data",
          "type": "bytes"
        },
        {
          "internalType": "enum Enum.Operation",
          "name": "operation",
          "type": "uint8"
        }
      ],
      "name": "execTransactionFromModuleReturnData",
      "outputs": [
        {
          "internalType": "bool",
          "name": "success",
          "type": "bool"
        },
        {
          "internalType": "bytes",
          "name": "returnData",
          "type": "bytes"
        }
      ],
      "stateMutability": "nonpayable",
      "type": "function"
    },
    {
      "inputs": [],
      "name": "getChainId",
      "outputs": [
        {
          "internalType": "uint256",
          "name": "",
          "type": "uint256"
        }
      ],
      "stateMutability": "view",
      "type": "function"
    },
    {
      "inputs": [
        {
          "internalType": "address",
          "name": "start",
          "type": "address"
        },
        {
          "internalType": "uint256",
          "name": "pageSize",
          "type": "uint256"
        }
      ],
      "name": "getModulesPaginated",
      "outputs": [
        {
          "internalType": "address[]",
          "name": "array",
          "type": "address[]"
        },
        {
          "internalType": "address",
          "name": "next",
          "type": "address"
        }
      ],
      "stateMutability": "view",
      "type": "function"
    },
    {
      "inputs": [],
      "name": "getOwners",
      "outputs": [
        {
          "internalType": "address[]",
          "name": "",
          "type": "address[]"
        }
      ],
      "stateMutability": "view",
      "type": "function"
    },
    {
      "inputs": [
        {
          "internalType": "uint256",
          "name": "offset",
          "type": "uint256"
        },
        {
          "internalType": "uint256",
          "name": "length",
          "type": "uint256"
        }
      ],
      "name": "getStorageAt",
      "outputs": [
        {
          "internalType": "bytes",
          "name": "",
          "type": "bytes"
        }
      ],
      "stateMutability": "view",
      "type": "function"
    },
    {
      "inputs": [],
      "name": "getThreshold",
      "outputs": [
        {
          "internalType": "uint256",
          "name": "",
          "type": "uint256"
        }
      ],
      "stateMutability": "view",
      "type": "function"
    },
    {
      "inputs": [
        {
          "internalType": "address",
          "name": "to",
          "type": "address"
        },
        {
          "internalType": "uint256",
          "name": "value",
          "type": "uint256"
        },
        {
          "internalType": "bytes",
          "name": "data",
          "type": "bytes"
        },
        {
          "internalType": "enum Enum.Operation",
          "name": "operation",
          "type": "uint8"
        },
        {
          "internalType": "uint256",
          "name": "safeTxGas",
          "type": "uint256"
        },
        {
          "internalType": "uint256",
          "name": "baseGas",
          "type": "uint256"
        },
        {
          "internalType": "uint256",
          "name": "gasPrice",
          "type": "uint256"
        },
        {
          "internalType": "address",
          "name": "gasToken",
          "type": "address"
        },
        {
          "internalType": "address",
          "name": "refundReceiver",
          "type": "address"
        },
        {
          "internalType": "uint256",
          "name": "_nonce",
          "type": "uint256"
        }
      ],
      "name": "getTransactionHash",
      "outputs": [
        {
          "internalType": "bytes32",
          "name": "",
          "type": "bytes32"
        }
      ],
      "stateMutability": "view",
      "type": "function"
    },
    {
      "inputs": [
        {
          "internalType": "address",
          "name": "module",
          "type": "address"
        }
      ],
      "name": "isModuleEnabled",
      "outputs": [
        {
          "internalType": "bool",
          "name": "",
          "type": "bool"
        }
      ],
      "stateMutability": "view",
      "type": "function"
    },
    {
      "inputs": [
        {
          "internalType": "address",
          "name": "owner",
          "type": "address"
        }
      ],
      "name": "isOwner",
      "outputs": [
        {
          "internalType": "bool",
          "name": "",
          "type": "bool"
        }
      ],
      "stateMutability": "view",
      "type": "function"
    },
    {
      "inputs": [],
      "name": "nonce",
      "outputs": [
        {
          "internalType": "uint256",
          "name": "",
          "type": "uint256"
        }
      ],
      "stateMutability": "view",
      "type": "function"
    },
    {
      "inputs": [
        {
          "internalType": "address",
          "name": "prevOwner",
          "type": "address"
        },
        {
          "internalType": "address",
          "name": "owner",
          "type": "address"
        },
        {
          "internalType": "uint256",
          "name": "_threshold",
          "type": "uint256"
        }
      ],
      "name": "removeOwner",
      "outputs": [],
      "stateMutability": "nonpayable",
      "type": "function"
    },
    {
      "inputs": [
        {
          "internalType": "address",
          "name": "handler",
          "type": "address"
        }
      ],
      "name": "setFallbackHandler",
      "outputs": [],
      "stateMutability": "nonpayable",
      "type": "function"
    },
    {
      "inputs": [
        {
          "internalType": "address",
          "name": "guard",
          "type": "address"
        }
      ],
      "name": "setGuard",
      "outputs": [],
      "stateMutability": "nonpayable",
      "type": "function"
    },
    {
      "inputs": [
        {
          "internalType": "address[]",
          "name": "_owners",
          "type": "address[]"
        },
        {
          "internalType": "uint256",
          "name": "_threshold",
          "type": "uint256"
        },
        {
          "internalType": "address",
          "name": "to",
          "type": "address"
        },
        {
          "internalType": "bytes",
          "name": "data",
          "type": "bytes"
        },
        {
          "internalType": "address",
          "name": "fallbackHandler",
          "type": "address"
        },
        {
          "internalType": "address",
          "name": "paymentToken",
          "type": "address"
        },
        {
          "internalType": "uint256",
          "name": "payment",
          "type": "uint256"
        },
        {
          "internalType": "address payable",
          "name": "paymentReceiver",
          "type": "address"
        }
      ],
      "name": "setup",
      "outputs": [],
      "stateMutability": "nonpayable",
      "type": "function"
    },
    {
      "inputs": [
        {
          "internalType": "bytes32",
          "name": "",
          "type": "bytes32"
        }
      ],
      "name": "signedMessages",
      "outputs": [
        {
          "internalType": "uint256",
          "name": "",
          "type": "uint256"
        }
      ],
      "stateMutability": "view",
      "type": "function"
    },
    {
      "inputs": [
        {
          "internalType": "address",
          "name": "targetContract",
          "type": "address"
        },
        {
          "internalType": "bytes",
          "name": "calldataPayload",
          "type": "bytes"
        }
      ],
      "name": "simulateAndRevert",
      "outputs": [],
      "stateMutability": "nonpayable",
      "type": "function"
    },
    {
      "inputs": [
        {
          "internalType": "address",
          "name": "prevOwner",
          "type": "address"
        },
        {
          "internalType": "address",
          "name": "oldOwner",
          "type": "address"
        },
        {
          "internalType": "address",
          "name": "newOwner",
          "type": "address"
        }
      ],
      "name": "swapOwner",
      "outputs": [],
      "stateMutability": "nonpayable",
      "type": "function"
    },
    {
      "stateMutability": "payable",
      "type": "receive"
    }
  ],
  "bytecode": "0x608060405234801561001057600080fd5b50600160048190555061646c80620000296000396000f3fe6080604052600436106101d15760003560e01c8063affed0e0116100f7578063e19a9dd911610095578063f08a032311610064578063f08a032314610796578063f698da25146107bf578063f8dc5dd9146107ea578063ffa1ad741461081357610226565b8063e19a9dd9146106dc578063e318b52b14610705578063e75235b81461072e578063e86637db1461075957610226565b8063cc2f8452116100d1578063cc2f84521461060f578063d4d9bdcd1461064d578063d8d11f7814610676578063e009cfde146106b357610226565b8063affed0e014610592578063b4faba09146105bd578063b63e800d146105e657610226565b80635624b25b1161016f5780636a7612021161013e5780636a761202146104d15780637d83297414610501578063934f3a111461053e578063a0e67e2b1461056757610226565b80635624b25b146104055780635ae6bd3714610442578063610b59251461047f578063694e80c3146104a857610226565b80632f54bf6e116101ab5780632f54bf6e146103225780633408e4701461035f578063468721a71461038a5780635229073f146103c757610226565b80630d582f131461029357806312fb68e0146102bc5780632d9ad53d146102e557610226565b36610226573373ffffffffffffffffffffffffffffffffffffffff167f3d0ce9bfc3ed7d6862dbb28b2dea94561fe714a1b4d019aa8af39730d1ad7c3d3460405161021c9190615e66565b60405180910390a2005b34801561023257600080fd5b5060007f6c9a6c4a39284e37ed1cf53d337577d14212a4870fb976a4366c693b939918d560001b905080548061026757600080f35b36600080373360601b365260008060143601600080855af13d6000803e8061028e573d6000fd5b3d6000f35b34801561029f57600080fd5b506102ba60048036038101906102b591906145d2565b61083e565b005b3480156102c857600080fd5b506102e360048036038101906102de9190614a4d565b610bc4565b005b3480156102f157600080fd5b5061030c6004803603810190610307919061443f565b611214565b604051610319919061581a565b60405180910390f35b34801561032e57600080fd5b506103496004803603810190610344919061443f565b6112e6565b604051610356919061581a565b60405180910390f35b34801561036b57600080fd5b506103746113b8565b6040516103819190615e66565b60405180910390f35b34801561039657600080fd5b506103b160048036038101906103ac9190614816565b6113c5565b6040516103be919061581a565b60405180910390f35b3480156103d357600080fd5b506103ee60048036038101906103e99190614816565b611598565b6040516103fc929190615835565b60405180910390f35b34801561041157600080fd5b5061042c60048036038101906104279190614b32565b6115ce565b60405161043991906159eb565b60405180910390f35b34801561044e57600080fd5b50610469600480360381019061046491906149a5565b61168c565b6040516104769190615e66565b60405180910390f35b34801561048b57600080fd5b506104a660048036038101906104a1919061443f565b6116a4565b005b3480156104b457600080fd5b506104cf60048036038101906104ca9190614b09565b6119c6565b005b6104eb60048036038101906104e6919061460e565b611a9a565b6040516104f8919061581a565b60405180910390f35b34801561050d57600080fd5b5061052860048036038101906105239190614542565b611e59565b6040516105359190615e66565b60405180910390f35b34801561054a57600080fd5b50610565600480360381019061056091906149ce565b611e7e565b005b34801561057357600080fd5b5061057c611eda565b60405161058991906157c8565b60405180910390f35b34801561059e57600080fd5b506105a76120de565b6040516105b49190615e66565b60405180910390f35b3480156105c957600080fd5b506105e460048036038101906105df919061457e565b6120e4565b005b3480156105f257600080fd5b5061060d60048036038101906106089190614891565b612106565b005b34801561061b57600080fd5b50610636600480360381019061063191906145d2565b612259565b6040516106449291906157ea565b60405180910390f35b34801561065957600080fd5b50610674600480360381019061066f91906149a5565b6125e7565b005b34801561068257600080fd5b5061069d6004803603810190610698919061471e565b612753565b6040516106aa9190615865565b60405180910390f35b3480156106bf57600080fd5b506106da60048036038101906106d59190614468565b612780565b005b3480156106e857600080fd5b5061070360048036038101906106fe919061443f565b612aa1565b005b34801561071157600080fd5b5061072c600480360381019061072791906144a4565b612c38565b005b34801561073a57600080fd5b506107436131ca565b6040516107509190615e66565b60405180910390f35b34801561076557600080fd5b50610780600480360381019061077b919061471e565b6131d4565b60405161078d91906159eb565b60405180910390f35b3480156107a257600080fd5b506107bd60048036038101906107b8919061443f565b613296565b005b3480156107cb57600080fd5b506107d46132ed565b6040516107e19190615865565b60405180910390f35b3480156107f657600080fd5b50610811600480360381019061080c91906144f3565b613349565b005b34801561081f57600080fd5b506108286136e7565b6040516108359190615a44565b60405180910390f35b610846613720565b600073ffffffffffffffffffffffffffffffffffffffff168273ffffffffffffffffffffffffffffffffffffffff16141580156108b05750600173ffffffffffffffffffffffffffffffffffffffff168273ffffffffffffffffffffffffffffffffffffffff1614155b80156108e857503073ffffffffffffffffffffffffffffffffffffffff168273ffffffffffffffffffffffffffffffffffffffff1614155b610927576040517f08c379a000000000000000000000000000000000000000000000000000000000815260040161091e90615b86565b60405180910390fd5b600073ffffffffffffffffffffffffffffffffffffffff16600260008473ffffffffffffffffffffffffffffffffffffffff1673ffffffffffffffffffffffffffffffffffffffff16815260200190815260200160002060009054906101000a900473ffffffffffffffffffffffffffffffffffffffff1673ffffffffffffffffffffffffffffffffffffffff16146109f5576040517f08c379a00000000000000000000000000000000000000000000000000000000081526004016109ec90615d66565b60405180910390fd5b60026000600173ffffffffffffffffffffffffffffffffffffffff1673ffffffffffffffffffffffffffffffffffffffff16815260200190815260200160002060009054906101000a900473ffffffffffffffffffffffffffffffffffffffff16600260008473ffffffffffffffffffffffffffffffffffffffff1673ffffffffffffffffffffffffffffffffffffffff16815260200190815260200160002060006101000a81548173ffffffffffffffffffffffffffffffffffffffff021916908373ffffffffffffffffffffffffffffffffffffffff1602179055508160026000600173ffffffffffffffffffffffffffffffffffffffff1673ffffffffffffffffffffffffffffffffffffffff16815260200190815260200160002060006101000a81548173ffffffffffffffffffffffffffffffffffffffff021916908373ffffffffffffffffffffffffffffffffffffffff16021790555060036000815480929190610b659061625e565b91905055508173ffffffffffffffffffffffffffffffffffffffff167f9465fa0c962cc76958e6373a993326400c1c94f8be2fe3a952adfa7f60b2ea2660405160405180910390a28060045414610bc057610bbf816119c6565b5b5050565b610bd860418261379090919063ffffffff16565b82511015610c1b576040517f08c379a0000000000000000000000000000000000000000000000000000000008152600401610c1290615e06565b60405180910390fd5b6000808060008060005b8681101561120857610c3788826137d5565b80945081955082965050505060008460ff161415610eea5789898051906020012014610c98576040517f08c379a0000000000000000000000000000000000000000000000000000000008152600401610c8f90615c06565b60405180910390fd5b8260001c9450610cb260418861379090919063ffffffff16565b8260001c1015610cf7576040517f08c379a0000000000000000000000000000000000000000000000000000000008152600401610cee90615dc6565b60405180910390fd5b8751610d1060208460001c61380490919063ffffffff16565b1115610d51576040517f08c379a0000000000000000000000000000000000000000000000000000000008152600401610d4890615b26565b60405180910390fd5b60006020838a01015190508851610d8782610d7960208760001c61380490919063ffffffff16565b61380490919063ffffffff16565b1115610dc8576040517f08c379a0000000000000000000000000000000000000000000000000000000008152600401610dbf90615a66565b60405180910390fd5b60606020848b010190506320c13b0b60e01b7bffffffffffffffffffffffffffffffffffffffffffffffffffffffff19168773ffffffffffffffffffffffffffffffffffffffff166320c13b0b8d846040518363ffffffff1660e01b8152600401610e34929190615a0d565b60206040518083038186803b158015610e4c57600080fd5b505afa158015610e60573d6000803e3d6000fd5b505050506040513d601f19601f82011682018060405250810190610e849190614ae0565b7bffffffffffffffffffffffffffffffffffffffffffffffffffffffff191614610ee3576040517f08c379a0000000000000000000000000000000000000000000000000000000008152600401610eda90615aa6565b60405180910390fd5b50506110b3565b60018460ff161415610fcb578260001c94508473ffffffffffffffffffffffffffffffffffffffff163373ffffffffffffffffffffffffffffffffffffffff161480610f8757506000600860008773ffffffffffffffffffffffffffffffffffffffff1673ffffffffffffffffffffffffffffffffffffffff16815260200190815260200160002060008c81526020019081526020016000205414155b610fc6576040517f08c379a0000000000000000000000000000000000000000000000000000000008152600401610fbd90615d46565b60405180910390fd5b6110b2565b601e8460ff16111561105f5760018a604051602001610fea9190615670565b6040516020818303038152906040528051906020012060048661100d91906160ac565b85856040516000815260200160405260405161102c949392919061598b565b6020604051602081039080840390855afa15801561104e573d6000803e3d6000fd5b5050506020604051035194506110b1565b60018a85858560405160008152602001604052604051611082949392919061598b565b6020604051602081039080840390855afa1580156110a4573d6000803e3d6000fd5b5050506020604051035194505b5b5b8573ffffffffffffffffffffffffffffffffffffffff168573ffffffffffffffffffffffffffffffffffffffff1611801561117a5750600073ffffffffffffffffffffffffffffffffffffffff16600260008773ffffffffffffffffffffffffffffffffffffffff1673ffffffffffffffffffffffffffffffffffffffff16815260200190815260200160002060009054906101000a900473ffffffffffffffffffffffffffffffffffffffff1673ffffffffffffffffffffffffffffffffffffffff1614155b80156111b35750600173ffffffffffffffffffffffffffffffffffffffff168573ffffffffffffffffffffffffffffffffffffffff1614155b6111f2576040517f08c379a00000000000000000000000000000000000000000000000000000000081526004016111e990615a86565b60405180910390fd5b84955080806112009061625e565b915050610c25565b50505050505050505050565b60008173ffffffffffffffffffffffffffffffffffffffff16600173ffffffffffffffffffffffffffffffffffffffff16141580156112df5750600073ffffffffffffffffffffffffffffffffffffffff16600160008473ffffffffffffffffffffffffffffffffffffffff1673ffffffffffffffffffffffffffffffffffffffff16815260200190815260200160002060009054906101000a900473ffffffffffffffffffffffffffffffffffffffff1673ffffffffffffffffffffffffffffffffffffffff1614155b9050919050565b6000600173ffffffffffffffffffffffffffffffffffffffff168273ffffffffffffffffffffffffffffffffffffffff16141580156113b15750600073ffffffffffffffffffffffffffffffffffffffff16600260008473ffffffffffffffffffffffffffffffffffffffff1673ffffffffffffffffffffffffffffffffffffffff16815260200190815260200160002060009054906101000a900473ffffffffffffffffffffffffffffffffffffffff1673ffffffffffffffffffffffffffffffffffffffff1614155b9050919050565b6000804690508091505090565b6000600173ffffffffffffffffffffffffffffffffffffffff163373ffffffffffffffffffffffffffffffffffffffff16141580156114905750600073ffffffffffffffffffffffffffffffffffffffff16600160003373ffffffffffffffffffffffffffffffffffffffff1673ffffffffffffffffffffffffffffffffffffffff16815260200190815260200160002060009054906101000a900473ffffffffffffffffffffffffffffffffffffffff1673ffffffffffffffffffffffffffffffffffffffff1614155b6114cf576040517f08c379a00000000000000000000000000000000000000000000000000000000081526004016114c690615d06565b60405180910390fd5b6114fc858585857fffffffffffffffffffffffffffffffffffffffffffffffffffffffffffffffff61382c565b9050801561154c573373ffffffffffffffffffffffffffffffffffffffff167f6895c13664aa4f67288b25d7a21d7aaa34916e355fb9b6fae0a139a9085becb860405160405180910390a2611590565b3373ffffffffffffffffffffffffffffffffffffffff167facd2c8702804128fdb0db2bb49f6d127dd0181c13fd45dbfe16de0930e2bd37560405160405180910390a25b949350505050565b600060606115a8868686866113c5565b915060405160203d0181016040523d81523d6000602083013e8091505094509492505050565b606060006020836115df919061601e565b67ffffffffffffffff81111561161e577f4e487b7100000000000000000000000000000000000000000000000000000000600052604160045260246000fd5b6040519080825280601f01601f1916602001820160405280156116505781602001600182028036833780820191505090505b50905060005b83811015611681578085015480602083026020850101525080806116799061625e565b915050611656565b508091505092915050565b60076020528060005260406000206000915090505481565b6116ac613720565b600073ffffffffffffffffffffffffffffffffffffffff168173ffffffffffffffffffffffffffffffffffffffff16141580156117165750600173ffffffffffffffffffffffffffffffffffffffff168173ffffffffffffffffffffffffffffffffffffffff1614155b611755576040517f08c379a000000000000000000000000000000000000000000000000000000000815260040161174c90615de6565b60405180910390fd5b600073ffffffffffffffffffffffffffffffffffffffff16600160008373ffffffffffffffffffffffffffffffffffffffff1673ffffffffffffffffffffffffffffffffffffffff16815260200190815260200160002060009054906101000a900473ffffffffffffffffffffffffffffffffffffffff1673ffffffffffffffffffffffffffffffffffffffff1614611823576040517f08c379a000000000000000000000000000000000000000000000000000000000815260040161181a90615d86565b60405180910390fd5b60016000600173ffffffffffffffffffffffffffffffffffffffff1673ffffffffffffffffffffffffffffffffffffffff16815260200190815260200160002060009054906101000a900473ffffffffffffffffffffffffffffffffffffffff16600160008373ffffffffffffffffffffffffffffffffffffffff1673ffffffffffffffffffffffffffffffffffffffff16815260200190815260200160002060006101000a81548173ffffffffffffffffffffffffffffffffffffffff021916908373ffffffffffffffffffffffffffffffffffffffff1602179055508060016000600173ffffffffffffffffffffffffffffffffffffffff1673ffffffffffffffffffffffffffffffffffffffff16815260200190815260200160002060006101000a81548173ffffffffffffffffffffffffffffffffffffffff021916908373ffffffffffffffffffffffffffffffffffffffff1602179055508073ffffffffffffffffffffffffffffffffffffffff167fecdf3a3effea5783a3c4c2140e677577666428d44ed9d474a0b3a4c9943f844060405160405180910390a250565b6119ce613720565b600354811115611a13576040517f08c379a0000000000000000000000000000000000000000000000000000000008152600401611a0a90615b06565b60405180910390fd5b6001811015611a57576040517f08c379a0000000000000000000000000000000000000000000000000000000008152600401611a4e90615ce6565b60405180910390fd5b806004819055507f610f7ff2b304ae8903c3de74c60c6ab1f7d6226b3f52c5161905bb5ad4039c93600454604051611a8f9190615e66565b60405180910390a150565b6000806000611ab48e8e8e8e8e8e8e8e8e8e6005546131d4565b905060056000815480929190611ac99061625e565b919050555080805190602001209150611ae3828286611e7e565b506000611aee6138d2565b9050600073ffffffffffffffffffffffffffffffffffffffff168173ffffffffffffffffffffffffffffffffffffffff1614611ba6578073ffffffffffffffffffffffffffffffffffffffff166375f0bb528f8f8f8f8f8f8f8f8f8f8f336040518d63ffffffff1660e01b8152600401611b739c9b9a999897969594939291906156bf565b600060405180830381600087803b158015611b8d57600080fd5b505af1158015611ba1573d6000803e3d6000fd5b505050505b6101f4611be16109c48b611bba9190615f97565b603f60408d611bc9919061601e565b611bd39190615fed565b61390390919063ffffffff16565b611beb9190615f97565b5a1015611c2d576040517f08c379a0000000000000000000000000000000000000000000000000000000008152600401611c2490615cc6565b60405180910390fd5b60005a9050611c9f8f8f8f8f8080601f016020809104026020016040519081016040528093929190818152602001838380828437600081840152601f19601f820116905080830192505050505050508e60008d14611c8b578e611c9a565b6109c45a611c999190616078565b5b61382c565b9350611cb45a8261391d90919063ffffffff16565b90508380611cc3575060008a14155b80611ccf575060008814155b611d0e576040517f08c379a0000000000000000000000000000000000000000000000000000000008152600401611d0590615ca6565b60405180910390fd5b600080891115611d2857611d25828b8b8b8b613946565b90505b8415611d6b57837f442e715f626346e8c54381002da614f62bee8d27386535b2521ec8540898556e82604051611d5e9190615e66565b60405180910390a2611da4565b837f23428b18acfb3ea64b08dc0c1d296ea9c09702c09083ca5272e64d115b687d2382604051611d9b9190615e66565b60405180910390a25b5050600073ffffffffffffffffffffffffffffffffffffffff168173ffffffffffffffffffffffffffffffffffffffff1614611e48578073ffffffffffffffffffffffffffffffffffffffff16639327136883856040518363ffffffff1660e01b8152600401611e1592919061592b565b600060405180830381600087803b158015611e2f57600080fd5b505af1158015611e43573d6000803e3d6000fd5b505050505b50509b9a5050505050505050505050565b6008602052816000526040600020602052806000526040600020600091509150505481565b6000600454905060008111611ec8576040517f08c379a0000000000000000000000000000000000000000000000000000000008152600401611ebf90615c86565b60405180910390fd5b611ed484848484610bc4565b50505050565b6060600060035467ffffffffffffffff811115611f20577f4e487b7100000000000000000000000000000000000000000000000000000000600052604160045260246000fd5b604051908082528060200260200182016040528015611f4e5781602001602082028036833780820191505090505b50905060008060026000600173ffffffffffffffffffffffffffffffffffffffff1673ffffffffffffffffffffffffffffffffffffffff16815260200190815260200160002060009054906101000a900473ffffffffffffffffffffffffffffffffffffffff1690505b600173ffffffffffffffffffffffffffffffffffffffff168173ffffffffffffffffffffffffffffffffffffffff16146120d55780838381518110612026577f4e487b7100000000000000000000000000000000000000000000000000000000600052603260045260246000fd5b602002602001019073ffffffffffffffffffffffffffffffffffffffff16908173ffffffffffffffffffffffffffffffffffffffff1681525050600260008273ffffffffffffffffffffffffffffffffffffffff1673ffffffffffffffffffffffffffffffffffffffff16815260200190815260200160002060009054906101000a900473ffffffffffffffffffffffffffffffffffffffff16905081806120cd9061625e565b925050611fb8565b82935050505090565b60055481565b600080825160208401855af4806000523d6020523d600060403e60403d016000fd5b6121518a8a80806020026020016040519081016040528093929190818152602001838360200280828437600081840152601f19601f8201169050808301925050505050505089613ae6565b600073ffffffffffffffffffffffffffffffffffffffff168473ffffffffffffffffffffffffffffffffffffffff161461218f5761218e84613f1a565b5b6121dd8787878080601f016020809104026020016040519081016040528093929190818152602001838380828437600081840152601f19601f82011690508083019250505050505050613fb8565b60008211156121f7576121f582600060018685613946565b505b3373ffffffffffffffffffffffffffffffffffffffff167f141df868a6331af528e38c83b7aa03edc19be66e37ae67f9285bf4f8e3c6a1a88b8b8b8b8960405161224595949392919061577a565b60405180910390a250505050505050505050565b60606000600173ffffffffffffffffffffffffffffffffffffffff168473ffffffffffffffffffffffffffffffffffffffff16148061229d575061229c84611214565b5b6122dc576040517f08c379a00000000000000000000000000000000000000000000000000000000081526004016122d390615ac6565b60405180910390fd5b6000831161231f576040517f08c379a000000000000000000000000000000000000000000000000000000000815260040161231690615b66565b60405180910390fd5b8267ffffffffffffffff81111561235f577f4e487b7100000000000000000000000000000000000000000000000000000000600052604160045260246000fd5b60405190808252806020026020018201604052801561238d5781602001602082028036833780820191505090505b5091506000600160008673ffffffffffffffffffffffffffffffffffffffff1673ffffffffffffffffffffffffffffffffffffffff16815260200190815260200160002060009054906101000a900473ffffffffffffffffffffffffffffffffffffffff1691505b600073ffffffffffffffffffffffffffffffffffffffff168273ffffffffffffffffffffffffffffffffffffffff161415801561245f5750600173ffffffffffffffffffffffffffffffffffffffff168273ffffffffffffffffffffffffffffffffffffffff1614155b801561246a57508381105b1561255857818382815181106124a9577f4e487b7100000000000000000000000000000000000000000000000000000000600052603260045260246000fd5b602002602001019073ffffffffffffffffffffffffffffffffffffffff16908173ffffffffffffffffffffffffffffffffffffffff1681525050600160008373ffffffffffffffffffffffffffffffffffffffff1673ffffffffffffffffffffffffffffffffffffffff16815260200190815260200160002060009054906101000a900473ffffffffffffffffffffffffffffffffffffffff16915080806125509061625e565b9150506123f5565b600173ffffffffffffffffffffffffffffffffffffffff168273ffffffffffffffffffffffffffffffffffffffff16146125dc578260018261259a9190616078565b815181106125d1577f4e487b7100000000000000000000000000000000000000000000000000000000600052603260045260246000fd5b602002602001015191505b808352509250929050565b600073ffffffffffffffffffffffffffffffffffffffff16600260003373ffffffffffffffffffffffffffffffffffffffff1673ffffffffffffffffffffffffffffffffffffffff16815260200190815260200160002060009054906101000a900473ffffffffffffffffffffffffffffffffffffffff1673ffffffffffffffffffffffffffffffffffffffff1614156126b6576040517f08c379a00000000000000000000000000000000000000000000000000000000081526004016126ad90615ae6565b60405180910390fd5b6001600860003373ffffffffffffffffffffffffffffffffffffffff1673ffffffffffffffffffffffffffffffffffffffff1681526020019081526020016000206000838152602001908152602001600020819055503373ffffffffffffffffffffffffffffffffffffffff16817ff2a0eb156472d1440255b0d7c1e19cc07115d1051fe605b0dce69acfec884d9c60405160405180910390a350565b60006127688c8c8c8c8c8c8c8c8c8c8c6131d4565b8051906020012090509b9a5050505050505050505050565b612788613720565b600073ffffffffffffffffffffffffffffffffffffffff168173ffffffffffffffffffffffffffffffffffffffff16141580156127f25750600173ffffffffffffffffffffffffffffffffffffffff168173ffffffffffffffffffffffffffffffffffffffff1614155b612831576040517f08c379a000000000000000000000000000000000000000000000000000000000815260040161282890615de6565b60405180910390fd5b8073ffffffffffffffffffffffffffffffffffffffff16600160008473ffffffffffffffffffffffffffffffffffffffff1673ffffffffffffffffffffffffffffffffffffffff16815260200190815260200160002060009054906101000a900473ffffffffffffffffffffffffffffffffffffffff1673ffffffffffffffffffffffffffffffffffffffff16146128fe576040517f08c379a00000000000000000000000000000000000000000000000000000000081526004016128f590615c26565b60405180910390fd5b600160008273ffffffffffffffffffffffffffffffffffffffff1673ffffffffffffffffffffffffffffffffffffffff16815260200190815260200160002060009054906101000a900473ffffffffffffffffffffffffffffffffffffffff16600160008473ffffffffffffffffffffffffffffffffffffffff1673ffffffffffffffffffffffffffffffffffffffff16815260200190815260200160002060006101000a81548173ffffffffffffffffffffffffffffffffffffffff021916908373ffffffffffffffffffffffffffffffffffffffff1602179055506000600160008373ffffffffffffffffffffffffffffffffffffffff1673ffffffffffffffffffffffffffffffffffffffff16815260200190815260200160002060006101000a81548173ffffffffffffffffffffffffffffffffffffffff021916908373ffffffffffffffffffffffffffffffffffffffff1602179055508073ffffffffffffffffffffffffffffffffffffffff167faab4fa2b463f581b2b32cb3b7e3b704b9ce37cc209b5fb4d77e593ace405427660405160405180910390a25050565b612aa9613720565b600073ffffffffffffffffffffffffffffffffffffffff168173ffffffffffffffffffffffffffffffffffffffff1614612bc6578073ffffffffffffffffffffffffffffffffffffffff166301ffc9a77fe6d7a83a000000000000000000000000000000000000000000000000000000006040518263ffffffff1660e01b8152600401612b3691906159d0565b60206040518083038186803b158015612b4e57600080fd5b505afa158015612b62573d6000803e3d6000fd5b505050506040513d601f19601f82011682018060405250810190612b86919061497c565b612bc5576040517f08c379a0000000000000000000000000000000000000000000000000000000008152600401612bbc90615da6565b60405180910390fd5b5b60007f4a204f620c8c5ccdca3fd54d003badd85ba500436a431f0cbda4f558c93c34c860001b90508181558173ffffffffffffffffffffffffffffffffffffffff167f1151116914515bc0891ff9047a6cb32cf902546f83066499bcf8ba33d2353fa260405160405180910390a25050565b612c40613720565b600073ffffffffffffffffffffffffffffffffffffffff168173ffffffffffffffffffffffffffffffffffffffff1614158015612caa5750600173ffffffffffffffffffffffffffffffffffffffff168173ffffffffffffffffffffffffffffffffffffffff1614155b8015612ce257503073ffffffffffffffffffffffffffffffffffffffff168173ffffffffffffffffffffffffffffffffffffffff1614155b612d21576040517f08c379a0000000000000000000000000000000000000000000000000000000008152600401612d1890615b86565b60405180910390fd5b600073ffffffffffffffffffffffffffffffffffffffff16600260008373ffffffffffffffffffffffffffffffffffffffff1673ffffffffffffffffffffffffffffffffffffffff16815260200190815260200160002060009054906101000a900473ffffffffffffffffffffffffffffffffffffffff1673ffffffffffffffffffffffffffffffffffffffff1614612def576040517f08c379a0000000000000000000000000000000000000000000000000000000008152600401612de690615d66565b60405180910390fd5b600073ffffffffffffffffffffffffffffffffffffffff168273ffffffffffffffffffffffffffffffffffffffff1614158015612e595750600173ffffffffffffffffffffffffffffffffffffffff168273ffffffffffffffffffffffffffffffffffffffff1614155b612e98576040517f08c379a0000000000000000000000000000000000000000000000000000000008152600401612e8f90615b86565b60405180910390fd5b8173ffffffffffffffffffffffffffffffffffffffff16600260008573ffffffffffffffffffffffffffffffffffffffff1673ffffffffffffffffffffffffffffffffffffffff16815260200190815260200160002060009054906101000a900473ffffffffffffffffffffffffffffffffffffffff1673ffffffffffffffffffffffffffffffffffffffff1614612f65576040517f08c379a0000000000000000000000000000000000000000000000000000000008152600401612f5c90615e46565b60405180910390fd5b600260008373ffffffffffffffffffffffffffffffffffffffff1673ffffffffffffffffffffffffffffffffffffffff16815260200190815260200160002060009054906101000a900473ffffffffffffffffffffffffffffffffffffffff16600260008373ffffffffffffffffffffffffffffffffffffffff1673ffffffffffffffffffffffffffffffffffffffff16815260200190815260200160002060006101000a81548173ffffffffffffffffffffffffffffffffffffffff021916908373ffffffffffffffffffffffffffffffffffffffff16021790555080600260008573ffffffffffffffffffffffffffffffffffffffff1673ffffffffffffffffffffffffffffffffffffffff16815260200190815260200160002060006101000a81548173ffffffffffffffffffffffffffffffffffffffff021916908373ffffffffffffffffffffffffffffffffffffffff1602179055506000600260008473ffffffffffffffffffffffffffffffffffffffff1673ffffffffffffffffffffffffffffffffffffffff16815260200190815260200160002060006101000a81548173ffffffffffffffffffffffffffffffffffffffff021916908373ffffffffffffffffffffffffffffffffffffffff1602179055508173ffffffffffffffffffffffffffffffffffffffff167ff8d49fc529812e9a7c5c50e69c20f0dccc0db8fa95c98bc58cc9a4f1c1299eaf60405160405180910390a28073ffffffffffffffffffffffffffffffffffffffff167f9465fa0c962cc76958e6373a993326400c1c94f8be2fe3a952adfa7f60b2ea2660405160405180910390a2505050565b6000600454905090565b606060007fbb8310d486368db6bd6f849402fdd73ad53d316b5a4b2644ad6efe0f941286d860001b8d8d8d8d60405161320e929190615657565b60405180910390208c8c8c8c8c8c8c6040516020016132379b9a99989796959493929190615880565b604051602081830303815290604052805190602001209050601960f81b600160f81b6132616132ed565b836040516020016132759493929190615609565b6040516020818303038152906040529150509b9a5050505050505050505050565b61329e613720565b6132a781613f1a565b8073ffffffffffffffffffffffffffffffffffffffff167f5ac6c46c93c8d0e53714ba3b53db3e7c046da994313d7ed0d192028bc7c228b060405160405180910390a250565b60007f47e79534a245952e8b16893a336b85a3d9ea9fa8c573f3d803afb92a7946921860001b61331b6113b8565b3060405160200161332e93929190615954565b60405160208183030381529060405280519060200120905090565b613351613720565b8060016003546133619190616078565b10156133a2576040517f08c379a000000000000000000000000000000000000000000000000000000000815260040161339990615b06565b60405180910390fd5b600073ffffffffffffffffffffffffffffffffffffffff168273ffffffffffffffffffffffffffffffffffffffff161415801561340c5750600173ffffffffffffffffffffffffffffffffffffffff168273ffffffffffffffffffffffffffffffffffffffff1614155b61344b576040517f08c379a000000000000000000000000000000000000000000000000000000000815260040161344290615b86565b60405180910390fd5b8173ffffffffffffffffffffffffffffffffffffffff16600260008573ffffffffffffffffffffffffffffffffffffffff1673ffffffffffffffffffffffffffffffffffffffff16815260200190815260200160002060009054906101000a900473ffffffffffffffffffffffffffffffffffffffff1673ffffffffffffffffffffffffffffffffffffffff1614613518576040517f08c379a000000000000000000000000000000000000000000000000000000000815260040161350f90615e46565b60405180910390fd5b600260008373ffffffffffffffffffffffffffffffffffffffff1673ffffffffffffffffffffffffffffffffffffffff16815260200190815260200160002060009054906101000a900473ffffffffffffffffffffffffffffffffffffffff16600260008573ffffffffffffffffffffffffffffffffffffffff1673ffffffffffffffffffffffffffffffffffffffff16815260200190815260200160002060006101000a81548173ffffffffffffffffffffffffffffffffffffffff021916908373ffffffffffffffffffffffffffffffffffffffff1602179055506000600260008473ffffffffffffffffffffffffffffffffffffffff1673ffffffffffffffffffffffffffffffffffffffff16815260200190815260200160002060006101000a81548173ffffffffffffffffffffffffffffffffffffffff021916908373ffffffffffffffffffffffffffffffffffffffff1602179055506003600081548092919061368790616234565b91905055508173ffffffffffffffffffffffffffffffffffffffff167ff8d49fc529812e9a7c5c50e69c20f0dccc0db8fa95c98bc58cc9a4f1c1299eaf60405160405180910390a280600454146136e2576136e1816119c6565b5b505050565b6040518060400160405280600581526020017f312e342e3100000000000000000000000000000000000000000000000000000081525081565b3073ffffffffffffffffffffffffffffffffffffffff163373ffffffffffffffffffffffffffffffffffffffff161461378e576040517f08c379a000000000000000000000000000000000000000000000000000000000815260040161378590615d26565b60405180910390fd5b565b6000808314156137a357600090506137cf565b600082846137b1919061601e565b90508284826137c09190615fed565b146137ca57600080fd5b809150505b92915050565b60008060008360410260208101860151925060408101860151915060ff60418201870151169350509250925092565b60008082846138139190615f97565b90508381101561382257600080fd5b8091505092915050565b6000600180811115613867577f4e487b7100000000000000000000000000000000000000000000000000000000600052602160045260246000fd5b8360018111156138a0577f4e487b7100000000000000000000000000000000000000000000000000000000600052602160045260246000fd5b14156138b9576000808551602087018986f490506138c9565b600080855160208701888a87f190505b95945050505050565b6000807f4a204f620c8c5ccdca3fd54d003badd85ba500436a431f0cbda4f558c93c34c860001b9050805491505090565b6000818310156139135781613915565b825b905092915050565b60008282111561392c57600080fd5b6000828461393a9190616078565b90508091505092915050565b600080600073ffffffffffffffffffffffffffffffffffffffff168373ffffffffffffffffffffffffffffffffffffffff16146139835782613985565b325b9050600073ffffffffffffffffffffffffffffffffffffffff168473ffffffffffffffffffffffffffffffffffffffff161415613a6a576139ef3a86106139cc573a6139ce565b855b6139e1888a61380490919063ffffffff16565b61379090919063ffffffff16565b91508073ffffffffffffffffffffffffffffffffffffffff166108fc839081150290604051600060405180830381858888f19350505050613a65576040517f08c379a0000000000000000000000000000000000000000000000000000000008152600401613a5c90615bc6565b60405180910390fd5b613adc565b613a8f85613a81888a61380490919063ffffffff16565b61379090919063ffffffff16565b9150613a9c8482846141f5565b613adb576040517f08c379a0000000000000000000000000000000000000000000000000000000008152600401613ad290615c46565b60405180910390fd5b5b5095945050505050565b600060045414613b2b576040517f08c379a0000000000000000000000000000000000000000000000000000000008152600401613b2290615b46565b60405180910390fd5b8151811115613b6f576040517f08c379a0000000000000000000000000000000000000000000000000000000008152600401613b6690615b06565b60405180910390fd5b6001811015613bb3576040517f08c379a0000000000000000000000000000000000000000000000000000000008152600401613baa90615ce6565b60405180910390fd5b60006001905060005b8351811015613e86576000848281518110613c00577f4e487b7100000000000000000000000000000000000000000000000000000000600052603260045260246000fd5b60200260200101519050600073ffffffffffffffffffffffffffffffffffffffff168173ffffffffffffffffffffffffffffffffffffffff1614158015613c745750600173ffffffffffffffffffffffffffffffffffffffff168173ffffffffffffffffffffffffffffffffffffffff1614155b8015613cac57503073ffffffffffffffffffffffffffffffffffffffff168173ffffffffffffffffffffffffffffffffffffffff1614155b8015613ce457508073ffffffffffffffffffffffffffffffffffffffff168373ffffffffffffffffffffffffffffffffffffffff1614155b613d23576040517f08c379a0000000000000000000000000000000000000000000000000000000008152600401613d1a90615b86565b60405180910390fd5b600073ffffffffffffffffffffffffffffffffffffffff16600260008373ffffffffffffffffffffffffffffffffffffffff1673ffffffffffffffffffffffffffffffffffffffff16815260200190815260200160002060009054906101000a900473ffffffffffffffffffffffffffffffffffffffff1673ffffffffffffffffffffffffffffffffffffffff1614613df1576040517f08c379a0000000000000000000000000000000000000000000000000000000008152600401613de890615d66565b60405180910390fd5b80600260008573ffffffffffffffffffffffffffffffffffffffff1673ffffffffffffffffffffffffffffffffffffffff16815260200190815260200160002060006101000a81548173ffffffffffffffffffffffffffffffffffffffff021916908373ffffffffffffffffffffffffffffffffffffffff160217905550809250508080613e7e9061625e565b915050613bbc565b506001600260008373ffffffffffffffffffffffffffffffffffffffff1673ffffffffffffffffffffffffffffffffffffffff16815260200190815260200160002060006101000a81548173ffffffffffffffffffffffffffffffffffffffff021916908373ffffffffffffffffffffffffffffffffffffffff160217905550825160038190555081600481905550505050565b3073ffffffffffffffffffffffffffffffffffffffff168173ffffffffffffffffffffffffffffffffffffffff161415613f89576040517f08c379a0000000000000000000000000000000000000000000000000000000008152600401613f8090615e26565b60405180910390fd5b60007f6c9a6c4a39284e37ed1cf53d337577d14212a4870fb976a4366c693b939918d560001b90508181555050565b600073ffffffffffffffffffffffffffffffffffffffff1660016000600173ffffffffffffffffffffffffffffffffffffffff1673ffffffffffffffffffffffffffffffffffffffff16815260200190815260200160002060009054906101000a900473ffffffffffffffffffffffffffffffffffffffff1673ffffffffffffffffffffffffffffffffffffffff1614614087576040517f08c379a000000000000000000000000000000000000000000000000000000000815260040161407e90615c66565b60405180910390fd5b6001806000600173ffffffffffffffffffffffffffffffffffffffff1673ffffffffffffffffffffffffffffffffffffffff16815260200190815260200160002060006101000a81548173ffffffffffffffffffffffffffffffffffffffff021916908373ffffffffffffffffffffffffffffffffffffffff160217905550600073ffffffffffffffffffffffffffffffffffffffff168273ffffffffffffffffffffffffffffffffffffffff16146141f1576141438261429d565b614182576040517f08c379a000000000000000000000000000000000000000000000000000000000815260040161417990615be6565b60405180910390fd5b6141b18260008360017fffffffffffffffffffffffffffffffffffffffffffffffffffffffffffffffff61382c565b6141f0576040517f08c379a00000000000000000000000000000000000000000000000000000000081526004016141e790615ba6565b60405180910390fd5b5b5050565b60008063a9059cbb8484604051602401614210929190615696565b6040516020818303038152906040529060e01b6020820180517bffffffffffffffffffffffffffffffffffffffffffffffffffffffff83818316178352505050509050602060008251602084016000896127105a03f13d6000811461428057602081146142885760009350614293565b819350614293565b600051158215171593505b5050509392505050565b600080823b905060008111915050919050565b60006142c36142be84615eb2565b615e81565b9050828152602081018484840111156142db57600080fd5b6142e68482856161f2565b509392505050565b6000813590506142fd8161639c565b92915050565b600081359050614312816163b3565b92915050565b60008083601f84011261432a57600080fd5b8235905067ffffffffffffffff81111561434357600080fd5b60208301915083602082028301111561435b57600080fd5b9250929050565b600081519050614371816163ca565b92915050565b600081359050614386816163e1565b92915050565b60008151905061439b816163f8565b92915050565b60008083601f8401126143b357600080fd5b8235905067ffffffffffffffff8111156143cc57600080fd5b6020830191508360018202830111156143e457600080fd5b9250929050565b600082601f8301126143fc57600080fd5b813561440c8482602086016142b0565b91505092915050565b6000813590506144248161640f565b92915050565b6000813590506144398161641f565b92915050565b60006020828403121561445157600080fd5b600061445f848285016142ee565b91505092915050565b6000806040838503121561447b57600080fd5b6000614489858286016142ee565b925050602061449a858286016142ee565b9150509250929050565b6000806000606084860312156144b957600080fd5b60006144c7868287016142ee565b93505060206144d8868287016142ee565b92505060406144e9868287016142ee565b9150509250925092565b60008060006060848603121561450857600080fd5b6000614516868287016142ee565b9350506020614527868287016142ee565b92505060406145388682870161442a565b9150509250925092565b6000806040838503121561455557600080fd5b6000614563858286016142ee565b925050602061457485828601614377565b9150509250929050565b6000806040838503121561459157600080fd5b600061459f858286016142ee565b925050602083013567ffffffffffffffff8111156145bc57600080fd5b6145c8858286016143eb565b9150509250929050565b600080604083850312156145e557600080fd5b60006145f3858286016142ee565b92505060206146048582860161442a565b9150509250929050565b60008060008060008060008060008060006101408c8e03121561463057600080fd5b600061463e8e828f016142ee565b9b5050602061464f8e828f0161442a565b9a505060408c013567ffffffffffffffff81111561466c57600080fd5b6146788e828f016143a1565b9950995050606061468b8e828f01614415565b975050608061469c8e828f0161442a565b96505060a06146ad8e828f0161442a565b95505060c06146be8e828f0161442a565b94505060e06146cf8e828f016142ee565b9350506101006146e18e828f01614303565b9250506101208c013567ffffffffffffffff8111156146ff57600080fd5b61470b8e828f016143eb565b9150509295989b509295989b9093969950565b60008060008060008060008060008060006101408c8e03121561474057600080fd5b600061474e8e828f016142ee565b9b5050602061475f8e828f0161442a565b9a505060408c013567ffffffffffffffff81111561477c57600080fd5b6147888e828f016143a1565b9950995050606061479b8e828f01614415565b97505060806147ac8e828f0161442a565b96505060a06147bd8e828f0161442a565b95505060c06147ce8e828f0161442a565b94505060e06147df8e828f016142ee565b9350506101006147f18e828f016142ee565b9250506101206148038e828f0161442a565b9150509295989b509295989b9093969950565b6000806000806080858703121561482c57600080fd5b600061483a878288016142ee565b945050602061484b8782880161442a565b935050604085013567ffffffffffffffff81111561486857600080fd5b614874878288016143eb565b925050606061488587828801614415565b91505092959194509250565b6000806000806000806000806000806101008b8d0312156148b157600080fd5b60008b013567ffffffffffffffff8111156148cb57600080fd5b6148d78d828e01614318565b9a509a505060206148ea8d828e0161442a565b98505060406148fb8d828e016142ee565b97505060608b013567ffffffffffffffff81111561491857600080fd5b6149248d828e016143a1565b965096505060806149378d828e016142ee565b94505060a06149488d828e016142ee565b93505060c06149598d828e0161442a565b92505060e061496a8d828e01614303565b9150509295989b9194979a5092959850565b60006020828403121561498e57600080fd5b600061499c84828501614362565b91505092915050565b6000602082840312156149b757600080fd5b60006149c584828501614377565b91505092915050565b6000806000606084860312156149e357600080fd5b60006149f186828701614377565b935050602084013567ffffffffffffffff811115614a0e57600080fd5b614a1a868287016143eb565b925050604084013567ffffffffffffffff811115614a3757600080fd5b614a43868287016143eb565b9150509250925092565b60008060008060808587031215614a6357600080fd5b6000614a7187828801614377565b945050602085013567ffffffffffffffff811115614a8e57600080fd5b614a9a878288016143eb565b935050604085013567ffffffffffffffff811115614ab757600080fd5b614ac3878288016143eb565b9250506060614ad48782880161442a565b91505092959194509250565b600060208284031215614af257600080fd5b6000614b008482850161438c565b91505092915050565b600060208284031215614b1b57600080fd5b6000614b298482850161442a565b91505092915050565b60008060408385031215614b4557600080fd5b6000614b538582860161442a565b9250506020614b648582860161442a565b9150509250929050565b6000614b7a8383614b95565b60208301905092915050565b614b8f816160f2565b82525050565b614b9e816160e0565b82525050565b614bad816160e0565b82525050565b6000614bbf8385615f37565b9350614bca82615ee2565b8060005b85811015614c0357614be08284615f80565b614bea8882614b6e565b9750614bf583615f1d565b925050600181019050614bce565b5085925050509392505050565b6000614c1b82615efc565b614c258185615f37565b9350614c3083615eec565b8060005b83811015614c61578151614c488882614b6e565b9750614c5383615f2a565b925050600181019050614c34565b5085935050505092915050565b614c7781616104565b82525050565b614c8e614c8982616110565b6162a7565b82525050565b614c9d8161613c565b82525050565b614cb4614caf8261613c565b6162b1565b82525050565b614cc381616146565b82525050565b6000614cd58385615f48565b9350614ce28385846161f2565b614ceb83616377565b840190509392505050565b6000614d028385615f59565b9350614d0f8385846161f2565b82840190509392505050565b6000614d2682615f07565b614d308185615f48565b9350614d40818560208601616201565b614d4981616377565b840191505092915050565b614d5d816161bc565b82525050565b614d6c816161e0565b82525050565b6000614d7d82615f12565b614d878185615f64565b9350614d97818560208601616201565b614da081616377565b840191505092915050565b6000614db8600583615f64565b91507f47533032330000000000000000000000000000000000000000000000000000006000830152602082019050919050565b6000614df8600583615f64565b91507f47533032360000000000000000000000000000000000000000000000000000006000830152602082019050919050565b6000614e38601c83615f75565b91507f19457468657265756d205369676e6564204d6573736167653a0a3332000000006000830152601c82019050919050565b6000614e78600583615f64565b91507f47533032340000000000000000000000000000000000000000000000000000006000830152602082019050919050565b6000614eb8600583615f64565b91507f47533130350000000000000000000000000000000000000000000000000000006000830152602082019050919050565b6000614ef8600583615f64565b91507f47533033300000000000000000000000000000000000000000000000000000006000830152602082019050919050565b6000614f38600583615f64565b91507f47533230310000000000000000000000000000000000000000000000000000006000830152602082019050919050565b6000614f78600583615f64565b91507f47533032320000000000000000000000000000000000000000000000000000006000830152602082019050919050565b6000614fb8600583615f64565b91507f47533230300000000000000000000000000000000000000000000000000000006000830152602082019050919050565b6000614ff8600583615f64565b91507f47533130360000000000000000000000000000000000000000000000000000006000830152602082019050919050565b6000615038600583615f64565b91507f47533230330000000000000000000000000000000000000000000000000000006000830152602082019050919050565b6000615078600583615f64565b91507f47533030300000000000000000000000000000000000000000000000000000006000830152602082019050919050565b60006150b8600583615f64565b91507f47533031310000000000000000000000000000000000000000000000000000006000830152602082019050919050565b60006150f8600583615f64565b91507f47533030320000000000000000000000000000000000000000000000000000006000830152602082019050919050565b6000615138600583615f64565b91507f47533032370000000000000000000000000000000000000000000000000000006000830152602082019050919050565b6000615178600583615f64565b91507f47533130330000000000000000000000000000000000000000000000000000006000830152602082019050919050565b60006151b8600583615f64565b91507f47533031320000000000000000000000000000000000000000000000000000006000830152602082019050919050565b60006151f8600583615f64565b91507f47533130300000000000000000000000000000000000000000000000000000006000830152602082019050919050565b6000615238600583615f64565b91507f47533030310000000000000000000000000000000000000000000000000000006000830152602082019050919050565b6000615278600583615f64565b91507f47533031330000000000000000000000000000000000000000000000000000006000830152602082019050919050565b60006152b8600583615f64565b91507f47533031300000000000000000000000000000000000000000000000000000006000830152602082019050919050565b60006152f8600583615f64565b91507f47533230320000000000000000000000000000000000000000000000000000006000830152602082019050919050565b6000615338600583615f64565b91507f47533130340000000000000000000000000000000000000000000000000000006000830152602082019050919050565b6000615378600583615f64565b91507f47533033310000000000000000000000000000000000000000000000000000006000830152602082019050919050565b60006153b8600583615f64565b91507f47533032350000000000000000000000000000000000000000000000000000006000830152602082019050919050565b60006153f8600583615f64565b91507f47533230340000000000000000000000000000000000000000000000000000006000830152602082019050919050565b6000615438600583615f64565b91507f47533130320000000000000000000000000000000000000000000000000000006000830152602082019050919050565b6000615478600583615f64565b91507f47533330300000000000000000000000000000000000000000000000000000006000830152602082019050919050565b60006154b8600583615f64565b91507f47533032310000000000000000000000000000000000000000000000000000006000830152602082019050919050565b60006154f8600583615f64565b91507f47533130310000000000000000000000000000000000000000000000000000006000830152602082019050919050565b6000615538600583615f64565b91507f47533032300000000000000000000000000000000000000000000000000000006000830152602082019050919050565b6000615578600583615f64565b91507f47533430300000000000000000000000000000000000000000000000000000006000830152602082019050919050565b60006155b8600583615f64565b91507f47533230350000000000000000000000000000000000000000000000000000006000830152602082019050919050565b6155f4816161a5565b82525050565b615603816161af565b82525050565b60006156158287614c7d565b6001820191506156258286614c7d565b6001820191506156358285614ca3565b6020820191506156458284614ca3565b60208201915081905095945050505050565b6000615664828486614cf6565b91508190509392505050565b600061567b82614e2b565b91506156878284614ca3565b60208201915081905092915050565b60006040820190506156ab6000830185614ba4565b6156b860208301846155eb565b9392505050565b6000610160820190506156d5600083018f614ba4565b6156e2602083018e6155eb565b81810360408301526156f5818c8e614cc9565b9050615704606083018b614d63565b615711608083018a6155eb565b61571e60a08301896155eb565b61572b60c08301886155eb565b61573860e0830187614ba4565b615746610100830186614b86565b8181036101208301526157598185614d1b565b9050615769610140830184614ba4565b9d9c50505050505050505050505050565b60006080820190508181036000830152615795818789614bb3565b90506157a460208301866155eb565b6157b16040830185614ba4565b6157be6060830184614ba4565b9695505050505050565b600060208201905081810360008301526157e28184614c10565b905092915050565b600060408201905081810360008301526158048185614c10565b90506158136020830184614ba4565b9392505050565b600060208201905061582f6000830184614c6e565b92915050565b600060408201905061584a6000830185614c6e565b818103602083015261585c8184614d1b565b90509392505050565b600060208201905061587a6000830184614c94565b92915050565b600061016082019050615896600083018e614c94565b6158a3602083018d614ba4565b6158b0604083018c6155eb565b6158bd606083018b614c94565b6158ca608083018a614d63565b6158d760a08301896155eb565b6158e460c08301886155eb565b6158f160e08301876155eb565b6158ff610100830186614ba4565b61590d610120830185614ba4565b61591b6101408301846155eb565b9c9b505050505050505050505050565b60006040820190506159406000830185614c94565b61594d6020830184614c6e565b9392505050565b60006060820190506159696000830186614c94565b61597660208301856155eb565b6159836040830184614d54565b949350505050565b60006080820190506159a06000830187614c94565b6159ad60208301866155fa565b6159ba6040830185614c94565b6159c76060830184614c94565b95945050505050565b60006020820190506159e56000830184614cba565b92915050565b60006020820190508181036000830152615a058184614d1b565b905092915050565b60006040820190508181036000830152615a278185614d1b565b90508181036020830152615a3b8184614d1b565b90509392505050565b60006020820190508181036000830152615a5e8184614d72565b905092915050565b60006020820190508181036000830152615a7f81614dab565b9050919050565b60006020820190508181036000830152615a9f81614deb565b9050919050565b60006020820190508181036000830152615abf81614e6b565b9050919050565b60006020820190508181036000830152615adf81614eab565b9050919050565b60006020820190508181036000830152615aff81614eeb565b9050919050565b60006020820190508181036000830152615b1f81614f2b565b9050919050565b60006020820190508181036000830152615b3f81614f6b565b9050919050565b60006020820190508181036000830152615b5f81614fab565b9050919050565b60006020820190508181036000830152615b7f81614feb565b9050919050565b60006020820190508181036000830152615b9f8161502b565b9050919050565b60006020820190508181036000830152615bbf8161506b565b9050919050565b60006020820190508181036000830152615bdf816150ab565b9050919050565b60006020820190508181036000830152615bff816150eb565b9050919050565b60006020820190508181036000830152615c1f8161512b565b9050919050565b60006020820190508181036000830152615c3f8161516b565b9050919050565b60006020820190508181036000830152615c5f816151ab565b9050919050565b60006020820190508181036000830152615c7f816151eb565b9050919050565b60006020820190508181036000830152615c9f8161522b565b9050919050565b60006020820190508181036000830152615cbf8161526b565b9050919050565b60006020820190508181036000830152615cdf816152ab565b9050919050565b60006020820190508181036000830152615cff816152eb565b9050919050565b60006020820190508181036000830152615d1f8161532b565b9050919050565b60006020820190508181036000830152615d3f8161536b565b9050919050565b60006020820190508181036000830152615d5f816153ab565b9050919050565b60006020820190508181036000830152615d7f816153eb565b9050919050565b60006020820190508181036000830152615d9f8161542b565b9050919050565b60006020820190508181036000830152615dbf8161546b565b9050919050565b60006020820190508181036000830152615ddf816154ab565b9050919050565b60006020820190508181036000830152615dff816154eb565b9050919050565b60006020820190508181036000830152615e1f8161552b565b9050919050565b60006020820190508181036000830152615e3f8161556b565b9050919050565b60006020820190508181036000830152615e5f816155ab565b9050919050565b6000602082019050615e7b60008301846155eb565b92915050565b6000604051905081810181811067ffffffffffffffff82111715615ea857615ea7616348565b5b8060405250919050565b600067ffffffffffffffff821115615ecd57615ecc616348565b5b601f19601f8301169050602081019050919050565b6000819050919050565b6000819050602082019050919050565b600081519050919050565b600081519050919050565b600081519050919050565b6000602082019050919050565b6000602082019050919050565b600082825260208201905092915050565b600082825260208201905092915050565b600081905092915050565b600082825260208201905092915050565b600081905092915050565b6000615f8f60208401846142ee565b905092915050565b6000615fa2826161a5565b9150615fad836161a5565b9250827fffffffffffffffffffffffffffffffffffffffffffffffffffffffffffffffff03821115615fe257615fe16162bb565b5b828201905092915050565b6000615ff8826161a5565b9150616003836161a5565b925082616013576160126162ea565b5b828204905092915050565b6000616029826161a5565b9150616034836161a5565b9250817fffffffffffffffffffffffffffffffffffffffffffffffffffffffffffffffff048311821515161561606d5761606c6162bb565b5b828202905092915050565b6000616083826161a5565b915061608e836161a5565b9250828210156160a1576160a06162bb565b5b828203905092915050565b60006160b7826161af565b91506160c2836161af565b9250828210156160d5576160d46162bb565b5b828203905092915050565b60006160eb82616185565b9050919050565b60006160fd82616185565b9050919050565b60008115159050919050565b60007fff0000000000000000000000000000000000000000000000000000000000000082169050919050565b6000819050919050565b60007fffffffff0000000000000000000000000000000000000000000000000000000082169050919050565b600081905061618082616388565b919050565b600073ffffffffffffffffffffffffffffffffffffffff82169050919050565b6000819050919050565b600060ff82169050919050565b60006161c7826161ce565b9050919050565b60006161d982616185565b9050919050565b60006161eb82616172565b9050919050565b82818337600083830152505050565b60005b8381101561621f578082015181840152602081019050616204565b8381111561622e576000848401525b50505050565b600061623f826161a5565b91506000821415616253576162526162bb565b5b600182039050919050565b6000616269826161a5565b91507fffffffffffffffffffffffffffffffffffffffffffffffffffffffffffffffff82141561629c5761629b6162bb565b5b600182019050919050565b6000819050919050565b6000819050919050565b7f4e487b7100000000000000000000000000000000000000000000000000000000600052601160045260246000fd5b7f4e487b7100000000000000000000000000000000000000000000000000000000600052601260045260246000fd5b7f4e487b7100000000000000000000000000000000000000000000000000000000600052602160045260246000fd5b7f4e487b7100000000000000000000000000000000000000000000000000000000600052604160045260246000fd5b6000601f19601f8301169050919050565b6002811061639957616398616319565b5b50565b6163a5816160e0565b81146163b057600080fd5b50565b6163bc816160f2565b81146163c757600080fd5b50565b6163d381616104565b81146163de57600080fd5b50565b6163ea8161613c565b81146163f557600080fd5b50565b61640181616146565b811461640c57600080fd5b50565b6002811061641c57600080fd5b50565b616428816161a5565b811461643357600080fd5b5056fea26469706673582212201add80d9141d6e6800f5dfeedd9175ba6136b57f5a2375b0b8ec3ad28bee49e764736f6c63430008000033",
  "linkReferences": {},
  "deployedLinkReferences": {}
}