{
  "_format": "hh-sol-artifact-1",
  "contractName": "TokenCallbackHandler_SV1_4_1",
  "sourceName": "contracts/Deps_V1_4_1.sol",
  "abi": [
    {
      "inputs": [
        {
          "internalType": "address",
          "name": "",
          "type": "address"
        },
        {
          "internalType": "address",
          "name": "",
          "type": "address"
        },
        {
          "internalType": "uint256[]",
          "name": "",
          "type": "uint256[]"
        },
        {
          "internalType": "uint256[]",
          "name": "",
          "type": "uint256[]"
        },
        {
          "internalType": "bytes",
          "name": "",
          "type": "bytes"
        }
      ],
      "name": "onERC1155BatchReceived",
      "outputs": [
        {
          "internalType": "bytes4",
          "name": "",
          "type": "bytes4"
        }
      ],
      "stateMutability": "pure",
      "type": "function"
    },
    {
      "inputs": [
        {
          "internalType": "address",
          "name": "",
          "type": "address"
        },
        {
          "internalType": "address",
          "name": "",
          "type": "address"
        },
        {
          "internalType": "uint256",
          "name": "",
          "type": "uint256"
        },
        {
          "internalType": "uint256",
          "name": "",
          "type": "uint256"
        },
        {
          "internalType": "bytes",
          "name": "",
          "type": "bytes"
        }
      ],
      "name": "onERC1155Received",
      "outputs": [
        {
          "internalType": "bytes4",
          "name": "",
          "type": "bytes4"
        }
      ],
      "stateMutability": "pure",
      "type": "function"
    },
    {
      "inputs": [
        {
          "internalType": "address",
          "name": "",
          "type": "address"
        },
        {
          "internalType": "address",
          "name": "",
          "type": "address"
        },
        {
          "internalType": "uint256",
          "name": "",
          "type": "uint256"
        },
        {
          "internalType": "bytes",
          "name": "",
          "type": "bytes"
        }
      ],
      "name": "onERC721Received",
      "outputs": [
        {
          "internalType": "bytes4",
          "name": "",
          "type": "bytes4"
        }
      ],
      "stateMutability": "pure",
      "type": "function"
    },
    {
      "inputs": [
        {
          "internalType": "bytes4",
          "name": "interfaceId",
          "type": "bytes4"
        }
      ],
      "name": "supportsInterface",
      "outputs": [
        {
          "internalType": "bool",
          "name": "",
          "type": "bool"
        }
      ],
      "stateMutability": "view",
      "type": "function"
    },
    {
      "inputs": [
        {
          "internalType": "address",
          "name": "",
          "type": "address"
        },
        {
          "internalType": "address",
          "name": "",
          "type": "address"
        },
        {
          "internalType": "address",
          "name": "",
          "type": "address"
        },
        {
          "internalType": "uint256",
          "name": "",
          "type": "uint256"
        },
        {
          "internalType": "bytes",
          "name": "",
          "type": "bytes"
        },
        {
          "internalType": "bytes",
          "name": "",
          "type": "bytes"
        }
      ],
      "name": "tokensReceived",
      "outputs": [],
      "stateMutability": "pure",
      "type": "function"
    }
  ],
  "bytecode": "0x608060405234801561001057600080fd5b5061079e806100206000396000f3fe608060405234801561001057600080fd5b50600436106100565760003560e01c806223de291461005b57806301ffc9a714610077578063150b7a02146100a7578063bc197c81146100d7578063f23a6e6114610107575b600080fd5b61007560048036038101906100709190610391565b610137565b005b610091600480360381019061008c9190610632565b610141565b60405161009e9190610679565b60405180910390f35b6100c160048036038101906100bc9190610520565b61027b565b6040516100ce9190610694565b60405180910390f35b6100f160048036038101906100ec9190610454565b610290565b6040516100fe9190610694565b60405180910390f35b610121600480360381019061011c91906105a0565b6102a8565b60405161012e9190610694565b60405180910390f35b5050505050505050565b60007f4e2312e0000000000000000000000000000000000000000000000000000000007bffffffffffffffffffffffffffffffffffffffffffffffffffffffff1916827bffffffffffffffffffffffffffffffffffffffffffffffffffffffff1916148061020c57507f150b7a02000000000000000000000000000000000000000000000000000000007bffffffffffffffffffffffffffffffffffffffffffffffffffffffff1916827bffffffffffffffffffffffffffffffffffffffffffffffffffffffff1916145b8061027457507f01ffc9a7000000000000000000000000000000000000000000000000000000007bffffffffffffffffffffffffffffffffffffffffffffffffffffffff1916827bffffffffffffffffffffffffffffffffffffffffffffffffffffffff1916145b9050919050565b600063150b7a0260e01b905095945050505050565b600063bc197c8160e01b905098975050505050505050565b600063f23a6e6160e01b90509695505050505050565b6000813590506102cd81610723565b92915050565b60008083601f8401126102e557600080fd5b8235905067ffffffffffffffff8111156102fe57600080fd5b60208301915083602082028301111561031657600080fd5b9250929050565b60008135905061032c8161073a565b92915050565b60008083601f84011261034457600080fd5b8235905067ffffffffffffffff81111561035d57600080fd5b60208301915083600182028301111561037557600080fd5b9250929050565b60008135905061038b81610751565b92915050565b60008060008060008060008060c0898b0312156103ad57600080fd5b60006103bb8b828c016102be565b98505060206103cc8b828c016102be565b97505060406103dd8b828c016102be565b96505060606103ee8b828c0161037c565b955050608089013567ffffffffffffffff81111561040b57600080fd5b6104178b828c01610332565b945094505060a089013567ffffffffffffffff81111561043657600080fd5b6104428b828c01610332565b92509250509295985092959890939650565b60008060008060008060008060a0898b03121561047057600080fd5b600061047e8b828c016102be565b985050602061048f8b828c016102be565b975050604089013567ffffffffffffffff8111156104ac57600080fd5b6104b88b828c016102d3565b9650965050606089013567ffffffffffffffff8111156104d757600080fd5b6104e38b828c016102d3565b9450945050608089013567ffffffffffffffff81111561050257600080fd5b61050e8b828c01610332565b92509250509295985092959890939650565b60008060008060006080868803121561053857600080fd5b6000610546888289016102be565b9550506020610557888289016102be565b94505060406105688882890161037c565b935050606086013567ffffffffffffffff81111561058557600080fd5b61059188828901610332565b92509250509295509295909350565b60008060008060008060a087890312156105b957600080fd5b60006105c789828a016102be565b96505060206105d889828a016102be565b95505060406105e989828a0161037c565b94505060606105fa89828a0161037c565b935050608087013567ffffffffffffffff81111561061757600080fd5b61062389828a01610332565b92509250509295509295509295565b60006020828403121561064457600080fd5b60006106528482850161031d565b91505092915050565b610664816106c1565b82525050565b610673816106cd565b82525050565b600060208201905061068e600083018461065b565b92915050565b60006020820190506106a9600083018461066a565b92915050565b60006106ba826106f9565b9050919050565b60008115159050919050565b60007fffffffff0000000000000000000000000000000000000000000000000000000082169050919050565b600073ffffffffffffffffffffffffffffffffffffffff82169050919050565b6000819050919050565b61072c816106af565b811461073757600080fd5b50565b610743816106cd565b811461074e57600080fd5b50565b61075a81610719565b811461076557600080fd5b5056fea2646970667358221220d36a3ca81bd28782ae8ee667f3ecb5ae1ba526a52e225b315a49775dbf572d0564736f6c63430008000033",
  "linkReferences": {},
  "deployedLinkReferences": {}
}