{
  "_format": "hh-sol-artifact-1",
  "contractName": "FallbackManager",
  "sourceName": "@gnosis.pm/safe-contracts-v1.3.0/contracts/base/FallbackManager.sol",
  "abi": [
    {
      "anonymous": false,
      "inputs": [
        {
          "indexed": false,
          "internalType": "address",
          "name": "handler",
          "type": "address"
        }
      ],
      "name": "ChangedFallbackHandler",
      "type": "event"
    },
    {
      "stateMutability": "nonpayable",
      "type": "fallback"
    },
    {
      "inputs": [
        {
          "internalType": "address",
          "name": "handler",
          "type": "address"
        }
      ],
      "name": "setFallbackHandler",
      "outputs": [],
      "stateMutability": "nonpayable",
      "type": "function"
    }
  ],
  "bytecode": "0x608060405234801561001057600080fd5b506102ee806100206000396000f3fe608060405234801561001057600080fd5b506004361061002f5760003560e01c8063f08a03231461009057610030565b5b60007f6c9a6c4a39284e37ed1cf53d337577d14212a4870fb976a4366c693b939918d560001b905080548061006457600080f35b36600080373360601b365260008060143601600080855af13d6000803e8061008b573d6000fd5b3d6000f35b6100aa60048036038101906100a591906101ab565b6100ac565b005b6100b46100f7565b6100bd81610167565b7f5ac6c46c93c8d0e53714ba3b53db3e7c046da994313d7ed0d192028bc7c228b0816040516100ec9190610223565b60405180910390a150565b3073ffffffffffffffffffffffffffffffffffffffff163373ffffffffffffffffffffffffffffffffffffffff1614610165576040517f08c379a000000000000000000000000000000000000000000000000000000000815260040161015c9061023e565b60405180910390fd5b565b60007f6c9a6c4a39284e37ed1cf53d337577d14212a4870fb976a4366c693b939918d560001b90508181555050565b6000813590506101a5816102a1565b92915050565b6000602082840312156101bd57600080fd5b60006101cb84828501610196565b91505092915050565b6101dd8161026f565b82525050565b60006101f060058361025e565b91507f47533033310000000000000000000000000000000000000000000000000000006000830152602082019050919050565b600060208201905061023860008301846101d4565b92915050565b60006020820190508181036000830152610257816101e3565b9050919050565b600082825260208201905092915050565b600061027a82610281565b9050919050565b600073ffffffffffffffffffffffffffffffffffffffff82169050919050565b6102aa8161026f565b81146102b557600080fd5b5056fea26469706673582212201b2bbea3d17d86af4fe15f1ea12c3c3515854f809b38ee27cd765f1aaba3cc0b64736f6c63430008000033",
  "linkReferences": {},
  "deployedLinkReferences": {}
}