{
  "_format": "hh-sol-artifact-1",
  "contractName": "GuardManager",
  "sourceName": "@gnosis.pm/safe-contracts-v1.3.0/contracts/base/GuardManager.sol",
  "abi": [
    {
      "anonymous": false,
      "inputs": [
        {
          "indexed": false,
          "internalType": "address",
          "name": "guard",
          "type": "address"
        }
      ],
      "name": "ChangedGuard",
      "type": "event"
    },
    {
      "inputs": [
        {
          "internalType": "address",
          "name": "guard",
          "type": "address"
        }
      ],
      "name": "setGuard",
      "outputs": [],
      "stateMutability": "nonpayable",
      "type": "function"
    }
  ],
  "bytecode": "0x608060405234801561001057600080fd5b50610282806100206000396000f3fe608060405234801561001057600080fd5b506004361061002b5760003560e01c8063e19a9dd914610030575b600080fd5b61004a6004803603810190610045919061013f565b61004c565b005b6100546100ba565b60007f4a204f620c8c5ccdca3fd54d003badd85ba500436a431f0cbda4f558c93c34c860001b90508181557f1151116914515bc0891ff9047a6cb32cf902546f83066499bcf8ba33d2353fa2826040516100ae91906101b7565b60405180910390a15050565b3073ffffffffffffffffffffffffffffffffffffffff163373ffffffffffffffffffffffffffffffffffffffff1614610128576040517f08c379a000000000000000000000000000000000000000000000000000000000815260040161011f906101d2565b60405180910390fd5b565b60008135905061013981610235565b92915050565b60006020828403121561015157600080fd5b600061015f8482850161012a565b91505092915050565b61017181610203565b82525050565b60006101846005836101f2565b91507f47533033310000000000000000000000000000000000000000000000000000006000830152602082019050919050565b60006020820190506101cc6000830184610168565b92915050565b600060208201905081810360008301526101eb81610177565b9050919050565b600082825260208201905092915050565b600061020e82610215565b9050919050565b600073ffffffffffffffffffffffffffffffffffffffff82169050919050565b61023e81610203565b811461024957600080fd5b5056fea2646970667358221220b566563086362b651de6755d792147a9e817bbd46dcfc93ada3b2782149e4fa964736f6c63430008000033",
  "linkReferences": {},
  "deployedLinkReferences": {}
}