{
  "_format": "hh-sol-artifact-1",
  "contractName": "CreateCall_SV1_3_0",
  "sourceName": "contracts/Deps_V1_3_0.sol",
  "abi": [
    {
      "anonymous": false,
      "inputs": [
        {
          "indexed": false,
          "internalType": "address",
          "name": "newContract",
          "type": "address"
        }
      ],
      "name": "ContractCreation",
      "type": "event"
    },
    {
      "inputs": [
        {
          "internalType": "uint256",
          "name": "value",
          "type": "uint256"
        },
        {
          "internalType": "bytes",
          "name": "deploymentData",
          "type": "bytes"
        }
      ],
      "name": "performCreate",
      "outputs": [
        {
          "internalType": "address",
          "name": "newContract",
          "type": "address"
        }
      ],
      "stateMutability": "nonpayable",
      "type": "function"
    },
    {
      "inputs": [
        {
          "internalType": "uint256",
          "name": "value",
          "type": "uint256"
        },
        {
          "internalType": "bytes",
          "name": "deploymentData",
          "type": "bytes"
        },
        {
          "internalType": "bytes32",
          "name": "salt",
          "type": "bytes32"
        }
      ],
      "name": "performCreate2",
      "outputs": [
        {
          "internalType": "address",
          "name": "newContract",
          "type": "address"
        }
      ],
      "stateMutability": "nonpayable",
      "type": "function"
    }
  ],
  "bytecode": "0x608060405234801561001057600080fd5b50610540806100206000396000f3fe608060405234801561001057600080fd5b50600436106100365760003560e01c80634847be6f1461003b5780634c8c9ea11461006b575b600080fd5b610055600480360381019061005091906102f5565b61009b565b60405161006291906103ab565b60405180910390f35b610085600480360381019061008091906102a1565b610156565b60405161009291906103ab565b60405180910390f35b60008183518460200186f59050600073ffffffffffffffffffffffffffffffffffffffff168173ffffffffffffffffffffffffffffffffffffffff161415610118576040517f08c379a000000000000000000000000000000000000000000000000000000000815260040161010f906103c6565b60405180910390fd5b7f4db17dd5e4732fb6da34a148104a592783ca119a1e7bb8829eba6cbadef0b5118160405161014791906103ab565b60405180910390a19392505050565b600081516020830184f09050600073ffffffffffffffffffffffffffffffffffffffff168173ffffffffffffffffffffffffffffffffffffffff1614156101d2576040517f08c379a00000000000000000000000000000000000000000000000000000000081526004016101c9906103c6565b60405180910390fd5b7f4db17dd5e4732fb6da34a148104a592783ca119a1e7bb8829eba6cbadef0b5118160405161020191906103ab565b60405180910390a192915050565b600061022261021d84610417565b6103e6565b90508281526020810184848401111561023a57600080fd5b61024584828561049e565b509392505050565b60008135905061025c816104dc565b92915050565b600082601f83011261027357600080fd5b813561028384826020860161020f565b91505092915050565b60008135905061029b816104f3565b92915050565b600080604083850312156102b457600080fd5b60006102c28582860161028c565b925050602083013567ffffffffffffffff8111156102df57600080fd5b6102eb85828601610262565b9150509250929050565b60008060006060848603121561030a57600080fd5b60006103188682870161028c565b935050602084013567ffffffffffffffff81111561033557600080fd5b61034186828701610262565b92505060406103528682870161024d565b9150509250925092565b61036581610458565b82525050565b6000610378601983610447565b91507f436f756c64206e6f74206465706c6f7920636f6e7472616374000000000000006000830152602082019050919050565b60006020820190506103c0600083018461035c565b92915050565b600060208201905081810360008301526103df8161036b565b9050919050565b6000604051905081810181811067ffffffffffffffff8211171561040d5761040c6104ad565b5b8060405250919050565b600067ffffffffffffffff821115610432576104316104ad565b5b601f19601f8301169050602081019050919050565b600082825260208201905092915050565b600061046382610474565b9050919050565b6000819050919050565b600073ffffffffffffffffffffffffffffffffffffffff82169050919050565b6000819050919050565b82818337600083830152505050565b7f4e487b7100000000000000000000000000000000000000000000000000000000600052604160045260246000fd5b6104e58161046a565b81146104f057600080fd5b50565b6104fc81610494565b811461050757600080fd5b5056fea2646970667358221220eea40af5c54b072bb9dee0d007e409ee35c2c9d0add3b272f9f7175229d5158a64736f6c63430008000033",
  "linkReferences": {},
  "deployedLinkReferences": {}
}