{
  "_format": "hh-sol-artifact-1",
  "contractName": "DebugTransactionGuard_SV1_3_0",
  "sourceName": "contracts/Deps_V1_3_0.sol",
  "abi": [
    {
      "anonymous": false,
      "inputs": [
        {
          "indexed": true,
          "internalType": "address",
          "name": "safe",
          "type": "address"
        },
        {
          "indexed": true,
          "internalType": "bytes32",
          "name": "txHash",
          "type": "bytes32"
        },
        {
          "indexed": true,
          "internalType": "uint256",
          "name": "nonce",
          "type": "uint256"
        },
        {
          "indexed": false,
          "internalType": "bool",
          "name": "success",
          "type": "bool"
        }
      ],
      "name": "GasUsage",
      "type": "event"
    },
    {
      "anonymous": false,
      "inputs": [
        {
          "indexed": true,
          "internalType": "address",
          "name": "safe",
          "type": "address"
        },
        {
          "indexed": true,
          "internalType": "bytes32",
          "name": "txHash",
          "type": "bytes32"
        },
        {
          "indexed": false,
          "internalType": "address",
          "name": "to",
          "type": "address"
        },
        {
          "indexed": false,
          "internalType": "uint256",
          "name": "value",
          "type": "uint256"
        },
        {
          "indexed": false,
          "internalType": "bytes",
          "name": "data",
          "type": "bytes"
        },
        {
          "indexed": false,
          "internalType": "enum Enum.Operation",
          "name": "operation",
          "type": "uint8"
        },
        {
          "indexed": false,
          "internalType": "uint256",
          "name": "safeTxGas",
          "type": "uint256"
        },
        {
          "indexed": false,
          "internalType": "bool",
          "name": "usesRefund",
          "type": "bool"
        },
        {
          "indexed": false,
          "internalType": "uint256",
          "name": "nonce",
          "type": "uint256"
        }
      ],
      "name": "TransactionDetails",
      "type": "event"
    },
    {
      "stateMutability": "nonpayable",
      "type": "fallback"
    },
    {
      "inputs": [
        {
          "internalType": "bytes32",
          "name": "txHash",
          "type": "bytes32"
        },
        {
          "internalType": "bool",
          "name": "success",
          "type": "bool"
        }
      ],
      "name": "checkAfterExecution",
      "outputs": [],
      "stateMutability": "nonpayable",
      "type": "function"
    },
    {
      "inputs": [
        {
          "internalType": "address",
          "name": "to",
          "type": "address"
        },
        {
          "internalType": "uint256",
          "name": "value",
          "type": "uint256"
        },
        {
          "internalType": "bytes",
          "name": "data",
          "type": "bytes"
        },
        {
          "internalType": "enum Enum.Operation",
          "name": "operation",
          "type": "uint8"
        },
        {
          "internalType": "uint256",
          "name": "safeTxGas",
          "type": "uint256"
        },
        {
          "internalType": "uint256",
          "name": "baseGas",
          "type": "uint256"
        },
        {
          "internalType": "uint256",
          "name": "gasPrice",
          "type": "uint256"
        },
        {
          "internalType": "address",
          "name": "gasToken",
          "type": "address"
        },
        {
          "internalType": "address payable",
          "name": "refundReceiver",
          "type": "address"
        },
        {
          "internalType": "bytes",
          "name": "",
          "type": "bytes"
        },
        {
          "internalType": "address",
          "name": "",
          "type": "address"
        }
      ],
      "name": "checkTransaction",
      "outputs": [],
      "stateMutability": "nonpayable",
      "type": "function"
    },
    {
      "inputs": [
        {
          "internalType": "bytes32",
          "name": "",
          "type": "bytes32"
        }
      ],
      "name": "txNonces",
      "outputs": [
        {
          "internalType": "uint256",
          "name": "",
          "type": "uint256"
        }
      ],
      "stateMutability": "view",
      "type": "function"
    }
  ],
  "bytecode": "0x608060405234801561001057600080fd5b50610b8e806100206000396000f3fe608060405234801561001057600080fd5b50600436106100455760003560e01c806375f0bb52146100485780639327136814610064578063ddbdba631461008057610046565b5b005b610062600480360381019061005d9190610456565b6100b0565b005b61007e600480360381019061007991906105c8565b610266565b005b61009a60048036038101906100959190610576565b61032e565b6040516100a79190610845565b60405180910390f35b600080600033905060018173ffffffffffffffffffffffffffffffffffffffff1663affed0e06040518163ffffffff1660e01b815260040160206040518083038186803b15801561010057600080fd5b505afa158015610114573d6000803e3d6000fd5b505050506040513d601f19601f820116820180604052508101906101389190610604565b61014291906108ee565b92508073ffffffffffffffffffffffffffffffffffffffff1663d8d11f788f8f8f8f8f8f8f8f8f8d6040518b63ffffffff1660e01b815260040161018f9a99989796959493929190610767565b60206040518083038186803b1580156101a757600080fd5b505afa1580156101bb573d6000803e3d6000fd5b505050506040513d601f19601f820116820180604052508101906101df919061059f565b915050803373ffffffffffffffffffffffffffffffffffffffff167f1b68334da83afaffd8348d6c85c5146d8e7de31a6c034d2d522be12d615c4f7b8f8f8f8f8f60008f118a60405161023897969594939291906106f1565b60405180910390a3816000808381526020019081526020016000208190555050505050505050505050505050565b600080600084815260200190815260200160002054905060008114156102c1576040517f08c379a00000000000000000000000000000000000000000000000000000000081526004016102b890610825565b60405180910390fd5b60008060008581526020019081526020016000208190555080833373ffffffffffffffffffffffffffffffffffffffff167f0dcc0fb56a30b6fe6b188f45b47369bc7f3c928a9748e245a79fc3f54ddd056885604051610321919061080a565b60405180910390a4505050565b60006020528060005260406000206000915090505481565b600061035961035484610891565b610860565b90508281526020810184848401111561037157600080fd5b61037c8482856109e1565b509392505050565b60008135905061039381610ad5565b92915050565b6000813590506103a881610aec565b92915050565b6000813590506103bd81610b03565b92915050565b6000813590506103d281610b1a565b92915050565b6000815190506103e781610b1a565b92915050565b600082601f8301126103fe57600080fd5b813561040e848260208601610346565b91505092915050565b60008135905061042681610b31565b92915050565b60008135905061043b81610b41565b92915050565b60008151905061045081610b41565b92915050565b60008060008060008060008060008060006101608c8e03121561047857600080fd5b60006104868e828f01610384565b9b505060206104978e828f0161042c565b9a505060408c013567ffffffffffffffff8111156104b457600080fd5b6104c08e828f016103ed565b99505060606104d18e828f01610417565b98505060806104e28e828f0161042c565b97505060a06104f38e828f0161042c565b96505060c06105048e828f0161042c565b95505060e06105158e828f01610384565b9450506101006105278e828f01610399565b9350506101208c013567ffffffffffffffff81111561054557600080fd5b6105518e828f016103ed565b9250506101406105638e828f01610384565b9150509295989b509295989b9093969950565b60006020828403121561058857600080fd5b6000610596848285016103c3565b91505092915050565b6000602082840312156105b157600080fd5b60006105bf848285016103d8565b91505092915050565b600080604083850312156105db57600080fd5b60006105e9858286016103c3565b92505060206105fa858286016103ae565b9150509250929050565b60006020828403121561061657600080fd5b600061062484828501610441565b91505092915050565b61063681610999565b82525050565b61064581610922565b82525050565b61065481610946565b82525050565b6000610665826108c1565b61066f81856108cc565b935061067f8185602086016109f0565b61068881610ab0565b840191505092915050565b61069c816109ab565b82525050565b60006106af6013836108dd565b91507f436f756c64206e6f7420676574206e6f6e6365000000000000000000000000006000830152602082019050919050565b6106eb8161098f565b82525050565b600060e082019050610706600083018a61063c565b61071360208301896106e2565b8181036040830152610725818861065a565b90506107346060830187610693565b61074160808301866106e2565b61074e60a083018561064b565b61075b60c08301846106e2565b98975050505050505050565b60006101408201905061077d600083018d61063c565b61078a602083018c6106e2565b818103604083015261079c818b61065a565b90506107ab606083018a610693565b6107b860808301896106e2565b6107c560a08301886106e2565b6107d260c08301876106e2565b6107df60e083018661063c565b6107ed61010083018561062d565b6107fb6101208301846106e2565b9b9a5050505050505050505050565b600060208201905061081f600083018461064b565b92915050565b6000602082019050818103600083015261083e816106a2565b9050919050565b600060208201905061085a60008301846106e2565b92915050565b6000604051905081810181811067ffffffffffffffff8211171561088757610886610a81565b5b8060405250919050565b600067ffffffffffffffff8211156108ac576108ab610a81565b5b601f19601f8301169050602081019050919050565b600081519050919050565b600082825260208201905092915050565b600082825260208201905092915050565b60006108f98261098f565b91506109048361098f565b92508282101561091757610916610a23565b5b828203905092915050565b600061092d8261096f565b9050919050565b600061093f8261096f565b9050919050565b60008115159050919050565b6000819050919050565b600081905061096a82610ac1565b919050565b600073ffffffffffffffffffffffffffffffffffffffff82169050919050565b6000819050919050565b60006109a4826109bd565b9050919050565b60006109b68261095c565b9050919050565b60006109c8826109cf565b9050919050565b60006109da8261096f565b9050919050565b82818337600083830152505050565b60005b83811015610a0e5780820151818401526020810190506109f3565b83811115610a1d576000848401525b50505050565b7f4e487b7100000000000000000000000000000000000000000000000000000000600052601160045260246000fd5b7f4e487b7100000000000000000000000000000000000000000000000000000000600052602160045260246000fd5b7f4e487b7100000000000000000000000000000000000000000000000000000000600052604160045260246000fd5b6000601f19601f8301169050919050565b60028110610ad257610ad1610a52565b5b50565b610ade81610922565b8114610ae957600080fd5b50565b610af581610934565b8114610b0057600080fd5b50565b610b0c81610946565b8114610b1757600080fd5b50565b610b2381610952565b8114610b2e57600080fd5b50565b60028110610b3e57600080fd5b50565b610b4a8161098f565b8114610b5557600080fd5b5056fea26469706673582212205e10b62ae834155b2ba575c0502725a78650eb3be33f45451fb0da5987ca543464736f6c63430008000033",
  "linkReferences": {},
  "deployedLinkReferences": {}
}