{
  "_format": "hh-sol-artifact-1",
  "contractName": "Safe_SV1_3_0",
  "sourceName": "contracts/Deps_V1_3_0.sol",
  "abi": [
    {
      "anonymous": false,
      "inputs": [
        {
          "indexed": false,
          "internalType": "address",
          "name": "owner",
          "type": "address"
        }
      ],
      "name": "AddedOwner",
      "type": "event"
    },
    {
      "anonymous": false,
      "inputs": [
        {
          "indexed": true,
          "internalType": "bytes32",
          "name": "approvedHash",
          "type": "bytes32"
        },
        {
          "indexed": true,
          "internalType": "address",
          "name": "owner",
          "type": "address"
        }
      ],
      "name": "ApproveHash",
      "type": "event"
    },
    {
      "anonymous": false,
      "inputs": [
        {
          "indexed": false,
          "internalType": "address",
          "name": "handler",
          "type": "address"
        }
      ],
      "name": "ChangedFallbackHandler",
      "type": "event"
    },
    {
      "anonymous": false,
      "inputs": [
        {
          "indexed": false,
          "internalType": "address",
          "name": "guard",
          "type": "address"
        }
      ],
      "name": "ChangedGuard",
      "type": "event"
    },
    {
      "anonymous": false,
      "inputs": [
        {
          "indexed": false,
          "internalType": "uint256",
          "name": "threshold",
          "type": "uint256"
        }
      ],
      "name": "ChangedThreshold",
      "type": "event"
    },
    {
      "anonymous": false,
      "inputs": [
        {
          "indexed": false,
          "internalType": "address",
          "name": "module",
          "type": "address"
        }
      ],
      "name": "DisabledModule",
      "type": "event"
    },
    {
      "anonymous": false,
      "inputs": [
        {
          "indexed": false,
          "internalType": "address",
          "name": "module",
          "type": "address"
        }
      ],
      "name": "EnabledModule",
      "type": "event"
    },
    {
      "anonymous": false,
      "inputs": [
        {
          "indexed": false,
          "internalType": "bytes32",
          "name": "txHash",
          "type": "bytes32"
        },
        {
          "indexed": false,
          "internalType": "uint256",
          "name": "payment",
          "type": "uint256"
        }
      ],
      "name": "ExecutionFailure",
      "type": "event"
    },
    {
      "anonymous": false,
      "inputs": [
        {
          "indexed": true,
          "internalType": "address",
          "name": "module",
          "type": "address"
        }
      ],
      "name": "ExecutionFromModuleFailure",
      "type": "event"
    },
    {
      "anonymous": false,
      "inputs": [
        {
          "indexed": true,
          "internalType": "address",
          "name": "module",
          "type": "address"
        }
      ],
      "name": "ExecutionFromModuleSuccess",
      "type": "event"
    },
    {
      "anonymous": false,
      "inputs": [
        {
          "indexed": false,
          "internalType": "bytes32",
          "name": "txHash",
          "type": "bytes32"
        },
        {
          "indexed": false,
          "internalType": "uint256",
          "name": "payment",
          "type": "uint256"
        }
      ],
      "name": "ExecutionSuccess",
      "type": "event"
    },
    {
      "anonymous": false,
      "inputs": [
        {
          "indexed": false,
          "internalType": "address",
          "name": "owner",
          "type": "address"
        }
      ],
      "name": "RemovedOwner",
      "type": "event"
    },
    {
      "anonymous": false,
      "inputs": [
        {
          "indexed": true,
          "internalType": "address",
          "name": "sender",
          "type": "address"
        },
        {
          "indexed": false,
          "internalType": "uint256",
          "name": "value",
          "type": "uint256"
        }
      ],
      "name": "SafeReceived",
      "type": "event"
    },
    {
      "anonymous": false,
      "inputs": [
        {
          "indexed": true,
          "internalType": "address",
          "name": "initiator",
          "type": "address"
        },
        {
          "indexed": false,
          "internalType": "address[]",
          "name": "owners",
          "type": "address[]"
        },
        {
          "indexed": false,
          "internalType": "uint256",
          "name": "threshold",
          "type": "uint256"
        },
        {
          "indexed": false,
          "internalType": "address",
          "name": "initializer",
          "type": "address"
        },
        {
          "indexed": false,
          "internalType": "address",
          "name": "fallbackHandler",
          "type": "address"
        }
      ],
      "name": "SafeSetup",
      "type": "event"
    },
    {
      "anonymous": false,
      "inputs": [
        {
          "indexed": true,
          "internalType": "bytes32",
          "name": "msgHash",
          "type": "bytes32"
        }
      ],
      "name": "SignMsg",
      "type": "event"
    },
    {
      "stateMutability": "nonpayable",
      "type": "fallback"
    },
    {
      "inputs": [],
      "name": "VERSION",
      "outputs": [
        {
          "internalType": "string",
          "name": "",
          "type": "string"
        }
      ],
      "stateMutability": "view",
      "type": "function"
    },
    {
      "inputs": [
        {
          "internalType": "address",
          "name": "owner",
          "type": "address"
        },
        {
          "internalType": "uint256",
          "name": "_threshold",
          "type": "uint256"
        }
      ],
      "name": "addOwnerWithThreshold",
      "outputs": [],
      "stateMutability": "nonpayable",
      "type": "function"
    },
    {
      "inputs": [
        {
          "internalType": "bytes32",
          "name": "hashToApprove",
          "type": "bytes32"
        }
      ],
      "name": "approveHash",
      "outputs": [],
      "stateMutability": "nonpayable",
      "type": "function"
    },
    {
      "inputs": [
        {
          "internalType": "address",
          "name": "",
          "type": "address"
        },
        {
          "internalType": "bytes32",
          "name": "",
          "type": "bytes32"
        }
      ],
      "name": "approvedHashes",
      "outputs": [
        {
          "internalType": "uint256",
          "name": "",
          "type": "uint256"
        }
      ],
      "stateMutability": "view",
      "type": "function"
    },
    {
      "inputs": [
        {
          "internalType": "uint256",
          "name": "_threshold",
          "type": "uint256"
        }
      ],
      "name": "changeThreshold",
      "outputs": [],
      "stateMutability": "nonpayable",
      "type": "function"
    },
    {
      "inputs": [
        {
          "internalType": "bytes32",
          "name": "dataHash",
          "type": "bytes32"
        },
        {
          "internalType": "bytes",
          "name": "data",
          "type": "bytes"
        },
        {
          "internalType": "bytes",
          "name": "signatures",
          "type": "bytes"
        },
        {
          "internalType": "uint256",
          "name": "requiredSignatures",
          "type": "uint256"
        }
      ],
      "name": "checkNSignatures",
      "outputs": [],
      "stateMutability": "view",
      "type": "function"
    },
    {
      "inputs": [
        {
          "internalType": "bytes32",
          "name": "dataHash",
          "type": "bytes32"
        },
        {
          "internalType": "bytes",
          "name": "data",
          "type": "bytes"
        },
        {
          "internalType": "bytes",
          "name": "signatures",
          "type": "bytes"
        }
      ],
      "name": "checkSignatures",
      "outputs": [],
      "stateMutability": "view",
      "type": "function"
    },
    {
      "inputs": [
        {
          "internalType": "address",
          "name": "prevModule",
          "type": "address"
        },
        {
          "internalType": "address",
          "name": "module",
          "type": "address"
        }
      ],
      "name": "disableModule",
      "outputs": [],
      "stateMutability": "nonpayable",
      "type": "function"
    },
    {
      "inputs": [],
      "name": "domainSeparator",
      "outputs": [
        {
          "internalType": "bytes32",
          "name": "",
          "type": "bytes32"
        }
      ],
      "stateMutability": "view",
      "type": "function"
    },
    {
      "inputs": [
        {
          "internalType": "address",
          "name": "module",
          "type": "address"
        }
      ],
      "name": "enableModule",
      "outputs": [],
      "stateMutability": "nonpayable",
      "type": "function"
    },
    {
      "inputs": [
        {
          "internalType": "address",
          "name": "to",
          "type": "address"
        },
        {
          "internalType": "uint256",
          "name": "value",
          "type": "uint256"
        },
        {
          "internalType": "bytes",
          "name": "data",
          "type": "bytes"
        },
        {
          "internalType": "enum Enum.Operation",
          "name": "operation",
          "type": "uint8"
        },
        {
          "internalType": "uint256",
          "name": "safeTxGas",
          "type": "uint256"
        },
        {
          "internalType": "uint256",
          "name": "baseGas",
          "type": "uint256"
        },
        {
          "internalType": "uint256",
          "name": "gasPrice",
          "type": "uint256"
        },
        {
          "internalType": "address",
          "name": "gasToken",
          "type": "address"
        },
        {
          "internalType": "address",
          "name": "refundReceiver",
          "type": "address"
        },
        {
          "internalType": "uint256",
          "name": "_nonce",
          "type": "uint256"
        }
      ],
      "name": "encodeTransactionData",
      "outputs": [
        {
          "internalType": "bytes",
          "name": "",
          "type": "bytes"
        }
      ],
      "stateMutability": "view",
      "type": "function"
    },
    {
      "inputs": [
        {
          "internalType": "address",
          "name": "to",
          "type": "address"
        },
        {
          "internalType": "uint256",
          "name": "value",
          "type": "uint256"
        },
        {
          "internalType": "bytes",
          "name": "data",
          "type": "bytes"
        },
        {
          "internalType": "enum Enum.Operation",
          "name": "operation",
          "type": "uint8"
        },
        {
          "internalType": "uint256",
          "name": "safeTxGas",
          "type": "uint256"
        },
        {
          "internalType": "uint256",
          "name": "baseGas",
          "type": "uint256"
        },
        {
          "internalType": "uint256",
          "name": "gasPrice",
          "type": "uint256"
        },
        {
          "internalType": "address",
          "name": "gasToken",
          "type": "address"
        },
        {
          "internalType": "address payable",
          "name": "refundReceiver",
          "type": "address"
        },
        {
          "internalType": "bytes",
          "name": "signatures",
          "type": "bytes"
        }
      ],
      "name": "execTransaction",
      "outputs": [
        {
          "internalType": "bool",
          "name": "success",
          "type": "bool"
        }
      ],
      "stateMutability": "payable",
      "type": "function"
    },
    {
      "inputs": [
        {
          "internalType": "address",
          "name": "to",
          "type": "address"
        },
        {
          "internalType": "uint256",
          "name": "value",
          "type": "uint256"
        },
        {
          "internalType": "bytes",
          "name": "data",
          "type": "bytes"
        },
        {
          "internalType": "enum Enum.Operation",
          "name": "operation",
          "type": "uint8"
        }
      ],
      "name": "execTransactionFromModule",
      "outputs": [
        {
          "internalType": "bool",
          "name": "success",
          "type": "bool"
        }
      ],
      "stateMutability": "nonpayable",
      "type": "function"
    },
    {
      "inputs": [
        {
          "internalType": "address",
          "name": "to",
          "type": "address"
        },
        {
          "internalType": "uint256",
          "name": "value",
          "type": "uint256"
        },
        {
          "internalType": "bytes",
          "name": "data",
          "type": "bytes"
        },
        {
          "internalType": "enum Enum.Operation",
          "name": "operation",
          "type": "uint8"
        }
      ],
      "name": "execTransactionFromModuleReturnData",
      "outputs": [
        {
          "internalType": "bool",
          "name": "success",
          "type": "bool"
        },
        {
          "internalType": "bytes",
          "name": "returnData",
          "type": "bytes"
        }
      ],
      "stateMutability": "nonpayable",
      "type": "function"
    },
    {
      "inputs": [],
      "name": "getChainId",
      "outputs": [
        {
          "internalType": "uint256",
          "name": "",
          "type": "uint256"
        }
      ],
      "stateMutability": "view",
      "type": "function"
    },
    {
      "inputs": [
        {
          "internalType": "address",
          "name": "start",
          "type": "address"
        },
        {
          "internalType": "uint256",
          "name": "pageSize",
          "type": "uint256"
        }
      ],
      "name": "getModulesPaginated",
      "outputs": [
        {
          "internalType": "address[]",
          "name": "array",
          "type": "address[]"
        },
        {
          "internalType": "address",
          "name": "next",
          "type": "address"
        }
      ],
      "stateMutability": "view",
      "type": "function"
    },
    {
      "inputs": [],
      "name": "getOwners",
      "outputs": [
        {
          "internalType": "address[]",
          "name": "",
          "type": "address[]"
        }
      ],
      "stateMutability": "view",
      "type": "function"
    },
    {
      "inputs": [
        {
          "internalType": "uint256",
          "name": "offset",
          "type": "uint256"
        },
        {
          "internalType": "uint256",
          "name": "length",
          "type": "uint256"
        }
      ],
      "name": "getStorageAt",
      "outputs": [
        {
          "internalType": "bytes",
          "name": "",
          "type": "bytes"
        }
      ],
      "stateMutability": "view",
      "type": "function"
    },
    {
      "inputs": [],
      "name": "getThreshold",
      "outputs": [
        {
          "internalType": "uint256",
          "name": "",
          "type": "uint256"
        }
      ],
      "stateMutability": "view",
      "type": "function"
    },
    {
      "inputs": [
        {
          "internalType": "address",
          "name": "to",
          "type": "address"
        },
        {
          "internalType": "uint256",
          "name": "value",
          "type": "uint256"
        },
        {
          "internalType": "bytes",
          "name": "data",
          "type": "bytes"
        },
        {
          "internalType": "enum Enum.Operation",
          "name": "operation",
          "type": "uint8"
        },
        {
          "internalType": "uint256",
          "name": "safeTxGas",
          "type": "uint256"
        },
        {
          "internalType": "uint256",
          "name": "baseGas",
          "type": "uint256"
        },
        {
          "internalType": "uint256",
          "name": "gasPrice",
          "type": "uint256"
        },
        {
          "internalType": "address",
          "name": "gasToken",
          "type": "address"
        },
        {
          "internalType": "address",
          "name": "refundReceiver",
          "type": "address"
        },
        {
          "internalType": "uint256",
          "name": "_nonce",
          "type": "uint256"
        }
      ],
      "name": "getTransactionHash",
      "outputs": [
        {
          "internalType": "bytes32",
          "name": "",
          "type": "bytes32"
        }
      ],
      "stateMutability": "view",
      "type": "function"
    },
    {
      "inputs": [
        {
          "internalType": "address",
          "name": "module",
          "type": "address"
        }
      ],
      "name": "isModuleEnabled",
      "outputs": [
        {
          "internalType": "bool",
          "name": "",
          "type": "bool"
        }
      ],
      "stateMutability": "view",
      "type": "function"
    },
    {
      "inputs": [
        {
          "internalType": "address",
          "name": "owner",
          "type": "address"
        }
      ],
      "name": "isOwner",
      "outputs": [
        {
          "internalType": "bool",
          "name": "",
          "type": "bool"
        }
      ],
      "stateMutability": "view",
      "type": "function"
    },
    {
      "inputs": [],
      "name": "nonce",
      "outputs": [
        {
          "internalType": "uint256",
          "name": "",
          "type": "uint256"
        }
      ],
      "stateMutability": "view",
      "type": "function"
    },
    {
      "inputs": [
        {
          "internalType": "address",
          "name": "prevOwner",
          "type": "address"
        },
        {
          "internalType": "address",
          "name": "owner",
          "type": "address"
        },
        {
          "internalType": "uint256",
          "name": "_threshold",
          "type": "uint256"
        }
      ],
      "name": "removeOwner",
      "outputs": [],
      "stateMutability": "nonpayable",
      "type": "function"
    },
    {
      "inputs": [
        {
          "internalType": "address",
          "name": "to",
          "type": "address"
        },
        {
          "internalType": "uint256",
          "name": "value",
          "type": "uint256"
        },
        {
          "internalType": "bytes",
          "name": "data",
          "type": "bytes"
        },
        {
          "internalType": "enum Enum.Operation",
          "name": "operation",
          "type": "uint8"
        }
      ],
      "name": "requiredTxGas",
      "outputs": [
        {
          "internalType": "uint256",
          "name": "",
          "type": "uint256"
        }
      ],
      "stateMutability": "nonpayable",
      "type": "function"
    },
    {
      "inputs": [
        {
          "internalType": "address",
          "name": "handler",
          "type": "address"
        }
      ],
      "name": "setFallbackHandler",
      "outputs": [],
      "stateMutability": "nonpayable",
      "type": "function"
    },
    {
      "inputs": [
        {
          "internalType": "address",
          "name": "guard",
          "type": "address"
        }
      ],
      "name": "setGuard",
      "outputs": [],
      "stateMutability": "nonpayable",
      "type": "function"
    },
    {
      "inputs": [
        {
          "internalType": "address[]",
          "name": "_owners",
          "type": "address[]"
        },
        {
          "internalType": "uint256",
          "name": "_threshold",
          "type": "uint256"
        },
        {
          "internalType": "address",
          "name": "to",
          "type": "address"
        },
        {
          "internalType": "bytes",
          "name": "data",
          "type": "bytes"
        },
        {
          "internalType": "address",
          "name": "fallbackHandler",
          "type": "address"
        },
        {
          "internalType": "address",
          "name": "paymentToken",
          "type": "address"
        },
        {
          "internalType": "uint256",
          "name": "payment",
          "type": "uint256"
        },
        {
          "internalType": "address payable",
          "name": "paymentReceiver",
          "type": "address"
        }
      ],
      "name": "setup",
      "outputs": [],
      "stateMutability": "nonpayable",
      "type": "function"
    },
    {
      "inputs": [
        {
          "internalType": "bytes32",
          "name": "",
          "type": "bytes32"
        }
      ],
      "name": "signedMessages",
      "outputs": [
        {
          "internalType": "uint256",
          "name": "",
          "type": "uint256"
        }
      ],
      "stateMutability": "view",
      "type": "function"
    },
    {
      "inputs": [
        {
          "internalType": "address",
          "name": "targetContract",
          "type": "address"
        },
        {
          "internalType": "bytes",
          "name": "calldataPayload",
          "type": "bytes"
        }
      ],
      "name": "simulateAndRevert",
      "outputs": [],
      "stateMutability": "nonpayable",
      "type": "function"
    },
    {
      "inputs": [
        {
          "internalType": "address",
          "name": "prevOwner",
          "type": "address"
        },
        {
          "internalType": "address",
          "name": "oldOwner",
          "type": "address"
        },
        {
          "internalType": "address",
          "name": "newOwner",
          "type": "address"
        }
      ],
      "name": "swapOwner",
      "outputs": [],
      "stateMutability": "nonpayable",
      "type": "function"
    },
    {
      "stateMutability": "payable",
      "type": "receive"
    }
  ],
  "bytecode": "0x608060405234801561001057600080fd5b506001600481905550615fb280620000296000396000f3fe6080604052600436106101dc5760003560e01c8063affed0e011610102578063e19a9dd911610095578063f08a032311610064578063f08a0323146107de578063f698da2514610807578063f8dc5dd914610832578063ffa1ad741461085b57610231565b8063e19a9dd914610724578063e318b52b1461074d578063e75235b814610776578063e86637db146107a157610231565b8063cc2f8452116100d1578063cc2f845214610657578063d4d9bdcd14610695578063d8d11f78146106be578063e009cfde146106fb57610231565b8063affed0e01461059d578063b4faba09146105c8578063b63e800d146105f1578063c4ca3a9c1461061a57610231565b80635624b25b1161017a5780636a761202116101495780636a761202146104dc5780637d8329741461050c578063934f3a1114610549578063a0e67e2b1461057257610231565b80635624b25b146104105780635ae6bd371461044d578063610b59251461048a578063694e80c3146104b357610231565b80632f54bf6e116101b65780632f54bf6e1461032d5780633408e4701461036a578063468721a7146103955780635229073f146103d257610231565b80630d582f131461029e57806312fb68e0146102c75780632d9ad53d146102f057610231565b36610231573373ffffffffffffffffffffffffffffffffffffffff167f3d0ce9bfc3ed7d6862dbb28b2dea94561fe714a1b4d019aa8af39730d1ad7c3d3460405161022791906159b9565b60405180910390a2005b34801561023d57600080fd5b5060007f6c9a6c4a39284e37ed1cf53d337577d14212a4870fb976a4366c693b939918d560001b905080548061027257600080f35b36600080373360601b365260008060143601600080855af13d6000803e80610299573d6000fd5b3d6000f35b3480156102aa57600080fd5b506102c560048036038101906102c091906142c2565b610886565b005b3480156102d357600080fd5b506102ee60048036038101906102e99190614794565b610c00565b005b3480156102fc57600080fd5b506103176004803603810190610312919061412f565b611207565b604051610324919061541f565b60405180910390f35b34801561033957600080fd5b50610354600480360381019061034f919061412f565b6112d9565b604051610361919061541f565b60405180910390f35b34801561037657600080fd5b5061037f6113ab565b60405161038c91906159b9565b60405180910390f35b3480156103a157600080fd5b506103bc60048036038101906103b79190614586565b6113b8565b6040516103c9919061541f565b60405180910390f35b3480156103de57600080fd5b506103f960048036038101906103f49190614586565b61156b565b60405161040792919061543a565b60405180910390f35b34801561041c57600080fd5b5061043760048036038101906104329190614879565b6115a1565b60405161044491906155fe565b60405180910390f35b34801561045957600080fd5b50610474600480360381019061046f91906146ec565b61165f565b60405161048191906159b9565b60405180910390f35b34801561049657600080fd5b506104b160048036038101906104ac919061412f565b611677565b005b3480156104bf57600080fd5b506104da60048036038101906104d59190614850565b61198d565b005b6104f660048036038101906104f1919061437e565b611a61565b604051610503919061541f565b60405180910390f35b34801561051857600080fd5b50610533600480360381019061052e9190614232565b611e22565b60405161054091906159b9565b60405180910390f35b34801561055557600080fd5b50610570600480360381019061056b9190614715565b611e47565b005b34801561057e57600080fd5b50610587611ea3565b60405161059491906153cd565b60405180910390f35b3480156105a957600080fd5b506105b26120a7565b6040516105bf91906159b9565b60405180910390f35b3480156105d457600080fd5b506105ef60048036038101906105ea919061426e565b6120ad565b005b3480156105fd57600080fd5b5061061860048036038101906106139190614601565b6120cf565b005b34801561062657600080fd5b50610641600480360381019061063c91906142fe565b612222565b60405161064e91906159b9565b60405180910390f35b34801561066357600080fd5b5061067e600480360381019061067991906142c2565b6122ee565b60405161068c9291906153ef565b60405180910390f35b3480156106a157600080fd5b506106bc60048036038101906106b791906146ec565b61253b565b005b3480156106ca57600080fd5b506106e560048036038101906106e0919061448e565b6126a7565b6040516106f2919061546a565b60405180910390f35b34801561070757600080fd5b50610722600480360381019061071d9190614158565b6126d4565b005b34801561073057600080fd5b5061074b6004803603810190610746919061412f565b6129e9565b005b34801561075957600080fd5b50610774600480360381019061076f9190614194565b612a57565b005b34801561078257600080fd5b5061078b612fd1565b60405161079891906159b9565b60405180910390f35b3480156107ad57600080fd5b506107c860048036038101906107c3919061448e565b612fdb565b6040516107d591906155fe565b60405180910390f35b3480156107ea57600080fd5b506108056004803603810190610800919061412f565b61309d565b005b34801561081357600080fd5b5061081c6130e8565b604051610829919061546a565b60405180910390f35b34801561083e57600080fd5b50610859600480360381019061085491906141e3565b613144565b005b34801561086757600080fd5b506108706134d6565b60405161087d9190615657565b60405180910390f35b61088e61350f565b600073ffffffffffffffffffffffffffffffffffffffff168273ffffffffffffffffffffffffffffffffffffffff16141580156108f85750600173ffffffffffffffffffffffffffffffffffffffff168273ffffffffffffffffffffffffffffffffffffffff1614155b801561093057503073ffffffffffffffffffffffffffffffffffffffff168273ffffffffffffffffffffffffffffffffffffffff1614155b61096f576040517f08c379a000000000000000000000000000000000000000000000000000000000815260040161096690615759565b60405180910390fd5b600073ffffffffffffffffffffffffffffffffffffffff16600260008473ffffffffffffffffffffffffffffffffffffffff1673ffffffffffffffffffffffffffffffffffffffff16815260200190815260200160002060009054906101000a900473ffffffffffffffffffffffffffffffffffffffff1673ffffffffffffffffffffffffffffffffffffffff1614610a3d576040517f08c379a0000000000000000000000000000000000000000000000000000000008152600401610a34906158f9565b60405180910390fd5b60026000600173ffffffffffffffffffffffffffffffffffffffff1673ffffffffffffffffffffffffffffffffffffffff16815260200190815260200160002060009054906101000a900473ffffffffffffffffffffffffffffffffffffffff16600260008473ffffffffffffffffffffffffffffffffffffffff1673ffffffffffffffffffffffffffffffffffffffff16815260200190815260200160002060006101000a81548173ffffffffffffffffffffffffffffffffffffffff021916908373ffffffffffffffffffffffffffffffffffffffff1602179055508160026000600173ffffffffffffffffffffffffffffffffffffffff1673ffffffffffffffffffffffffffffffffffffffff16815260200190815260200160002060006101000a81548173ffffffffffffffffffffffffffffffffffffffff021916908373ffffffffffffffffffffffffffffffffffffffff16021790555060036000815480929190610bad90615db1565b91905055507f9465fa0c962cc76958e6373a993326400c1c94f8be2fe3a952adfa7f60b2ea2682604051610be19190615280565b60405180910390a18060045414610bfc57610bfb8161198d565b5b5050565b610c1460418261357f90919063ffffffff16565b82511015610c57576040517f08c379a0000000000000000000000000000000000000000000000000000000008152600401610c4e90615979565b60405180910390fd5b6000808060008060005b868110156111fb57610c7388826135c4565b80945081955082965050505060008460ff161415610edd578260001c9450610ca560418861357f90919063ffffffff16565b8260001c1015610cea576040517f08c379a0000000000000000000000000000000000000000000000000000000008152600401610ce190615939565b60405180910390fd5b8751610d0360208460001c6135f390919063ffffffff16565b1115610d44576040517f08c379a0000000000000000000000000000000000000000000000000000000008152600401610d3b90615719565b60405180910390fd5b60006020838a01015190508851610d7a82610d6c60208760001c6135f390919063ffffffff16565b6135f390919063ffffffff16565b1115610dbb576040517f08c379a0000000000000000000000000000000000000000000000000000000008152600401610db290615679565b60405180910390fd5b60606020848b010190506320c13b0b60e01b7bffffffffffffffffffffffffffffffffffffffffffffffffffffffff19168773ffffffffffffffffffffffffffffffffffffffff166320c13b0b8d846040518363ffffffff1660e01b8152600401610e27929190615620565b60206040518083038186803b158015610e3f57600080fd5b505afa158015610e53573d6000803e3d6000fd5b505050506040513d601f19601f82011682018060405250810190610e779190614827565b7bffffffffffffffffffffffffffffffffffffffffffffffffffffffff191614610ed6576040517f08c379a0000000000000000000000000000000000000000000000000000000008152600401610ecd906156b9565b60405180910390fd5b50506110a6565b60018460ff161415610fbe578260001c94508473ffffffffffffffffffffffffffffffffffffffff163373ffffffffffffffffffffffffffffffffffffffff161480610f7a57506000600860008773ffffffffffffffffffffffffffffffffffffffff1673ffffffffffffffffffffffffffffffffffffffff16815260200190815260200160002060008c81526020019081526020016000205414155b610fb9576040517f08c379a0000000000000000000000000000000000000000000000000000000008152600401610fb0906158d9565b60405180910390fd5b6110a5565b601e8460ff1611156110525760018a604051602001610fdd919061523f565b604051602081830303815290604052805190602001206004866110009190615bff565b85856040516000815260200160405260405161101f94939291906155b9565b6020604051602081039080840390855afa158015611041573d6000803e3d6000fd5b5050506020604051035194506110a4565b60018a8585856040516000815260200160405260405161107594939291906155b9565b6020604051602081039080840390855afa158015611097573d6000803e3d6000fd5b5050506020604051035194505b5b5b8573ffffffffffffffffffffffffffffffffffffffff168573ffffffffffffffffffffffffffffffffffffffff1611801561116d5750600073ffffffffffffffffffffffffffffffffffffffff16600260008773ffffffffffffffffffffffffffffffffffffffff1673ffffffffffffffffffffffffffffffffffffffff16815260200190815260200160002060009054906101000a900473ffffffffffffffffffffffffffffffffffffffff1673ffffffffffffffffffffffffffffffffffffffff1614155b80156111a65750600173ffffffffffffffffffffffffffffffffffffffff168573ffffffffffffffffffffffffffffffffffffffff1614155b6111e5576040517f08c379a00000000000000000000000000000000000000000000000000000000081526004016111dc90615699565b60405180910390fd5b84955080806111f390615db1565b915050610c61565b50505050505050505050565b60008173ffffffffffffffffffffffffffffffffffffffff16600173ffffffffffffffffffffffffffffffffffffffff16141580156112d25750600073ffffffffffffffffffffffffffffffffffffffff16600160008473ffffffffffffffffffffffffffffffffffffffff1673ffffffffffffffffffffffffffffffffffffffff16815260200190815260200160002060009054906101000a900473ffffffffffffffffffffffffffffffffffffffff1673ffffffffffffffffffffffffffffffffffffffff1614155b9050919050565b6000600173ffffffffffffffffffffffffffffffffffffffff168273ffffffffffffffffffffffffffffffffffffffff16141580156113a45750600073ffffffffffffffffffffffffffffffffffffffff16600260008473ffffffffffffffffffffffffffffffffffffffff1673ffffffffffffffffffffffffffffffffffffffff16815260200190815260200160002060009054906101000a900473ffffffffffffffffffffffffffffffffffffffff1673ffffffffffffffffffffffffffffffffffffffff1614155b9050919050565b6000804690508091505090565b6000600173ffffffffffffffffffffffffffffffffffffffff163373ffffffffffffffffffffffffffffffffffffffff16141580156114835750600073ffffffffffffffffffffffffffffffffffffffff16600160003373ffffffffffffffffffffffffffffffffffffffff1673ffffffffffffffffffffffffffffffffffffffff16815260200190815260200160002060009054906101000a900473ffffffffffffffffffffffffffffffffffffffff1673ffffffffffffffffffffffffffffffffffffffff1614155b6114c2576040517f08c379a00000000000000000000000000000000000000000000000000000000081526004016114b990615899565b60405180910390fd5b6114cf858585855a61361b565b9050801561151f573373ffffffffffffffffffffffffffffffffffffffff167f6895c13664aa4f67288b25d7a21d7aaa34916e355fb9b6fae0a139a9085becb860405160405180910390a2611563565b3373ffffffffffffffffffffffffffffffffffffffff167facd2c8702804128fdb0db2bb49f6d127dd0181c13fd45dbfe16de0930e2bd37560405160405180910390a25b949350505050565b6000606061157b868686866113b8565b915060405160203d0181016040523d81523d6000602083013e8091505094509492505050565b606060006020836115b29190615b71565b67ffffffffffffffff8111156115f1577f4e487b7100000000000000000000000000000000000000000000000000000000600052604160045260246000fd5b6040519080825280601f01601f1916602001820160405280156116235781602001600182028036833780820191505090505b50905060005b838110156116545780850154806020830260208501015250808061164c90615db1565b915050611629565b508091505092915050565b60076020528060005260406000206000915090505481565b61167f61350f565b600073ffffffffffffffffffffffffffffffffffffffff168173ffffffffffffffffffffffffffffffffffffffff16141580156116e95750600173ffffffffffffffffffffffffffffffffffffffff168173ffffffffffffffffffffffffffffffffffffffff1614155b611728576040517f08c379a000000000000000000000000000000000000000000000000000000000815260040161171f90615959565b60405180910390fd5b600073ffffffffffffffffffffffffffffffffffffffff16600160008373ffffffffffffffffffffffffffffffffffffffff1673ffffffffffffffffffffffffffffffffffffffff16815260200190815260200160002060009054906101000a900473ffffffffffffffffffffffffffffffffffffffff1673ffffffffffffffffffffffffffffffffffffffff16146117f6576040517f08c379a00000000000000000000000000000000000000000000000000000000081526004016117ed90615919565b60405180910390fd5b60016000600173ffffffffffffffffffffffffffffffffffffffff1673ffffffffffffffffffffffffffffffffffffffff16815260200190815260200160002060009054906101000a900473ffffffffffffffffffffffffffffffffffffffff16600160008373ffffffffffffffffffffffffffffffffffffffff1673ffffffffffffffffffffffffffffffffffffffff16815260200190815260200160002060006101000a81548173ffffffffffffffffffffffffffffffffffffffff021916908373ffffffffffffffffffffffffffffffffffffffff1602179055508060016000600173ffffffffffffffffffffffffffffffffffffffff1673ffffffffffffffffffffffffffffffffffffffff16815260200190815260200160002060006101000a81548173ffffffffffffffffffffffffffffffffffffffff021916908373ffffffffffffffffffffffffffffffffffffffff1602179055507fecdf3a3effea5783a3c4c2140e677577666428d44ed9d474a0b3a4c9943f8440816040516119829190615280565b60405180910390a150565b61199561350f565b6003548111156119da576040517f08c379a00000000000000000000000000000000000000000000000000000000081526004016119d1906156f9565b60405180910390fd5b6001811015611a1e576040517f08c379a0000000000000000000000000000000000000000000000000000000008152600401611a1590615879565b60405180910390fd5b806004819055507f610f7ff2b304ae8903c3de74c60c6ab1f7d6226b3f52c5161905bb5ad4039c93600454604051611a5691906159b9565b60405180910390a150565b6000806000611a7b8e8e8e8e8e8e8e8e8e8e600554612fdb565b905060056000815480929190611a9090615db1565b919050555080805190602001209150611aaa828286611e47565b506000611ab56136c1565b9050600073ffffffffffffffffffffffffffffffffffffffff168173ffffffffffffffffffffffffffffffffffffffff1614611b6d578073ffffffffffffffffffffffffffffffffffffffff166375f0bb528f8f8f8f8f8f8f8f8f8f8f336040518d63ffffffff1660e01b8152600401611b3a9c9b9a999897969594939291906152c4565b600060405180830381600087803b158015611b5457600080fd5b505af1158015611b68573d6000803e3d6000fd5b505050505b6101f4611ba86109c48b611b819190615aea565b603f60408d611b909190615b71565b611b9a9190615b40565b6136f290919063ffffffff16565b611bb29190615aea565b5a1015611bf4576040517f08c379a0000000000000000000000000000000000000000000000000000000008152600401611beb90615859565b60405180910390fd5b60005a9050611c668f8f8f8f8080601f016020809104026020016040519081016040528093929190818152602001838380828437600081840152601f19601f820116905080830192505050505050508e60008d14611c52578e611c61565b6109c45a611c609190615bcb565b5b61361b565b9350611c7b5a8261370c90919063ffffffff16565b90508380611c8a575060008a14155b80611c96575060008814155b611cd5576040517f08c379a0000000000000000000000000000000000000000000000000000000008152600401611ccc90615839565b60405180910390fd5b600080891115611cef57611cec828b8b8b8b613735565b90505b8415611d33577f442e715f626346e8c54381002da614f62bee8d27386535b2521ec8540898556e8482604051611d26929190615559565b60405180910390a1611d6d565b7f23428b18acfb3ea64b08dc0c1d296ea9c09702c09083ca5272e64d115b687d238482604051611d64929190615559565b60405180910390a15b5050600073ffffffffffffffffffffffffffffffffffffffff168173ffffffffffffffffffffffffffffffffffffffff1614611e11578073ffffffffffffffffffffffffffffffffffffffff16639327136883856040518363ffffffff1660e01b8152600401611dde929190615530565b600060405180830381600087803b158015611df857600080fd5b505af1158015611e0c573d6000803e3d6000fd5b505050505b50509b9a5050505050505050505050565b6008602052816000526040600020602052806000526040600020600091509150505481565b6000600454905060008111611e91576040517f08c379a0000000000000000000000000000000000000000000000000000000008152600401611e8890615819565b60405180910390fd5b611e9d84848484610c00565b50505050565b6060600060035467ffffffffffffffff811115611ee9577f4e487b7100000000000000000000000000000000000000000000000000000000600052604160045260246000fd5b604051908082528060200260200182016040528015611f175781602001602082028036833780820191505090505b50905060008060026000600173ffffffffffffffffffffffffffffffffffffffff1673ffffffffffffffffffffffffffffffffffffffff16815260200190815260200160002060009054906101000a900473ffffffffffffffffffffffffffffffffffffffff1690505b600173ffffffffffffffffffffffffffffffffffffffff168173ffffffffffffffffffffffffffffffffffffffff161461209e5780838381518110611fef577f4e487b7100000000000000000000000000000000000000000000000000000000600052603260045260246000fd5b602002602001019073ffffffffffffffffffffffffffffffffffffffff16908173ffffffffffffffffffffffffffffffffffffffff1681525050600260008273ffffffffffffffffffffffffffffffffffffffff1673ffffffffffffffffffffffffffffffffffffffff16815260200190815260200160002060009054906101000a900473ffffffffffffffffffffffffffffffffffffffff169050818061209690615db1565b925050611f81565b82935050505090565b60055481565b600080825160208401855af4806000523d6020523d600060403e60403d016000fd5b61211a8a8a80806020026020016040519081016040528093929190818152602001838360200280828437600081840152601f19601f82011690508083019250505050505050896138d5565b600073ffffffffffffffffffffffffffffffffffffffff168473ffffffffffffffffffffffffffffffffffffffff16146121585761215784613d09565b5b6121a68787878080601f016020809104026020016040519081016040528093929190818152602001838380828437600081840152601f19601f82011690508083019250505050505050613d38565b60008211156121c0576121be82600060018685613735565b505b3373ffffffffffffffffffffffffffffffffffffffff167f141df868a6331af528e38c83b7aa03edc19be66e37ae67f9285bf4f8e3c6a1a88b8b8b8b8960405161220e95949392919061537f565b60405180910390a250505050505050505050565b6000805a9050612279878787878080601f016020809104026020016040519081016040528093929190818152602001838380828437600081840152601f19601f82011690508083019250505050505050865a61361b565b61228257600080fd5b60005a826122909190615bcb565b9050806040516020016122a39190615265565b6040516020818303038152906040526040517f08c379a00000000000000000000000000000000000000000000000000000000081526004016122e59190615657565b60405180910390fd5b606060008267ffffffffffffffff811115612332577f4e487b7100000000000000000000000000000000000000000000000000000000600052604160045260246000fd5b6040519080825280602002602001820160405280156123605781602001602082028036833780820191505090505b509150600080600160008773ffffffffffffffffffffffffffffffffffffffff1673ffffffffffffffffffffffffffffffffffffffff16815260200190815260200160002060009054906101000a900473ffffffffffffffffffffffffffffffffffffffff1690505b600073ffffffffffffffffffffffffffffffffffffffff168173ffffffffffffffffffffffffffffffffffffffff16141580156124335750600173ffffffffffffffffffffffffffffffffffffffff168173ffffffffffffffffffffffffffffffffffffffff1614155b801561243e57508482105b1561252c578084838151811061247d577f4e487b7100000000000000000000000000000000000000000000000000000000600052603260045260246000fd5b602002602001019073ffffffffffffffffffffffffffffffffffffffff16908173ffffffffffffffffffffffffffffffffffffffff1681525050600160008273ffffffffffffffffffffffffffffffffffffffff1673ffffffffffffffffffffffffffffffffffffffff16815260200190815260200160002060009054906101000a900473ffffffffffffffffffffffffffffffffffffffff169050818061252490615db1565b9250506123c9565b80925081845250509250929050565b600073ffffffffffffffffffffffffffffffffffffffff16600260003373ffffffffffffffffffffffffffffffffffffffff1673ffffffffffffffffffffffffffffffffffffffff16815260200190815260200160002060009054906101000a900473ffffffffffffffffffffffffffffffffffffffff1673ffffffffffffffffffffffffffffffffffffffff16141561260a576040517f08c379a0000000000000000000000000000000000000000000000000000000008152600401612601906156d9565b60405180910390fd5b6001600860003373ffffffffffffffffffffffffffffffffffffffff1673ffffffffffffffffffffffffffffffffffffffff1681526020019081526020016000206000838152602001908152602001600020819055503373ffffffffffffffffffffffffffffffffffffffff16817ff2a0eb156472d1440255b0d7c1e19cc07115d1051fe605b0dce69acfec884d9c60405160405180910390a350565b60006126bc8c8c8c8c8c8c8c8c8c8c8c612fdb565b8051906020012090509b9a5050505050505050505050565b6126dc61350f565b600073ffffffffffffffffffffffffffffffffffffffff168173ffffffffffffffffffffffffffffffffffffffff16141580156127465750600173ffffffffffffffffffffffffffffffffffffffff168173ffffffffffffffffffffffffffffffffffffffff1614155b612785576040517f08c379a000000000000000000000000000000000000000000000000000000000815260040161277c90615959565b60405180910390fd5b8073ffffffffffffffffffffffffffffffffffffffff16600160008473ffffffffffffffffffffffffffffffffffffffff1673ffffffffffffffffffffffffffffffffffffffff16815260200190815260200160002060009054906101000a900473ffffffffffffffffffffffffffffffffffffffff1673ffffffffffffffffffffffffffffffffffffffff1614612852576040517f08c379a0000000000000000000000000000000000000000000000000000000008152600401612849906157b9565b60405180910390fd5b600160008273ffffffffffffffffffffffffffffffffffffffff1673ffffffffffffffffffffffffffffffffffffffff16815260200190815260200160002060009054906101000a900473ffffffffffffffffffffffffffffffffffffffff16600160008473ffffffffffffffffffffffffffffffffffffffff1673ffffffffffffffffffffffffffffffffffffffff16815260200190815260200160002060006101000a81548173ffffffffffffffffffffffffffffffffffffffff021916908373ffffffffffffffffffffffffffffffffffffffff1602179055506000600160008373ffffffffffffffffffffffffffffffffffffffff1673ffffffffffffffffffffffffffffffffffffffff16815260200190815260200160002060006101000a81548173ffffffffffffffffffffffffffffffffffffffff021916908373ffffffffffffffffffffffffffffffffffffffff1602179055507faab4fa2b463f581b2b32cb3b7e3b704b9ce37cc209b5fb4d77e593ace4054276816040516129dd9190615280565b60405180910390a15050565b6129f161350f565b60007f4a204f620c8c5ccdca3fd54d003badd85ba500436a431f0cbda4f558c93c34c860001b90508181557f1151116914515bc0891ff9047a6cb32cf902546f83066499bcf8ba33d2353fa282604051612a4b9190615280565b60405180910390a15050565b612a5f61350f565b600073ffffffffffffffffffffffffffffffffffffffff168173ffffffffffffffffffffffffffffffffffffffff1614158015612ac95750600173ffffffffffffffffffffffffffffffffffffffff168173ffffffffffffffffffffffffffffffffffffffff1614155b8015612b0157503073ffffffffffffffffffffffffffffffffffffffff168173ffffffffffffffffffffffffffffffffffffffff1614155b612b40576040517f08c379a0000000000000000000000000000000000000000000000000000000008152600401612b3790615759565b60405180910390fd5b600073ffffffffffffffffffffffffffffffffffffffff16600260008373ffffffffffffffffffffffffffffffffffffffff1673ffffffffffffffffffffffffffffffffffffffff16815260200190815260200160002060009054906101000a900473ffffffffffffffffffffffffffffffffffffffff1673ffffffffffffffffffffffffffffffffffffffff1614612c0e576040517f08c379a0000000000000000000000000000000000000000000000000000000008152600401612c05906158f9565b60405180910390fd5b600073ffffffffffffffffffffffffffffffffffffffff168273ffffffffffffffffffffffffffffffffffffffff1614158015612c785750600173ffffffffffffffffffffffffffffffffffffffff168273ffffffffffffffffffffffffffffffffffffffff1614155b612cb7576040517f08c379a0000000000000000000000000000000000000000000000000000000008152600401612cae90615759565b60405180910390fd5b8173ffffffffffffffffffffffffffffffffffffffff16600260008573ffffffffffffffffffffffffffffffffffffffff1673ffffffffffffffffffffffffffffffffffffffff16815260200190815260200160002060009054906101000a900473ffffffffffffffffffffffffffffffffffffffff1673ffffffffffffffffffffffffffffffffffffffff1614612d84576040517f08c379a0000000000000000000000000000000000000000000000000000000008152600401612d7b90615999565b60405180910390fd5b600260008373ffffffffffffffffffffffffffffffffffffffff1673ffffffffffffffffffffffffffffffffffffffff16815260200190815260200160002060009054906101000a900473ffffffffffffffffffffffffffffffffffffffff16600260008373ffffffffffffffffffffffffffffffffffffffff1673ffffffffffffffffffffffffffffffffffffffff16815260200190815260200160002060006101000a81548173ffffffffffffffffffffffffffffffffffffffff021916908373ffffffffffffffffffffffffffffffffffffffff16021790555080600260008573ffffffffffffffffffffffffffffffffffffffff1673ffffffffffffffffffffffffffffffffffffffff16815260200190815260200160002060006101000a81548173ffffffffffffffffffffffffffffffffffffffff021916908373ffffffffffffffffffffffffffffffffffffffff1602179055506000600260008473ffffffffffffffffffffffffffffffffffffffff1673ffffffffffffffffffffffffffffffffffffffff16815260200190815260200160002060006101000a81548173ffffffffffffffffffffffffffffffffffffffff021916908373ffffffffffffffffffffffffffffffffffffffff1602179055507ff8d49fc529812e9a7c5c50e69c20f0dccc0db8fa95c98bc58cc9a4f1c1299eaf82604051612f8d9190615280565b60405180910390a17f9465fa0c962cc76958e6373a993326400c1c94f8be2fe3a952adfa7f60b2ea2681604051612fc49190615280565b60405180910390a1505050565b6000600454905090565b606060007fbb8310d486368db6bd6f849402fdd73ad53d316b5a4b2644ad6efe0f941286d860001b8d8d8d8d604051613015929190615226565b60405180910390208c8c8c8c8c8c8c60405160200161303e9b9a99989796959493929190615485565b604051602081830303815290604052805190602001209050601960f81b600160f81b6130686130e8565b8360405160200161307c94939291906151d8565b6040516020818303038152906040529150509b9a5050505050505050505050565b6130a561350f565b6130ae81613d09565b7f5ac6c46c93c8d0e53714ba3b53db3e7c046da994313d7ed0d192028bc7c228b0816040516130dd9190615280565b60405180910390a150565b60007f47e79534a245952e8b16893a336b85a3d9ea9fa8c573f3d803afb92a7946921860001b6131166113ab565b3060405160200161312993929190615582565b60405160208183030381529060405280519060200120905090565b61314c61350f565b80600160035461315c9190615bcb565b101561319d576040517f08c379a0000000000000000000000000000000000000000000000000000000008152600401613194906156f9565b60405180910390fd5b600073ffffffffffffffffffffffffffffffffffffffff168273ffffffffffffffffffffffffffffffffffffffff16141580156132075750600173ffffffffffffffffffffffffffffffffffffffff168273ffffffffffffffffffffffffffffffffffffffff1614155b613246576040517f08c379a000000000000000000000000000000000000000000000000000000000815260040161323d90615759565b60405180910390fd5b8173ffffffffffffffffffffffffffffffffffffffff16600260008573ffffffffffffffffffffffffffffffffffffffff1673ffffffffffffffffffffffffffffffffffffffff16815260200190815260200160002060009054906101000a900473ffffffffffffffffffffffffffffffffffffffff1673ffffffffffffffffffffffffffffffffffffffff1614613313576040517f08c379a000000000000000000000000000000000000000000000000000000000815260040161330a90615999565b60405180910390fd5b600260008373ffffffffffffffffffffffffffffffffffffffff1673ffffffffffffffffffffffffffffffffffffffff16815260200190815260200160002060009054906101000a900473ffffffffffffffffffffffffffffffffffffffff16600260008573ffffffffffffffffffffffffffffffffffffffff1673ffffffffffffffffffffffffffffffffffffffff16815260200190815260200160002060006101000a81548173ffffffffffffffffffffffffffffffffffffffff021916908373ffffffffffffffffffffffffffffffffffffffff1602179055506000600260008473ffffffffffffffffffffffffffffffffffffffff1673ffffffffffffffffffffffffffffffffffffffff16815260200190815260200160002060006101000a81548173ffffffffffffffffffffffffffffffffffffffff021916908373ffffffffffffffffffffffffffffffffffffffff1602179055506003600081548092919061348290615d87565b91905055507ff8d49fc529812e9a7c5c50e69c20f0dccc0db8fa95c98bc58cc9a4f1c1299eaf826040516134b69190615280565b60405180910390a180600454146134d1576134d08161198d565b5b505050565b6040518060400160405280600581526020017f312e332e3000000000000000000000000000000000000000000000000000000081525081565b3073ffffffffffffffffffffffffffffffffffffffff163373ffffffffffffffffffffffffffffffffffffffff161461357d576040517f08c379a0000000000000000000000000000000000000000000000000000000008152600401613574906158b9565b60405180910390fd5b565b60008083141561359257600090506135be565b600082846135a09190615b71565b90508284826135af9190615b40565b146135b957600080fd5b809150505b92915050565b60008060008360410260208101860151925060408101860151915060ff60418201870151169350509250925092565b60008082846136029190615aea565b90508381101561361157600080fd5b8091505092915050565b6000600180811115613656577f4e487b7100000000000000000000000000000000000000000000000000000000600052602160045260246000fd5b83600181111561368f577f4e487b7100000000000000000000000000000000000000000000000000000000600052602160045260246000fd5b14156136a8576000808551602087018986f490506136b8565b600080855160208701888a87f190505b95945050505050565b6000807f4a204f620c8c5ccdca3fd54d003badd85ba500436a431f0cbda4f558c93c34c860001b9050805491505090565b6000818310156137025781613704565b825b905092915050565b60008282111561371b57600080fd5b600082846137299190615bcb565b90508091505092915050565b600080600073ffffffffffffffffffffffffffffffffffffffff168373ffffffffffffffffffffffffffffffffffffffff16146137725782613774565b325b9050600073ffffffffffffffffffffffffffffffffffffffff168473ffffffffffffffffffffffffffffffffffffffff161415613859576137de3a86106137bb573a6137bd565b855b6137d0888a6135f390919063ffffffff16565b61357f90919063ffffffff16565b91508073ffffffffffffffffffffffffffffffffffffffff166108fc839081150290604051600060405180830381858888f19350505050613854576040517f08c379a000000000000000000000000000000000000000000000000000000000815260040161384b90615799565b60405180910390fd5b6138cb565b61387e85613870888a6135f390919063ffffffff16565b61357f90919063ffffffff16565b915061388b848284613f0d565b6138ca576040517f08c379a00000000000000000000000000000000000000000000000000000000081526004016138c1906157d9565b60405180910390fd5b5b5095945050505050565b60006004541461391a576040517f08c379a000000000000000000000000000000000000000000000000000000000815260040161391190615739565b60405180910390fd5b815181111561395e576040517f08c379a0000000000000000000000000000000000000000000000000000000008152600401613955906156f9565b60405180910390fd5b60018110156139a2576040517f08c379a000000000000000000000000000000000000000000000000000000000815260040161399990615879565b60405180910390fd5b60006001905060005b8351811015613c755760008482815181106139ef577f4e487b7100000000000000000000000000000000000000000000000000000000600052603260045260246000fd5b60200260200101519050600073ffffffffffffffffffffffffffffffffffffffff168173ffffffffffffffffffffffffffffffffffffffff1614158015613a635750600173ffffffffffffffffffffffffffffffffffffffff168173ffffffffffffffffffffffffffffffffffffffff1614155b8015613a9b57503073ffffffffffffffffffffffffffffffffffffffff168173ffffffffffffffffffffffffffffffffffffffff1614155b8015613ad357508073ffffffffffffffffffffffffffffffffffffffff168373ffffffffffffffffffffffffffffffffffffffff1614155b613b12576040517f08c379a0000000000000000000000000000000000000000000000000000000008152600401613b0990615759565b60405180910390fd5b600073ffffffffffffffffffffffffffffffffffffffff16600260008373ffffffffffffffffffffffffffffffffffffffff1673ffffffffffffffffffffffffffffffffffffffff16815260200190815260200160002060009054906101000a900473ffffffffffffffffffffffffffffffffffffffff1673ffffffffffffffffffffffffffffffffffffffff1614613be0576040517f08c379a0000000000000000000000000000000000000000000000000000000008152600401613bd7906158f9565b60405180910390fd5b80600260008573ffffffffffffffffffffffffffffffffffffffff1673ffffffffffffffffffffffffffffffffffffffff16815260200190815260200160002060006101000a81548173ffffffffffffffffffffffffffffffffffffffff021916908373ffffffffffffffffffffffffffffffffffffffff160217905550809250508080613c6d90615db1565b9150506139ab565b506001600260008373ffffffffffffffffffffffffffffffffffffffff1673ffffffffffffffffffffffffffffffffffffffff16815260200190815260200160002060006101000a81548173ffffffffffffffffffffffffffffffffffffffff021916908373ffffffffffffffffffffffffffffffffffffffff160217905550825160038190555081600481905550505050565b60007f6c9a6c4a39284e37ed1cf53d337577d14212a4870fb976a4366c693b939918d560001b90508181555050565b600073ffffffffffffffffffffffffffffffffffffffff1660016000600173ffffffffffffffffffffffffffffffffffffffff1673ffffffffffffffffffffffffffffffffffffffff16815260200190815260200160002060009054906101000a900473ffffffffffffffffffffffffffffffffffffffff1673ffffffffffffffffffffffffffffffffffffffff1614613e07576040517f08c379a0000000000000000000000000000000000000000000000000000000008152600401613dfe906157f9565b60405180910390fd5b6001806000600173ffffffffffffffffffffffffffffffffffffffff1673ffffffffffffffffffffffffffffffffffffffff16815260200190815260200160002060006101000a81548173ffffffffffffffffffffffffffffffffffffffff021916908373ffffffffffffffffffffffffffffffffffffffff160217905550600073ffffffffffffffffffffffffffffffffffffffff168273ffffffffffffffffffffffffffffffffffffffff1614613f0957613ec98260008360015a61361b565b613f08576040517f08c379a0000000000000000000000000000000000000000000000000000000008152600401613eff90615779565b60405180910390fd5b5b5050565b60008063a9059cbb8484604051602401613f2892919061529b565b6040516020818303038152906040529060e01b6020820180517bffffffffffffffffffffffffffffffffffffffffffffffffffffffff83818316178352505050509050602060008251602084016000896127105a03f13d60008114613f985760208114613fa05760009350613fab565b819350613fab565b600051158215171593505b5050509392505050565b6000613fc8613fc384615a05565b6159d4565b905082815260208101848484011115613fe057600080fd5b613feb848285615d45565b509392505050565b60008135905061400281615ef9565b92915050565b60008135905061401781615f10565b92915050565b60008083601f84011261402f57600080fd5b8235905067ffffffffffffffff81111561404857600080fd5b60208301915083602082028301111561406057600080fd5b9250929050565b60008135905061407681615f27565b92915050565b60008151905061408b81615f3e565b92915050565b60008083601f8401126140a357600080fd5b8235905067ffffffffffffffff8111156140bc57600080fd5b6020830191508360018202830111156140d457600080fd5b9250929050565b600082601f8301126140ec57600080fd5b81356140fc848260208601613fb5565b91505092915050565b60008135905061411481615f55565b92915050565b60008135905061412981615f65565b92915050565b60006020828403121561414157600080fd5b600061414f84828501613ff3565b91505092915050565b6000806040838503121561416b57600080fd5b600061417985828601613ff3565b925050602061418a85828601613ff3565b9150509250929050565b6000806000606084860312156141a957600080fd5b60006141b786828701613ff3565b93505060206141c886828701613ff3565b92505060406141d986828701613ff3565b9150509250925092565b6000806000606084860312156141f857600080fd5b600061420686828701613ff3565b935050602061421786828701613ff3565b92505060406142288682870161411a565b9150509250925092565b6000806040838503121561424557600080fd5b600061425385828601613ff3565b925050602061426485828601614067565b9150509250929050565b6000806040838503121561428157600080fd5b600061428f85828601613ff3565b925050602083013567ffffffffffffffff8111156142ac57600080fd5b6142b8858286016140db565b9150509250929050565b600080604083850312156142d557600080fd5b60006142e385828601613ff3565b92505060206142f48582860161411a565b9150509250929050565b60008060008060006080868803121561431657600080fd5b600061432488828901613ff3565b95505060206143358882890161411a565b945050604086013567ffffffffffffffff81111561435257600080fd5b61435e88828901614091565b9350935050606061437188828901614105565b9150509295509295909350565b60008060008060008060008060008060006101408c8e0312156143a057600080fd5b60006143ae8e828f01613ff3565b9b505060206143bf8e828f0161411a565b9a505060408c013567ffffffffffffffff8111156143dc57600080fd5b6143e88e828f01614091565b995099505060606143fb8e828f01614105565b975050608061440c8e828f0161411a565b96505060a061441d8e828f0161411a565b95505060c061442e8e828f0161411a565b94505060e061443f8e828f01613ff3565b9350506101006144518e828f01614008565b9250506101208c013567ffffffffffffffff81111561446f57600080fd5b61447b8e828f016140db565b9150509295989b509295989b9093969950565b60008060008060008060008060008060006101408c8e0312156144b057600080fd5b60006144be8e828f01613ff3565b9b505060206144cf8e828f0161411a565b9a505060408c013567ffffffffffffffff8111156144ec57600080fd5b6144f88e828f01614091565b9950995050606061450b8e828f01614105565b975050608061451c8e828f0161411a565b96505060a061452d8e828f0161411a565b95505060c061453e8e828f0161411a565b94505060e061454f8e828f01613ff3565b9350506101006145618e828f01613ff3565b9250506101206145738e828f0161411a565b9150509295989b509295989b9093969950565b6000806000806080858703121561459c57600080fd5b60006145aa87828801613ff3565b94505060206145bb8782880161411a565b935050604085013567ffffffffffffffff8111156145d857600080fd5b6145e4878288016140db565b92505060606145f587828801614105565b91505092959194509250565b6000806000806000806000806000806101008b8d03121561462157600080fd5b60008b013567ffffffffffffffff81111561463b57600080fd5b6146478d828e0161401d565b9a509a5050602061465a8d828e0161411a565b985050604061466b8d828e01613ff3565b97505060608b013567ffffffffffffffff81111561468857600080fd5b6146948d828e01614091565b965096505060806146a78d828e01613ff3565b94505060a06146b88d828e01613ff3565b93505060c06146c98d828e0161411a565b92505060e06146da8d828e01614008565b9150509295989b9194979a5092959850565b6000602082840312156146fe57600080fd5b600061470c84828501614067565b91505092915050565b60008060006060848603121561472a57600080fd5b600061473886828701614067565b935050602084013567ffffffffffffffff81111561475557600080fd5b614761868287016140db565b925050604084013567ffffffffffffffff81111561477e57600080fd5b61478a868287016140db565b9150509250925092565b600080600080608085870312156147aa57600080fd5b60006147b887828801614067565b945050602085013567ffffffffffffffff8111156147d557600080fd5b6147e1878288016140db565b935050604085013567ffffffffffffffff8111156147fe57600080fd5b61480a878288016140db565b925050606061481b8782880161411a565b91505092959194509250565b60006020828403121561483957600080fd5b60006148478482850161407c565b91505092915050565b60006020828403121561486257600080fd5b60006148708482850161411a565b91505092915050565b6000806040838503121561488c57600080fd5b600061489a8582860161411a565b92505060206148ab8582860161411a565b9150509250929050565b60006148c183836148dc565b60208301905092915050565b6148d681615c45565b82525050565b6148e581615c33565b82525050565b6148f481615c33565b82525050565b60006149068385615a8a565b935061491182615a35565b8060005b8581101561494a576149278284615ad3565b61493188826148b5565b975061493c83615a70565b925050600181019050614915565b5085925050509392505050565b600061496282615a4f565b61496c8185615a8a565b935061497783615a3f565b8060005b838110156149a857815161498f88826148b5565b975061499a83615a7d565b92505060018101905061497b565b5085935050505092915050565b6149be81615c57565b82525050565b6149d56149d082615c63565b615dfa565b82525050565b6149e481615c8f565b82525050565b6149fb6149f682615c8f565b615e04565b82525050565b6000614a0d8385615a9b565b9350614a1a838584615d45565b614a2383615ed4565b840190509392505050565b6000614a3a8385615aac565b9350614a47838584615d45565b82840190509392505050565b6000614a5e82615a5a565b614a688185615a9b565b9350614a78818560208601615d54565b614a8181615ed4565b840191505092915050565b614a9581615d0f565b82525050565b614aa481615d33565b82525050565b6000614ab582615a65565b614abf8185615ab7565b9350614acf818560208601615d54565b614ad881615ed4565b840191505092915050565b6000614af0600583615ab7565b91507f47533032330000000000000000000000000000000000000000000000000000006000830152602082019050919050565b6000614b30600583615ab7565b91507f47533032360000000000000000000000000000000000000000000000000000006000830152602082019050919050565b6000614b70601c83615ac8565b91507f19457468657265756d205369676e6564204d6573736167653a0a3332000000006000830152601c82019050919050565b6000614bb0600583615ab7565b91507f47533032340000000000000000000000000000000000000000000000000000006000830152602082019050919050565b6000614bf0600583615ab7565b91507f47533033300000000000000000000000000000000000000000000000000000006000830152602082019050919050565b6000614c30600583615ab7565b91507f47533230310000000000000000000000000000000000000000000000000000006000830152602082019050919050565b6000614c70600583615ab7565b91507f47533032320000000000000000000000000000000000000000000000000000006000830152602082019050919050565b6000614cb0600583615ab7565b91507f47533230300000000000000000000000000000000000000000000000000000006000830152602082019050919050565b6000614cf0600583615ab7565b91507f47533230330000000000000000000000000000000000000000000000000000006000830152602082019050919050565b6000614d30600583615ab7565b91507f47533030300000000000000000000000000000000000000000000000000000006000830152602082019050919050565b6000614d70600583615ab7565b91507f47533031310000000000000000000000000000000000000000000000000000006000830152602082019050919050565b6000614db0600583615ab7565b91507f47533130330000000000000000000000000000000000000000000000000000006000830152602082019050919050565b6000614df0600583615ab7565b91507f47533031320000000000000000000000000000000000000000000000000000006000830152602082019050919050565b6000614e30600583615ab7565b91507f47533130300000000000000000000000000000000000000000000000000000006000830152602082019050919050565b6000614e70600583615ab7565b91507f47533030310000000000000000000000000000000000000000000000000000006000830152602082019050919050565b6000614eb0600583615ab7565b91507f47533031330000000000000000000000000000000000000000000000000000006000830152602082019050919050565b6000614ef0600583615ab7565b91507f47533031300000000000000000000000000000000000000000000000000000006000830152602082019050919050565b6000614f30600583615ab7565b91507f47533230320000000000000000000000000000000000000000000000000000006000830152602082019050919050565b6000614f70600583615ab7565b91507f47533130340000000000000000000000000000000000000000000000000000006000830152602082019050919050565b6000614fb0600583615ab7565b91507f47533033310000000000000000000000000000000000000000000000000000006000830152602082019050919050565b6000614ff0600583615ab7565b91507f47533032350000000000000000000000000000000000000000000000000000006000830152602082019050919050565b6000615030600583615ab7565b91507f47533230340000000000000000000000000000000000000000000000000000006000830152602082019050919050565b6000615070600583615ab7565b91507f47533130320000000000000000000000000000000000000000000000000000006000830152602082019050919050565b60006150b0600583615ab7565b91507f47533032310000000000000000000000000000000000000000000000000000006000830152602082019050919050565b60006150f0600583615ab7565b91507f47533130310000000000000000000000000000000000000000000000000000006000830152602082019050919050565b6000615130600583615ab7565b91507f47533032300000000000000000000000000000000000000000000000000000006000830152602082019050919050565b6000615170600583615ab7565b91507f47533230350000000000000000000000000000000000000000000000000000006000830152602082019050919050565b6151ac81615cf8565b82525050565b6151c36151be82615cf8565b615e0e565b82525050565b6151d281615d02565b82525050565b60006151e482876149c4565b6001820191506151f482866149c4565b60018201915061520482856149ea565b60208201915061521482846149ea565b60208201915081905095945050505050565b6000615233828486614a2e565b91508190509392505050565b600061524a82614b63565b915061525682846149ea565b60208201915081905092915050565b600061527182846151b2565b60208201915081905092915050565b600060208201905061529560008301846148eb565b92915050565b60006040820190506152b060008301856148eb565b6152bd60208301846151a3565b9392505050565b6000610160820190506152da600083018f6148eb565b6152e7602083018e6151a3565b81810360408301526152fa818c8e614a01565b9050615309606083018b614a9b565b615316608083018a6151a3565b61532360a08301896151a3565b61533060c08301886151a3565b61533d60e08301876148eb565b61534b6101008301866148cd565b81810361012083015261535e8185614a53565b905061536e6101408301846148eb565b9d9c50505050505050505050505050565b6000608082019050818103600083015261539a8187896148fa565b90506153a960208301866151a3565b6153b660408301856148eb565b6153c360608301846148eb565b9695505050505050565b600060208201905081810360008301526153e78184614957565b905092915050565b600060408201905081810360008301526154098185614957565b905061541860208301846148eb565b9392505050565b600060208201905061543460008301846149b5565b92915050565b600060408201905061544f60008301856149b5565b81810360208301526154618184614a53565b90509392505050565b600060208201905061547f60008301846149db565b92915050565b60006101608201905061549b600083018e6149db565b6154a8602083018d6148eb565b6154b5604083018c6151a3565b6154c2606083018b6149db565b6154cf608083018a614a9b565b6154dc60a08301896151a3565b6154e960c08301886151a3565b6154f660e08301876151a3565b6155046101008301866148eb565b6155126101208301856148eb565b6155206101408301846151a3565b9c9b505050505050505050505050565b600060408201905061554560008301856149db565b61555260208301846149b5565b9392505050565b600060408201905061556e60008301856149db565b61557b60208301846151a3565b9392505050565b600060608201905061559760008301866149db565b6155a460208301856151a3565b6155b16040830184614a8c565b949350505050565b60006080820190506155ce60008301876149db565b6155db60208301866151c9565b6155e860408301856149db565b6155f560608301846149db565b95945050505050565b600060208201905081810360008301526156188184614a53565b905092915050565b6000604082019050818103600083015261563a8185614a53565b9050818103602083015261564e8184614a53565b90509392505050565b600060208201905081810360008301526156718184614aaa565b905092915050565b6000602082019050818103600083015261569281614ae3565b9050919050565b600060208201905081810360008301526156b281614b23565b9050919050565b600060208201905081810360008301526156d281614ba3565b9050919050565b600060208201905081810360008301526156f281614be3565b9050919050565b6000602082019050818103600083015261571281614c23565b9050919050565b6000602082019050818103600083015261573281614c63565b9050919050565b6000602082019050818103600083015261575281614ca3565b9050919050565b6000602082019050818103600083015261577281614ce3565b9050919050565b6000602082019050818103600083015261579281614d23565b9050919050565b600060208201905081810360008301526157b281614d63565b9050919050565b600060208201905081810360008301526157d281614da3565b9050919050565b600060208201905081810360008301526157f281614de3565b9050919050565b6000602082019050818103600083015261581281614e23565b9050919050565b6000602082019050818103600083015261583281614e63565b9050919050565b6000602082019050818103600083015261585281614ea3565b9050919050565b6000602082019050818103600083015261587281614ee3565b9050919050565b6000602082019050818103600083015261589281614f23565b9050919050565b600060208201905081810360008301526158b281614f63565b9050919050565b600060208201905081810360008301526158d281614fa3565b9050919050565b600060208201905081810360008301526158f281614fe3565b9050919050565b6000602082019050818103600083015261591281615023565b9050919050565b6000602082019050818103600083015261593281615063565b9050919050565b60006020820190508181036000830152615952816150a3565b9050919050565b60006020820190508181036000830152615972816150e3565b9050919050565b6000602082019050818103600083015261599281615123565b9050919050565b600060208201905081810360008301526159b281615163565b9050919050565b60006020820190506159ce60008301846151a3565b92915050565b6000604051905081810181811067ffffffffffffffff821117156159fb576159fa615ea5565b5b8060405250919050565b600067ffffffffffffffff821115615a2057615a1f615ea5565b5b601f19601f8301169050602081019050919050565b6000819050919050565b6000819050602082019050919050565b600081519050919050565b600081519050919050565b600081519050919050565b6000602082019050919050565b6000602082019050919050565b600082825260208201905092915050565b600082825260208201905092915050565b600081905092915050565b600082825260208201905092915050565b600081905092915050565b6000615ae26020840184613ff3565b905092915050565b6000615af582615cf8565b9150615b0083615cf8565b9250827fffffffffffffffffffffffffffffffffffffffffffffffffffffffffffffffff03821115615b3557615b34615e18565b5b828201905092915050565b6000615b4b82615cf8565b9150615b5683615cf8565b925082615b6657615b65615e47565b5b828204905092915050565b6000615b7c82615cf8565b9150615b8783615cf8565b9250817fffffffffffffffffffffffffffffffffffffffffffffffffffffffffffffffff0483118215151615615bc057615bbf615e18565b5b828202905092915050565b6000615bd682615cf8565b9150615be183615cf8565b925082821015615bf457615bf3615e18565b5b828203905092915050565b6000615c0a82615d02565b9150615c1583615d02565b925082821015615c2857615c27615e18565b5b828203905092915050565b6000615c3e82615cd8565b9050919050565b6000615c5082615cd8565b9050919050565b60008115159050919050565b60007fff0000000000000000000000000000000000000000000000000000000000000082169050919050565b6000819050919050565b60007fffffffff0000000000000000000000000000000000000000000000000000000082169050919050565b6000819050615cd382615ee5565b919050565b600073ffffffffffffffffffffffffffffffffffffffff82169050919050565b6000819050919050565b600060ff82169050919050565b6000615d1a82615d21565b9050919050565b6000615d2c82615cd8565b9050919050565b6000615d3e82615cc5565b9050919050565b82818337600083830152505050565b60005b83811015615d72578082015181840152602081019050615d57565b83811115615d81576000848401525b50505050565b6000615d9282615cf8565b91506000821415615da657615da5615e18565b5b600182039050919050565b6000615dbc82615cf8565b91507fffffffffffffffffffffffffffffffffffffffffffffffffffffffffffffffff821415615def57615dee615e18565b5b600182019050919050565b6000819050919050565b6000819050919050565b6000819050919050565b7f4e487b7100000000000000000000000000000000000000000000000000000000600052601160045260246000fd5b7f4e487b7100000000000000000000000000000000000000000000000000000000600052601260045260246000fd5b7f4e487b7100000000000000000000000000000000000000000000000000000000600052602160045260246000fd5b7f4e487b7100000000000000000000000000000000000000000000000000000000600052604160045260246000fd5b6000601f19601f8301169050919050565b60028110615ef657615ef5615e76565b5b50565b615f0281615c33565b8114615f0d57600080fd5b50565b615f1981615c45565b8114615f2457600080fd5b50565b615f3081615c8f565b8114615f3b57600080fd5b50565b615f4781615c99565b8114615f5257600080fd5b50565b60028110615f6257600080fd5b50565b615f6e81615cf8565b8114615f7957600080fd5b5056fea2646970667358221220398ea71d89a7f932840c3b3ef7fbeb73652f082fc34fd8c1c1a12e39ee579b2764736f6c63430008000033",
  "linkReferences": {},
  "deployedLinkReferences": {}
}